{
  "contractName": "App",
  "abi": [
    {
      "constant": false,
      "inputs": [],
      "name": "renounceOwnership",
      "outputs": [],
      "payable": false,
      "stateMutability": "nonpayable",
      "type": "function"
    },
    {
      "constant": true,
      "inputs": [],
      "name": "owner",
      "outputs": [
        {
          "name": "",
          "type": "address"
        }
      ],
      "payable": false,
      "stateMutability": "view",
      "type": "function"
    },
    {
      "constant": false,
      "inputs": [
        {
          "name": "_newOwner",
          "type": "address"
        }
      ],
      "name": "transferOwnership",
      "outputs": [],
      "payable": false,
      "stateMutability": "nonpayable",
      "type": "function"
    },
    {
      "inputs": [],
      "payable": false,
      "stateMutability": "nonpayable",
      "type": "constructor"
    },
    {
      "anonymous": false,
      "inputs": [
        {
          "indexed": false,
          "name": "proxy",
          "type": "address"
        }
      ],
      "name": "ProxyCreated",
      "type": "event"
    },
    {
      "anonymous": false,
      "inputs": [
        {
          "indexed": false,
          "name": "providerName",
          "type": "string"
        },
        {
          "indexed": false,
          "name": "package",
          "type": "address"
        },
        {
          "indexed": false,
          "name": "version",
          "type": "uint64[3]"
        }
      ],
      "name": "PackageChanged",
      "type": "event"
    },
    {
      "anonymous": false,
      "inputs": [
        {
          "indexed": true,
          "name": "previousOwner",
          "type": "address"
        }
      ],
      "name": "OwnershipRenounced",
      "type": "event"
    },
    {
      "anonymous": false,
      "inputs": [
        {
          "indexed": true,
          "name": "previousOwner",
          "type": "address"
        },
        {
          "indexed": true,
          "name": "newOwner",
          "type": "address"
        }
      ],
      "name": "OwnershipTransferred",
      "type": "event"
    },
    {
      "constant": true,
      "inputs": [
        {
          "name": "packageName",
          "type": "string"
        }
      ],
      "name": "getProvider",
      "outputs": [
        {
          "name": "provider",
          "type": "address"
        }
      ],
      "payable": false,
      "stateMutability": "view",
      "type": "function"
    },
    {
      "constant": true,
      "inputs": [
        {
          "name": "packageName",
          "type": "string"
        }
      ],
      "name": "getPackage",
      "outputs": [
        {
          "name": "",
          "type": "address"
        },
        {
          "name": "",
          "type": "uint64[3]"
        }
      ],
      "payable": false,
      "stateMutability": "view",
      "type": "function"
    },
    {
      "constant": false,
      "inputs": [
        {
          "name": "packageName",
          "type": "string"
        },
        {
          "name": "package",
          "type": "address"
        },
        {
          "name": "version",
          "type": "uint64[3]"
        }
      ],
      "name": "setPackage",
      "outputs": [],
      "payable": false,
      "stateMutability": "nonpayable",
      "type": "function"
    },
    {
      "constant": false,
      "inputs": [
        {
          "name": "packageName",
          "type": "string"
        }
      ],
      "name": "unsetPackage",
      "outputs": [],
      "payable": false,
      "stateMutability": "nonpayable",
      "type": "function"
    },
    {
      "constant": true,
      "inputs": [
        {
          "name": "packageName",
          "type": "string"
        },
        {
          "name": "contractName",
          "type": "string"
        }
      ],
      "name": "getImplementation",
      "outputs": [
        {
          "name": "",
          "type": "address"
        }
      ],
      "payable": false,
      "stateMutability": "view",
      "type": "function"
    },
    {
      "constant": true,
      "inputs": [
        {
          "name": "proxy",
          "type": "address"
        }
      ],
      "name": "getProxyImplementation",
      "outputs": [
        {
          "name": "",
          "type": "address"
        }
      ],
      "payable": false,
      "stateMutability": "view",
      "type": "function"
    },
    {
      "constant": true,
      "inputs": [
        {
          "name": "proxy",
          "type": "address"
        }
      ],
      "name": "getProxyAdmin",
      "outputs": [
        {
          "name": "",
          "type": "address"
        }
      ],
      "payable": false,
      "stateMutability": "view",
      "type": "function"
    },
    {
      "constant": false,
      "inputs": [
        {
          "name": "proxy",
          "type": "address"
        },
        {
          "name": "newAdmin",
          "type": "address"
        }
      ],
      "name": "changeProxyAdmin",
      "outputs": [],
      "payable": false,
      "stateMutability": "nonpayable",
      "type": "function"
    },
    {
      "constant": false,
      "inputs": [
        {
          "name": "packageName",
          "type": "string"
        },
        {
          "name": "contractName",
          "type": "string"
        },
        {
          "name": "data",
          "type": "bytes"
        }
      ],
      "name": "create",
      "outputs": [
        {
          "name": "",
          "type": "address"
        }
      ],
      "payable": true,
      "stateMutability": "payable",
      "type": "function"
    },
    {
      "constant": false,
      "inputs": [
        {
          "name": "proxy",
          "type": "address"
        },
        {
          "name": "packageName",
          "type": "string"
        },
        {
          "name": "contractName",
          "type": "string"
        }
      ],
      "name": "upgrade",
      "outputs": [],
      "payable": false,
      "stateMutability": "nonpayable",
      "type": "function"
    },
    {
      "constant": false,
      "inputs": [
        {
          "name": "proxy",
          "type": "address"
        },
        {
          "name": "packageName",
          "type": "string"
        },
        {
          "name": "contractName",
          "type": "string"
        },
        {
          "name": "data",
          "type": "bytes"
        }
      ],
      "name": "upgradeAndCall",
      "outputs": [],
      "payable": true,
      "stateMutability": "payable",
      "type": "function"
    }
  ],
  "bytecode": "0x608060405234801561001057600080fd5b50336000806101000a81548173ffffffffffffffffffffffffffffffffffffffff021916908373ffffffffffffffffffffffffffffffffffffffff160217905550612bc8806100606000396000f300608060405260043610620000df576000357c0100000000000000000000000000000000000000000000000000000000900463ffffffff168063204e1c7a14620000e457806327a0d669146200016a5780632f237e82146200025c57806350cadc851462000386578063715018a6146200043257806371eb64cc146200044c5780637eff275e146200050757806382f75182146200056d57806387c60483146200063f5780638da5cb5b146200071c578063ad358d991462000776578063e7e4fc8414620007e2578063f2fde38b14620008ec578063f3b7dead1462000932575b600080fd5b348015620000f157600080fd5b5062000128600480360381019080803573ffffffffffffffffffffffffffffffffffffffff169060200190929190505050620009b8565b604051808273ffffffffffffffffffffffffffffffffffffffff1673ffffffffffffffffffffffffffffffffffffffff16815260200191505060405180910390f35b3480156200017757600080fd5b506200021a600480360381019080803590602001908201803590602001908080601f0160208091040260200160405190810160405280939291908181526020018383808284378201915050505050509192919290803590602001908201803590602001908080601f016020809104026020016040519081016040528093929190818152602001838380828437820191505050505050919291929050505062000a63565b604051808273ffffffffffffffffffffffffffffffffffffffff1673ffffffffffffffffffffffffffffffffffffffff16815260200191505060405180910390f35b62000344600480360381019080803590602001908201803590602001908080601f0160208091040260200160405190810160405280939291908181526020018383808284378201915050505050509192919290803590602001908201803590602001908080601f0160208091040260200160405190810160405280939291908181526020018383808284378201915050505050509192919290803590602001908201803590602001908080601f016020809104026020016040519081016040528093929190818152602001838380828437820191505050505050919291929050505062000bd2565b604051808273ffffffffffffffffffffffffffffffffffffffff1673ffffffffffffffffffffffffffffffffffffffff16815260200191505060405180910390f35b3480156200039357600080fd5b50620003f0600480360381019080803590602001908201803590602001908080601f016020809104026020016040519081016040528093929190818152602001838380828437820191505050505050919291929050505062000d26565b604051808273ffffffffffffffffffffffffffffffffffffffff1673ffffffffffffffffffffffffffffffffffffffff16815260200191505060405180910390f35b3480156200043f57600080fd5b506200044a62000f2f565b005b3480156200045957600080fd5b5062000505600480360381019080803590602001908201803590602001908080601f0160208091040260200160405190810160405280939291908181526020018383808284378201915050505050509192919290803573ffffffffffffffffffffffffffffffffffffffff169060200190929190806060019060038060200260405190810160405280929190826003602002808284378201915050505050919291929050505062001032565b005b3480156200051457600080fd5b506200056b600480360381019080803573ffffffffffffffffffffffffffffffffffffffff169060200190929190803573ffffffffffffffffffffffffffffffffffffffff16906020019092919050505062001406565b005b3480156200057a57600080fd5b506200063d600480360381019080803573ffffffffffffffffffffffffffffffffffffffff169060200190929190803590602001908201803590602001908080601f0160208091040260200160405190810160405280939291908181526020018383808284378201915050505050509192919290803590602001908201803590602001908080601f01602080910402602001604051908101604052809392919081815260200183838082843782019150505050505091929192905050506200151b565b005b3480156200064c57600080fd5b50620006a9600480360381019080803590602001908201803590602001908080601f016020809104026020016040519081016040528093929190818152602001838380828437820191505050505050919291929050505062001642565b604051808373ffffffffffffffffffffffffffffffffffffffff1673ffffffffffffffffffffffffffffffffffffffff16815260200182600360200280838360005b8381101562000708578082015181840152602081019050620006eb565b505050509050019250505060405180910390f35b3480156200072957600080fd5b506200073462001767565b604051808273ffffffffffffffffffffffffffffffffffffffff1673ffffffffffffffffffffffffffffffffffffffff16815260200191505060405180910390f35b3480156200078357600080fd5b50620007e0600480360381019080803590602001908201803590602001908080601f01602080910402602001604051908101604052809392919081815260200183838082843782019150505050505091929192905050506200178c565b005b620008ea600480360381019080803573ffffffffffffffffffffffffffffffffffffffff169060200190929190803590602001908201803590602001908080601f0160208091040260200160405190810160405280939291908181526020018383808284378201915050505050509192919290803590602001908201803590602001908080601f0160208091040260200160405190810160405280939291908181526020018383808284378201915050505050509192919290803590602001908201803590602001908080601f016020809104026020016040519081016040528093929190818152602001838380828437820191505050505050919291929050505062001b2a565b005b348015620008f957600080fd5b5062000930600480360381019080803573ffffffffffffffffffffffffffffffffffffffff16906020019092919050505062001cc3565b005b3480156200093f57600080fd5b5062000976600480360381019080803573ffffffffffffffffffffffffffffffffffffffff16906020019092919050505062001d2d565b604051808273ffffffffffffffffffffffffffffffffffffffff1673ffffffffffffffffffffffffffffffffffffffff16815260200191505060405180910390f35b60008173ffffffffffffffffffffffffffffffffffffffff16635c60da1b6040518163ffffffff167c0100000000000000000000000000000000000000000000000000000000028152600401602060405180830381600087803b15801562000a1f57600080fd5b505af115801562000a34573d6000803e3d6000fd5b505050506040513d602081101562000a4b57600080fd5b81019080805190602001909291905050509050919050565b60008062000a718462000d26565b9050600073ffffffffffffffffffffffffffffffffffffffff168173ffffffffffffffffffffffffffffffffffffffff16141562000ab3576000915062000bcb565b8073ffffffffffffffffffffffffffffffffffffffff16636b683896846040518263ffffffff167c01000000000000000000000000000000000000000000000000000000000281526004018080602001828103825283818151815260200191508051906020019080838360005b8381101562000b3d57808201518184015260208101905062000b20565b50505050905090810190601f16801562000b6b5780820380516001836020036101000a031916815260200191505b5092505050602060405180830381600087803b15801562000b8b57600080fd5b505af115801562000ba0573d6000803e3d6000fd5b505050506040513d602081101562000bb757600080fd5b810190808051906020019092919050505091505b5092915050565b600080600062000be3868662000a63565b915034828562000bf262001ed3565b808373ffffffffffffffffffffffffffffffffffffffff1673ffffffffffffffffffffffffffffffffffffffff16815260200180602001828103825283818151815260200191508051906020019080838360005b8381101562000c6357808201518184015260208101905062000c46565b50505050905090810190601f16801562000c915780820380516001836020036101000a031916815260200191505b5093505050506040518091039082f08015801562000cb3573d6000803e3d6000fd5b50905090507efffc2da0b561cae30d9826d37709e9421c4725faebc226cbbb7ef5fc5e734981604051808273ffffffffffffffffffffffffffffffffffffffff1673ffffffffffffffffffffffffffffffffffffffff16815260200191505060405180910390a180925050509392505050565b6000806001836040518082805190602001908083835b60208310151562000d63578051825260208201915060208101905060208303925062000d3c565b6001836020036101000a03801982511681845116808217855250505050505090500191505090815260200160405180910390209050600073ffffffffffffffffffffffffffffffffffffffff168160000160009054906101000a900473ffffffffffffffffffffffffffffffffffffffff1673ffffffffffffffffffffffffffffffffffffffff16141562000dfc576000915062000f29565b8060000160009054906101000a900473ffffffffffffffffffffffffffffffffffffffff1673ffffffffffffffffffffffffffffffffffffffff16631df40eaa826001016040518263ffffffff167c010000000000000000000000000000000000000000000000000000000002815260040180826003801562000ec9576020028201916000905b82829054906101000a900467ffffffffffffffff1667ffffffffffffffff168152602001906008019060208260070104928301926001038202915080841162000e835790505b5050915050602060405180830381600087803b15801562000ee957600080fd5b505af115801562000efe573d6000803e3d6000fd5b505050506040513d602081101562000f1557600080fd5b810190808051906020019092919050505091505b50919050565b6000809054906101000a900473ffffffffffffffffffffffffffffffffffffffff1673ffffffffffffffffffffffffffffffffffffffff163373ffffffffffffffffffffffffffffffffffffffff1614151562000f8b57600080fd5b6000809054906101000a900473ffffffffffffffffffffffffffffffffffffffff1673ffffffffffffffffffffffffffffffffffffffff167ff8df31144d9c2f0f6b59d69b8b98abd5459d07f2742c4df920b25aae33c6482060405160405180910390a260008060006101000a81548173ffffffffffffffffffffffffffffffffffffffff021916908373ffffffffffffffffffffffffffffffffffffffff160217905550565b6000809054906101000a900473ffffffffffffffffffffffffffffffffffffffff1673ffffffffffffffffffffffffffffffffffffffff163373ffffffffffffffffffffffffffffffffffffffff161415156200108e57600080fd5b8173ffffffffffffffffffffffffffffffffffffffff166335ce4016826040518263ffffffff167c01000000000000000000000000000000000000000000000000000000000281526004018082600360200280838360005b8381101562001103578082015181840152602081019050620010e6565b50505050905001915050602060405180830381600087803b1580156200112857600080fd5b505af11580156200113d573d6000803e3d6000fd5b505050506040513d60208110156200115457600080fd5b8101908080519060200190929190505050151562001200576040517f08c379a000000000000000000000000000000000000000000000000000000000815260040180806020018281038252603d8152602001807f546865207265717565737465642076657273696f6e206d75737420626520726581526020017f676973746572656420696e2074686520676976656e207061636b61676500000081525060400191505060405180910390fd5b60408051908101604052808373ffffffffffffffffffffffffffffffffffffffff168152602001828152506001846040518082805190602001908083835b6020831015156200126557805182526020820191506020810190506020830392506200123e565b6001836020036101000a038019825116818451168082178552505050505050905001915050908152602001604051809103902060008201518160000160006101000a81548173ffffffffffffffffffffffffffffffffffffffff021916908373ffffffffffffffffffffffffffffffffffffffff160217905550602082015181600101906003620012f892919062001ee4565b509050507f4ca1964bc3cd347906bc558f77fdd636486951cf12238150178be72a4fbb6fab83838360405180806020018473ffffffffffffffffffffffffffffffffffffffff1673ffffffffffffffffffffffffffffffffffffffff16815260200183600360200280838360005b838110156200138357808201518184015260208101905062001366565b50505050905001828103825285818151815260200191508051906020019080838360005b83811015620013c4578082015181840152602081019050620013a7565b50505050905090810190601f168015620013f25780820380516001836020036101000a031916815260200191505b5094505050505060405180910390a1505050565b6000809054906101000a900473ffffffffffffffffffffffffffffffffffffffff1673ffffffffffffffffffffffffffffffffffffffff163373ffffffffffffffffffffffffffffffffffffffff161415156200146257600080fd5b8173ffffffffffffffffffffffffffffffffffffffff16638f283970826040518263ffffffff167c0100000000000000000000000000000000000000000000000000000000028152600401808273ffffffffffffffffffffffffffffffffffffffff1673ffffffffffffffffffffffffffffffffffffffff168152602001915050600060405180830381600087803b158015620014fe57600080fd5b505af115801562001513573d6000803e3d6000fd5b505050505050565b60008060009054906101000a900473ffffffffffffffffffffffffffffffffffffffff1673ffffffffffffffffffffffffffffffffffffffff163373ffffffffffffffffffffffffffffffffffffffff161415156200157957600080fd5b62001585838362000a63565b90508373ffffffffffffffffffffffffffffffffffffffff16633659cfe6826040518263ffffffff167c0100000000000000000000000000000000000000000000000000000000028152600401808273ffffffffffffffffffffffffffffffffffffffff1673ffffffffffffffffffffffffffffffffffffffff168152602001915050600060405180830381600087803b1580156200162357600080fd5b505af115801562001638573d6000803e3d6000fd5b5050505050505050565b60006200164e62001f99565b60006001846040518082805190602001908083835b6020831015156200168a578051825260208201915060208101905060208303925062001663565b6001836020036101000a038019825116818451168082178552505050505050905001915050908152602001604051809103902090508060000160009054906101000a900473ffffffffffffffffffffffffffffffffffffffff16816001018060038060200260405190810160405280929190826003801562001756576020028201916000905b82829054906101000a900467ffffffffffffffff1667ffffffffffffffff1681526020019060080190602082600701049283019260010382029150808411620017105790505b505050505090509250925050915091565b6000809054906101000a900473ffffffffffffffffffffffffffffffffffffffff1681565b6000809054906101000a900473ffffffffffffffffffffffffffffffffffffffff1673ffffffffffffffffffffffffffffffffffffffff163373ffffffffffffffffffffffffffffffffffffffff16141515620017e857600080fd5b600073ffffffffffffffffffffffffffffffffffffffff166001826040518082805190602001908083835b6020831015156200183a578051825260208201915060208101905060208303925062001813565b6001836020036101000a038019825116818451168082178552505050505050905001915050908152602001604051809103902060000160009054906101000a900473ffffffffffffffffffffffffffffffffffffffff1673ffffffffffffffffffffffffffffffffffffffff16141515156200191e576040517f08c379a000000000000000000000000000000000000000000000000000000000815260040180806020018281038252601a8152602001807f5061636b61676520746f20756e736574206e6f7420666f756e6400000000000081525060200191505060405180910390fd5b6001816040518082805190602001908083835b60208310151562001958578051825260208201915060208101905060208303925062001931565b6001836020036101000a0380198251168184511680821785525050505050509050019150509081526020016040518091039020600080820160006101000a81549073ffffffffffffffffffffffffffffffffffffffff0219169055600182016000620019c5919062001fbc565b50507f4ca1964bc3cd347906bc558f77fdd636486951cf12238150178be72a4fbb6fab816000606060405190810160405280600067ffffffffffffffff1667ffffffffffffffff168152602001600067ffffffffffffffff1667ffffffffffffffff168152602001600067ffffffffffffffff1667ffffffffffffffff1681525060405180806020018473ffffffffffffffffffffffffffffffffffffffff1673ffffffffffffffffffffffffffffffffffffffff16815260200183600360200280838360005b8381101562001aa957808201518184015260208101905062001a8c565b50505050905001828103825285818151815260200191508051906020019080838360005b8381101562001aea57808201518184015260208101905062001acd565b50505050905090810190601f16801562001b185780820380516001836020036101000a031916815260200191505b5094505050505060405180910390a150565b60008060009054906101000a900473ffffffffffffffffffffffffffffffffffffffff1673ffffffffffffffffffffffffffffffffffffffff163373ffffffffffffffffffffffffffffffffffffffff1614151562001b8857600080fd5b62001b94848462000a63565b90508473ffffffffffffffffffffffffffffffffffffffff16634f1ef2863483856040518463ffffffff167c0100000000000000000000000000000000000000000000000000000000028152600401808373ffffffffffffffffffffffffffffffffffffffff1673ffffffffffffffffffffffffffffffffffffffff16815260200180602001828103825283818151815260200191508051906020019080838360005b8381101562001c5457808201518184015260208101905062001c37565b50505050905090810190601f16801562001c825780820380516001836020036101000a031916815260200191505b5093505050506000604051808303818588803b15801562001ca257600080fd5b505af115801562001cb7573d6000803e3d6000fd5b50505050505050505050565b6000809054906101000a900473ffffffffffffffffffffffffffffffffffffffff1673ffffffffffffffffffffffffffffffffffffffff163373ffffffffffffffffffffffffffffffffffffffff1614151562001d1f57600080fd5b62001d2a8162001dd8565b50565b60008173ffffffffffffffffffffffffffffffffffffffff1663f851a4406040518163ffffffff167c0100000000000000000000000000000000000000000000000000000000028152600401602060405180830381600087803b15801562001d9457600080fd5b505af115801562001da9573d6000803e3d6000fd5b505050506040513d602081101562001dc057600080fd5b81019080805190602001909291905050509050919050565b600073ffffffffffffffffffffffffffffffffffffffff168173ffffffffffffffffffffffffffffffffffffffff161415151562001e1557600080fd5b8073ffffffffffffffffffffffffffffffffffffffff166000809054906101000a900473ffffffffffffffffffffffffffffffffffffffff1673ffffffffffffffffffffffffffffffffffffffff167f8be0079c531659141344cd1fd0a4f28419497f9722a3daafe3b4186f6b6457e060405160405180910390a3806000806101000a81548173ffffffffffffffffffffffffffffffffffffffff021916908373ffffffffffffffffffffffffffffffffffffffff16021790555050565b604051610b9f8062001ffe83390190565b826003800160049004810192821562001f865791602002820160005b8382111562001f4e57835183826101000a81548167ffffffffffffffff021916908367ffffffffffffffff160217905550926020019260080160208160070104928301926001030262001f00565b801562001f845782816101000a81549067ffffffffffffffff021916905560080160208160070104928301926001030262001f4e565b505b50905062001f95919062001fc3565b5090565b606060405190810160405280600390602082028038833980820191505090505090565b5060009055565b62001ffa91905b8082111562001ff657600081816101000a81549067ffffffffffffffff02191690555060010162001fca565b5090565b9056006080604052604051610b9f380380610b9f8339810180604052810190808051906020019092919080518201929190505050818160405180807f6f72672e7a657070656c696e6f732e70726f78792e696d706c656d656e74617481526020017f696f6e000000000000000000000000000000000000000000000000000000000081525060230190506040518091039020600019167f7050c9e0f4ca769c69bd3a8ef740bc37934f8e2c036e5a723fd8ee048ed3f8c3600102600019161415156100c357fe5b6100db82610202640100000000026401000000009004565b600081511115610176578173ffffffffffffffffffffffffffffffffffffffff168160405180828051906020019080838360005b8381101561012a57808201518184015260208101905061010f565b50505050905090810190601f1680156101575780820380516001836020036101000a031916815260200191505b50915050600060405180830381855af4915050151561017557600080fd5b5b505060405180807f6f72672e7a657070656c696e6f732e70726f78792e61646d696e000000000000815250601a0190506040518091039020600019167f10d6a54a4754c8869d6886b5f5d7fbfa5b4522237ea5c60d11bc4e7a1ff9390b600102600019161415156101e357fe5b6101fb336102e7640100000000026401000000009004565b5050610329565b60006102208261031664010000000002610828176401000000009004565b15156102ba576040517f08c379a000000000000000000000000000000000000000000000000000000000815260040180806020018281038252603b8152602001807f43616e6e6f742073657420612070726f787920696d706c656d656e746174696f81526020017f6e20746f2061206e6f6e2d636f6e74726163742061646472657373000000000081525060400191505060405180910390fd5b7f7050c9e0f4ca769c69bd3a8ef740bc37934f8e2c036e5a723fd8ee048ed3f8c360010290508181555050565b60007f10d6a54a4754c8869d6886b5f5d7fbfa5b4522237ea5c60d11bc4e7a1ff9390b60010290508181555050565b600080823b905060008111915050919050565b610867806103386000396000f30060806040526004361061006d576000357c0100000000000000000000000000000000000000000000000000000000900463ffffffff1680633659cfe6146100775780634f1ef286146100ba5780635c60da1b146101085780638f2839701461015f578063f851a440146101a2575b6100756101f9565b005b34801561008357600080fd5b506100b8600480360381019080803573ffffffffffffffffffffffffffffffffffffffff169060200190929190505050610213565b005b610106600480360381019080803573ffffffffffffffffffffffffffffffffffffffff169060200190929190803590602001908201803590602001919091929391929390505050610268565b005b34801561011457600080fd5b5061011d610305565b604051808273ffffffffffffffffffffffffffffffffffffffff1673ffffffffffffffffffffffffffffffffffffffff16815260200191505060405180910390f35b34801561016b57600080fd5b506101a0600480360381019080803573ffffffffffffffffffffffffffffffffffffffff16906020019092919050505061035d565b005b3480156101ae57600080fd5b506101b761051b565b604051808273ffffffffffffffffffffffffffffffffffffffff1673ffffffffffffffffffffffffffffffffffffffff16815260200191505060405180910390f35b610201610573565b61021161020c61064e565b61067f565b565b61021b6106a5565b73ffffffffffffffffffffffffffffffffffffffff163373ffffffffffffffffffffffffffffffffffffffff16141561025c57610257816106d6565b610265565b6102646101f9565b5b50565b6102706106a5565b73ffffffffffffffffffffffffffffffffffffffff163373ffffffffffffffffffffffffffffffffffffffff1614156102f7576102ac836106d6565b8273ffffffffffffffffffffffffffffffffffffffff16828260405180838380828437820191505092505050600060405180830381855af491505015156102f257600080fd5b610300565b6102ff6101f9565b5b505050565b600061030f6106a5565b73ffffffffffffffffffffffffffffffffffffffff163373ffffffffffffffffffffffffffffffffffffffff1614156103515761034a61064e565b905061035a565b6103596101f9565b5b90565b6103656106a5565b73ffffffffffffffffffffffffffffffffffffffff163373ffffffffffffffffffffffffffffffffffffffff16141561050f57600073ffffffffffffffffffffffffffffffffffffffff168173ffffffffffffffffffffffffffffffffffffffff1614151515610463576040517f08c379a00000000000000000000000000000000000000000000000000000000081526004018080602001828103825260368152602001807f43616e6e6f74206368616e6765207468652061646d696e206f6620612070726f81526020017f787920746f20746865207a65726f20616464726573730000000000000000000081525060400191505060405180910390fd5b7f7e644d79422f17c01e4894b5f4f588d331ebfa28653d42ae832dc59e38c9798f61048c6106a5565b82604051808373ffffffffffffffffffffffffffffffffffffffff1673ffffffffffffffffffffffffffffffffffffffff1681526020018273ffffffffffffffffffffffffffffffffffffffff1673ffffffffffffffffffffffffffffffffffffffff1681526020019250505060405180910390a161050a81610725565b610518565b6105176101f9565b5b50565b60006105256106a5565b73ffffffffffffffffffffffffffffffffffffffff163373ffffffffffffffffffffffffffffffffffffffff161415610567576105606106a5565b9050610570565b61056f6101f9565b5b90565b61057b6106a5565b73ffffffffffffffffffffffffffffffffffffffff163373ffffffffffffffffffffffffffffffffffffffff1614151515610644576040517f08c379a00000000000000000000000000000000000000000000000000000000081526004018080602001828103825260328152602001807f43616e6e6f742063616c6c2066616c6c6261636b2066756e6374696f6e20667281526020017f6f6d207468652070726f78792061646d696e000000000000000000000000000081525060400191505060405180910390fd5b61064c610754565b565b6000807f7050c9e0f4ca769c69bd3a8ef740bc37934f8e2c036e5a723fd8ee048ed3f8c36001029050805491505090565b3660008037600080366000845af43d6000803e80600081146106a0573d6000f35b3d6000fd5b6000807f10d6a54a4754c8869d6886b5f5d7fbfa5b4522237ea5c60d11bc4e7a1ff9390b6001029050805491505090565b6106df81610756565b8073ffffffffffffffffffffffffffffffffffffffff167fbc7cd75a20ee27fd9adebab32041f755214dbc6bffa90cc0225b39da2e5c2d3b60405160405180910390a250565b60007f10d6a54a4754c8869d6886b5f5d7fbfa5b4522237ea5c60d11bc4e7a1ff9390b60010290508181555050565b565b600061076182610828565b15156107fb576040517f08c379a000000000000000000000000000000000000000000000000000000000815260040180806020018281038252603b8152602001807f43616e6e6f742073657420612070726f787920696d706c656d656e746174696f81526020017f6e20746f2061206e6f6e2d636f6e74726163742061646472657373000000000081525060400191505060405180910390fd5b7f7050c9e0f4ca769c69bd3a8ef740bc37934f8e2c036e5a723fd8ee048ed3f8c360010290508181555050565b600080823b9050600081119150509190505600a165627a7a72305820f82e8b87e97893a49b8bd4d7b939f667ecf5bb0557066c581f98354d9f5ade520029a165627a7a72305820ea6f03250c356b0c802f7e1c51019976a7f237b1230bdc2047adc399dc9e63fc0029",
  "source": "pragma solidity ^0.4.24;\n\nimport \"./ImplementationProvider.sol\";\nimport \"./Package.sol\";\nimport \"../upgradeability/AdminUpgradeabilityProxy.sol\";\nimport \"openzeppelin-solidity/contracts/ownership/Ownable.sol\";\n\n/**\n * @title App\n * @dev Contract for upgradeable applications.\n * It handles the creation and upgrading of proxies.\n */\ncontract App is Ownable {\n  /**\n   * @dev Emitted when a new proxy is created.\n   * @param proxy Address of the created proxy.\n   */\n  event ProxyCreated(address proxy);\n\n  /**\n   * @dev Emitted when a package dependency is changed in the application.\n   * @param providerName Name of the package that changed.\n   * @param package Address of the package associated to the name.\n   * @param version Version of the package in use.\n   */\n  event PackageChanged(string providerName, address package, uint64[3] version);\n\n  /**\n   * @dev Tracks a package in a particular version, used for retrieving implementations\n   */\n  struct ProviderInfo {\n    Package package;\n    uint64[3] version;\n  }\n\n  /**\n   * @dev Maps from dependency name to a tuple of package and version\n   */\n  mapping(string => ProviderInfo) internal providers;\n\n  /**\n   * @dev Constructor function.\n   */\n  constructor() public { }\n\n  /**\n   * @dev Returns the provider for a given package name, or zero if not set.\n   * @param packageName Name of the package to be retrieved.\n   * @return The provider.\n   */\n  function getProvider(string packageName) public view returns (ImplementationProvider provider) {\n    ProviderInfo storage info = providers[packageName];\n    if (address(info.package) == address(0)) return ImplementationProvider(0);\n    return ImplementationProvider(info.package.getContract(info.version));\n  }\n\n  /**\n   * @dev Returns information on a package given its name.\n   * @param packageName Name of the package to be queried.\n   * @return A tuple with the package address and pinned version given a package name, or zero if not set\n   */\n  function getPackage(string packageName) public view returns (Package, uint64[3]) {\n    ProviderInfo storage info = providers[packageName];\n    return (info.package, info.version);\n  }\n\n  /**\n   * @dev Sets a package in a specific version as a dependency for this application.\n   * Requires the version to be present in the package.\n   * @param packageName Name of the package to set or overwrite.\n   * @param package Address of the package to register.\n   * @param version Version of the package to use in this application.\n   */\n  function setPackage(string packageName, Package package, uint64[3] version) public onlyOwner {\n    require(package.hasVersion(version), \"The requested version must be registered in the given package\");\n    providers[packageName] = ProviderInfo(package, version);\n    emit PackageChanged(packageName, package, version);\n  }\n\n  /**\n   * @dev Unsets a package given its name.\n   * Reverts if the package is not set in the application.\n   * @param packageName Name of the package to remove.\n   */\n  function unsetPackage(string packageName) public onlyOwner {\n    require(address(providers[packageName].package) != address(0), \"Package to unset not found\");\n    delete providers[packageName];\n    emit PackageChanged(packageName, address(0), [uint64(0), uint64(0), uint64(0)]);\n  }\n\n  /**\n   * @dev Returns the implementation address for a given contract name, provided by the `ImplementationProvider`.\n   * @param packageName Name of the package where the contract is contained.\n   * @param contractName Name of the contract.\n   * @return Address where the contract is implemented.\n   */\n  function getImplementation(string packageName, string contractName) public view returns (address) {\n    ImplementationProvider provider = getProvider(packageName);\n    if (address(provider) == address(0)) return address(0);\n    return provider.getImplementation(contractName);\n  }\n\n  /**\n   * @dev Returns the current implementation of a proxy.\n   * This is needed because only the proxy admin can query it.\n   * @return The address of the current implementation of the proxy.\n   */\n  function getProxyImplementation(AdminUpgradeabilityProxy proxy) public view returns (address) {\n    return proxy.implementation();\n  }\n\n  /**\n   * @dev Returns the admin of a proxy. Only the admin can query it.\n   * @return The address of the current admin of the proxy.\n   */\n  function getProxyAdmin(AdminUpgradeabilityProxy proxy) public view returns (address) {\n    return proxy.admin();\n  }\n\n  /**\n   * @dev Changes the admin of a proxy.\n   * @param proxy Proxy to change admin.\n   * @param newAdmin Address to transfer proxy administration to.\n   */\n  function changeProxyAdmin(AdminUpgradeabilityProxy proxy, address newAdmin) public onlyOwner {\n    proxy.changeAdmin(newAdmin);\n  }\n\n  /**\n   * @dev Creates a new proxy for the given contract and forwards a function call to it.\n   * This is useful to initialize the proxied contract.\n   * @param packageName Name of the package where the contract is contained.\n   * @param contractName Name of the contract.\n   * @param data Data to send as msg.data to the corresponding implementation to initialize the proxied contract.\n   * It should include the signature and the parameters of the function to be called, as described in\n   * https://solidity.readthedocs.io/en/v0.4.24/abi-spec.html#function-selector-and-argument-encoding.\n   * This parameter is optional, if no data is given the initialization call to proxied contract will be skipped.\n   * @return Address of the new proxy.\n   */\n   function create(string packageName, string contractName, bytes data) payable public returns (AdminUpgradeabilityProxy) {\n    address implementation = getImplementation(packageName, contractName);\n     AdminUpgradeabilityProxy proxy = (new AdminUpgradeabilityProxy).value(msg.value)(implementation, data);\n     emit ProxyCreated(proxy);\n     return proxy;\n  }\n\n  /**\n   * @dev Upgrades a proxy to the newest implementation of a contract.\n   * @param proxy Proxy to be upgraded.\n   * @param packageName Name of the package where the contract is contained.\n   * @param contractName Name of the contract.\n   */\n  function upgrade(AdminUpgradeabilityProxy proxy, string packageName, string contractName) public onlyOwner {\n    address implementation = getImplementation(packageName, contractName);\n    proxy.upgradeTo(implementation);\n  }\n\n  /**\n   * @dev Upgrades a proxy to the newest implementation of a contract and forwards a function call to it.\n   * This is useful to initialize the proxied contract.\n   * @param proxy Proxy to be upgraded.\n   * @param packageName Name of the package where the contract is contained.\n   * @param contractName Name of the contract.\n   * @param data Data to send as msg.data in the low level call.\n   * It should include the signature and the parameters of the function to be called, as described in\n   * https://solidity.readthedocs.io/en/v0.4.24/abi-spec.html#function-selector-and-argument-encoding.\n   */\n  function upgradeAndCall(AdminUpgradeabilityProxy proxy, string packageName, string contractName, bytes data) payable public onlyOwner {\n    address implementation = getImplementation(packageName, contractName);\n    proxy.upgradeToAndCall.value(msg.value)(implementation, data);\n  }\n}\n",
  "sourcePath": "/Users/facu/Documents/Laburo/Zeppelin/ZeppelinOS/zos/packages/lib/contracts/application/App.sol",
  "compiler": {
    "name": "solc",
    "version": "0.4.24+commit.e67f0147.Emscripten.clang"
  },
  "schemaVersion": "2.0.1",
  "updatedAt": "2019-01-10T18:46:07.206Z"
}