{
  "contractName": "ClashingImplementation",
  "abi": [
    {
      "constant": true,
      "inputs": [],
      "name": "admin",
      "outputs": [
        {
          "name": "",
          "type": "address"
        }
      ],
      "payable": false,
      "stateMutability": "pure",
      "type": "function"
    },
    {
      "constant": true,
      "inputs": [],
      "name": "delegatedFunction",
      "outputs": [
        {
          "name": "",
          "type": "bool"
        }
      ],
      "payable": false,
      "stateMutability": "pure",
      "type": "function"
    }
  ],
  "bytecode": "0x608060405234801561001057600080fd5b5061010f806100206000396000f3006080604052600436106049576000357c0100000000000000000000000000000000000000000000000000000000900463ffffffff168063abf8e0e714604e578063f851a44014607a575b600080fd5b348015605957600080fd5b50606060ce565b604051808215151515815260200191505060405180910390f35b348015608557600080fd5b50608c60d7565b604051808273ffffffffffffffffffffffffffffffffffffffff1673ffffffffffffffffffffffffffffffffffffffff16815260200191505060405180910390f35b60006001905090565b600063111111429050905600a165627a7a72305820c05de126ced522c0b007ab5105042f05668e3abc5185b4423f0aadc4f95e9c660029",
  "source": "pragma solidity ^0.4.24;\n\n\n/**\n * @dev Implementation contract with an admin() function made to clash with\n * @dev AdminUpgradeabilityProxy's to test correct functioning of the\n * @dev Transparent Proxy feature.\n */\ncontract ClashingImplementation {\n\n  function admin() external pure returns (address) {\n    return 0x0000000000000000000000000000000011111142;\n  }\n\n  function delegatedFunction() external pure returns (bool) {\n    return true;\n  }\n}\n",
  "sourcePath": "/Users/facu/Documents/Laburo/Zeppelin/ZeppelinOS/zos/packages/lib/contracts/mocks/ClashingImplementation.sol",
  "compiler": {
    "name": "solc",
    "version": "0.4.24+commit.e67f0147.Emscripten.clang"
  },
  "schemaVersion": "2.0.1",
  "updatedAt": "2019-01-10T18:46:07.214Z"
}