{
  "contractName": "GetFunctionOtherChild",
  "abi": [
    {
      "constant": false,
      "inputs": [
        {
          "name": "_x",
          "type": "uint256"
        }
      ],
      "name": "another",
      "outputs": [],
      "payable": false,
      "stateMutability": "nonpayable",
      "type": "function"
    },
    {
      "constant": false,
      "inputs": [
        {
          "name": "_x",
          "type": "bytes32"
        }
      ],
      "name": "initialize",
      "outputs": [],
      "payable": false,
      "stateMutability": "nonpayable",
      "type": "function"
    },
    {
      "constant": false,
      "inputs": [
        {
          "name": "_x",
          "type": "uint256"
        },
        {
          "name": "_y",
          "type": "uint256"
        }
      ],
      "name": "initialize",
      "outputs": [],
      "payable": false,
      "stateMutability": "nonpayable",
      "type": "function"
    },
    {
      "constant": false,
      "inputs": [
        {
          "name": "_x",
          "type": "string"
        }
      ],
      "name": "initialize",
      "outputs": [],
      "payable": false,
      "stateMutability": "nonpayable",
      "type": "function"
    },
    {
      "constant": false,
      "inputs": [
        {
          "name": "_x",
          "type": "uint256"
        }
      ],
      "name": "initialize",
      "outputs": [],
      "payable": false,
      "stateMutability": "nonpayable",
      "type": "function"
    }
  ],
  "bytecode": "0x608060405234801561001057600080fd5b50610203806100206000396000f30060806040526004361061006d576000357c0100000000000000000000000000000000000000000000000000000000900463ffffffff168063499af201146100725780639498bd711461009f578063e4a30116146100d0578063f62d188814610107578063fe4b84df14610170575b600080fd5b34801561007e57600080fd5b5061009d6004803603810190808035906020019092919050505061019d565b005b3480156100ab57600080fd5b506100ce60048036038101908080356000191690602001909291905050506101a7565b005b3480156100dc57600080fd5b5061010560048036038101908080359060200190929190803590602001909291905050506101b5565b005b34801561011357600080fd5b5061016e600480360381019080803590602001908201803590602001908080601f01602080910402602001604051908101604052809392919081815260200183838082843782019150505050505091929192905050506101c2565b005b34801561017c57600080fd5b5061019b600480360381019080803590602001909291905050506101cd565b005b8060008190555050565b806001900460008190555050565b8082016000819055505050565b805160008190555050565b80600081905550505600a165627a7a723058206d172ebe1ec08dbd0ebda7a3c6318488d240d21b6ea84420cf2afbc42e2d657b0029",
  "source": "pragma solidity ^0.4.24;\n\ncontract GetFunctionBase {\n  uint256 x;\n  \n  function initialize(uint256 _x) public {\n    x = _x;\n  }\n\n  function initialize(string _x) public {\n    x = bytes(_x).length;\n  }\n\n  function initialize(uint256 _x, uint256 _y) public {\n    x = _x + _y;\n  }\n\n  function another(uint256 _x) public {\n    x = _x;\n  }\n}\n\ncontract GetFunctionChild is GetFunctionBase {\n  function initialize(bytes _x) public {\n    x = _x.length;\n  }\n}\n\ncontract GetFunctionOtherChild is GetFunctionBase {\n  function initialize(bytes32 _x) public {\n    x = uint256(_x);\n  }\n}\n\ncontract GetFunctionGrandchild is GetFunctionChild, GetFunctionOtherChild { }\n\ncontract GetFunctionOtherGrandchild is GetFunctionOtherChild, GetFunctionChild { }",
  "sourcePath": "/Users/facu/Documents/Laburo/Zeppelin/ZeppelinOS/zos/packages/lib/contracts/mocks/GetFunctionMocks.sol",
  "compiler": {
    "name": "solc",
    "version": "0.4.24+commit.e67f0147.Emscripten.clang"
  },
  "schemaVersion": "2.0.1",
  "updatedAt": "2019-01-10T18:46:07.219Z"
}