{
  "contractName": "ImplementationDirectory",
  "abi": [
    {
      "constant": true,
      "inputs": [],
      "name": "frozen",
      "outputs": [
        {
          "name": "",
          "type": "bool"
        }
      ],
      "payable": false,
      "stateMutability": "view",
      "type": "function"
    },
    {
      "constant": false,
      "inputs": [],
      "name": "renounceOwnership",
      "outputs": [],
      "payable": false,
      "stateMutability": "nonpayable",
      "type": "function"
    },
    {
      "constant": true,
      "inputs": [],
      "name": "owner",
      "outputs": [
        {
          "name": "",
          "type": "address"
        }
      ],
      "payable": false,
      "stateMutability": "view",
      "type": "function"
    },
    {
      "constant": false,
      "inputs": [
        {
          "name": "_newOwner",
          "type": "address"
        }
      ],
      "name": "transferOwnership",
      "outputs": [],
      "payable": false,
      "stateMutability": "nonpayable",
      "type": "function"
    },
    {
      "anonymous": false,
      "inputs": [
        {
          "indexed": false,
          "name": "contractName",
          "type": "string"
        },
        {
          "indexed": true,
          "name": "implementation",
          "type": "address"
        }
      ],
      "name": "ImplementationChanged",
      "type": "event"
    },
    {
      "anonymous": false,
      "inputs": [],
      "name": "Frozen",
      "type": "event"
    },
    {
      "anonymous": false,
      "inputs": [
        {
          "indexed": true,
          "name": "previousOwner",
          "type": "address"
        }
      ],
      "name": "OwnershipRenounced",
      "type": "event"
    },
    {
      "anonymous": false,
      "inputs": [
        {
          "indexed": true,
          "name": "previousOwner",
          "type": "address"
        },
        {
          "indexed": true,
          "name": "newOwner",
          "type": "address"
        }
      ],
      "name": "OwnershipTransferred",
      "type": "event"
    },
    {
      "constant": false,
      "inputs": [],
      "name": "freeze",
      "outputs": [],
      "payable": false,
      "stateMutability": "nonpayable",
      "type": "function"
    },
    {
      "constant": true,
      "inputs": [
        {
          "name": "contractName",
          "type": "string"
        }
      ],
      "name": "getImplementation",
      "outputs": [
        {
          "name": "",
          "type": "address"
        }
      ],
      "payable": false,
      "stateMutability": "view",
      "type": "function"
    },
    {
      "constant": false,
      "inputs": [
        {
          "name": "contractName",
          "type": "string"
        },
        {
          "name": "implementation",
          "type": "address"
        }
      ],
      "name": "setImplementation",
      "outputs": [],
      "payable": false,
      "stateMutability": "nonpayable",
      "type": "function"
    },
    {
      "constant": false,
      "inputs": [
        {
          "name": "contractName",
          "type": "string"
        }
      ],
      "name": "unsetImplementation",
      "outputs": [],
      "payable": false,
      "stateMutability": "nonpayable",
      "type": "function"
    }
  ],
  "bytecode": "0x6080604052336000806101000a81548173ffffffffffffffffffffffffffffffffffffffff021916908373ffffffffffffffffffffffffffffffffffffffff160217905550610d7b806100536000396000f30060806040526004361061008e576000357c0100000000000000000000000000000000000000000000000000000000900463ffffffff168063054f7d9c1461009357806306419fe5146100c257806330b7be291461014b57806362a5af3b146101b45780636b683896146101cb578063715018a6146102745780638da5cb5b1461028b578063f2fde38b146102e2575b600080fd5b34801561009f57600080fd5b506100a8610325565b604051808215151515815260200191505060405180910390f35b3480156100ce57600080fd5b50610149600480360381019080803590602001908201803590602001908080601f0160208091040260200160405190810160405280939291908181526020018383808284378201915050505050509192919290803573ffffffffffffffffffffffffffffffffffffffff169060200190929190505050610338565b005b34801561015757600080fd5b506101b2600480360381019080803590602001908201803590602001908080601f0160208091040260200160405190810160405280939291908181526020018383808284378201915050505050509192919290505050610668565b005b3480156101c057600080fd5b506101c96108d0565b005b3480156101d757600080fd5b50610232600480360381019080803590602001908201803590602001908080601f0160208091040260200160405190810160405280939291908181526020018383808284378201915050505050509192919290505050610a1f565b604051808273ffffffffffffffffffffffffffffffffffffffff1673ffffffffffffffffffffffffffffffffffffffff16815260200191505060405180910390f35b34801561028057600080fd5b50610289610ab4565b005b34801561029757600080fd5b506102a0610bb6565b604051808273ffffffffffffffffffffffffffffffffffffffff1673ffffffffffffffffffffffffffffffffffffffff16815260200191505060405180910390f35b3480156102ee57600080fd5b50610323600480360381019080803573ffffffffffffffffffffffffffffffffffffffff169060200190929190505050610bdb565b005b600260009054906101000a900460ff1681565b6000809054906101000a900473ffffffffffffffffffffffffffffffffffffffff1673ffffffffffffffffffffffffffffffffffffffff163373ffffffffffffffffffffffffffffffffffffffff1614151561039357600080fd5b600260009054906101000a900460ff1615151561043e576040517f08c379a000000000000000000000000000000000000000000000000000000000815260040180806020018281038252603b8152602001807f43616e6e6f7420706572666f726d20616374696f6e20666f7220612066726f7a81526020017f656e20696d706c656d656e746174696f6e206469726563746f7279000000000081525060400191505060405180910390fd5b61044781610c42565b1515610507576040517f08c379a00000000000000000000000000000000000000000000000000000000081526004018080602001828103825260428152602001807f43616e6e6f742073657420696d706c656d656e746174696f6e20696e2064697281526020017f6563746f727920776974682061206e6f6e2d636f6e747261637420616464726581526020017f737300000000000000000000000000000000000000000000000000000000000081525060600191505060405180910390fd5b806001836040518082805190602001908083835b602083101515610540578051825260208201915060208101905060208303925061051b565b6001836020036101000a038019825116818451168082178552505050505050905001915050908152602001604051809103902060006101000a81548173ffffffffffffffffffffffffffffffffffffffff021916908373ffffffffffffffffffffffffffffffffffffffff1602179055508073ffffffffffffffffffffffffffffffffffffffff167fd46d20dadc2a85a470fddb00aee90ec2cc1f302e7e2dbf61ffaef72527f3c659836040518080602001828103825283818151815260200191508051906020019080838360005b8381101561062a57808201518184015260208101905061060f565b50505050905090810190601f1680156106575780820380516001836020036101000a031916815260200191505b509250505060405180910390a25050565b6000809054906101000a900473ffffffffffffffffffffffffffffffffffffffff1673ffffffffffffffffffffffffffffffffffffffff163373ffffffffffffffffffffffffffffffffffffffff161415156106c357600080fd5b600260009054906101000a900460ff1615151561076e576040517f08c379a000000000000000000000000000000000000000000000000000000000815260040180806020018281038252603b8152602001807f43616e6e6f7420706572666f726d20616374696f6e20666f7220612066726f7a81526020017f656e20696d706c656d656e746174696f6e206469726563746f7279000000000081525060400191505060405180910390fd5b60006001826040518082805190602001908083835b6020831015156107a85780518252602082019150602081019050602083039250610783565b6001836020036101000a038019825116818451168082178552505050505050905001915050908152602001604051809103902060006101000a81548173ffffffffffffffffffffffffffffffffffffffff021916908373ffffffffffffffffffffffffffffffffffffffff160217905550600073ffffffffffffffffffffffffffffffffffffffff167fd46d20dadc2a85a470fddb00aee90ec2cc1f302e7e2dbf61ffaef72527f3c659826040518080602001828103825283818151815260200191508051906020019080838360005b83811015610893578082015181840152602081019050610878565b50505050905090810190601f1680156108c05780820380516001836020036101000a031916815260200191505b509250505060405180910390a250565b6000809054906101000a900473ffffffffffffffffffffffffffffffffffffffff1673ffffffffffffffffffffffffffffffffffffffff163373ffffffffffffffffffffffffffffffffffffffff1614151561092b57600080fd5b600260009054906101000a900460ff161515156109d6576040517f08c379a000000000000000000000000000000000000000000000000000000000815260040180806020018281038252603b8152602001807f43616e6e6f7420706572666f726d20616374696f6e20666f7220612066726f7a81526020017f656e20696d706c656d656e746174696f6e206469726563746f7279000000000081525060400191505060405180910390fd5b6001600260006101000a81548160ff0219169083151502179055507fa8cab3d1893ed53071b052fafa843143492f25d1d6b0170d460789f7ab1954be60405160405180910390a1565b60006001826040518082805190602001908083835b602083101515610a595780518252602082019150602081019050602083039250610a34565b6001836020036101000a038019825116818451168082178552505050505050905001915050908152602001604051809103902060009054906101000a900473ffffffffffffffffffffffffffffffffffffffff169050919050565b6000809054906101000a900473ffffffffffffffffffffffffffffffffffffffff1673ffffffffffffffffffffffffffffffffffffffff163373ffffffffffffffffffffffffffffffffffffffff16141515610b0f57600080fd5b6000809054906101000a900473ffffffffffffffffffffffffffffffffffffffff1673ffffffffffffffffffffffffffffffffffffffff167ff8df31144d9c2f0f6b59d69b8b98abd5459d07f2742c4df920b25aae33c6482060405160405180910390a260008060006101000a81548173ffffffffffffffffffffffffffffffffffffffff021916908373ffffffffffffffffffffffffffffffffffffffff160217905550565b6000809054906101000a900473ffffffffffffffffffffffffffffffffffffffff1681565b6000809054906101000a900473ffffffffffffffffffffffffffffffffffffffff1673ffffffffffffffffffffffffffffffffffffffff163373ffffffffffffffffffffffffffffffffffffffff16141515610c3657600080fd5b610c3f81610c55565b50565b600080823b905060008111915050919050565b600073ffffffffffffffffffffffffffffffffffffffff168173ffffffffffffffffffffffffffffffffffffffff1614151515610c9157600080fd5b8073ffffffffffffffffffffffffffffffffffffffff166000809054906101000a900473ffffffffffffffffffffffffffffffffffffffff1673ffffffffffffffffffffffffffffffffffffffff167f8be0079c531659141344cd1fd0a4f28419497f9722a3daafe3b4186f6b6457e060405160405180910390a3806000806101000a81548173ffffffffffffffffffffffffffffffffffffffff021916908373ffffffffffffffffffffffffffffffffffffffff160217905550505600a165627a7a723058208f5bf928da99189124fc2cf34170fc759c5743fbd48a1bc428ffe8349be3c1510029",
  "source": "pragma solidity ^0.4.24;\n\nimport \"./ImplementationProvider.sol\";\nimport \"openzeppelin-solidity/contracts/ownership/Ownable.sol\";\nimport 'openzeppelin-solidity/contracts/AddressUtils.sol';\n\n/**\n * @title ImplementationDirectory\n * @dev Implementation provider that stores contract implementations in a mapping.\n */\ncontract ImplementationDirectory is ImplementationProvider, Ownable {\n  /**\n   * @dev Emitted when the implementation of a contract is changed.\n   * @param contractName Name of the contract.\n   * @param implementation Address of the added implementation.\n   */\n  event ImplementationChanged(string contractName, address indexed implementation);\n\n  /**\n   * @dev Emitted when the implementation directory is frozen.\n   */\n  event Frozen();\n\n  /// @dev Mapping where the addresses of the implementations are stored.\n  mapping (string => address) internal implementations;\n\n  /// @dev Mutability state of the directory.\n  bool public frozen;\n\n  /**\n   * @dev Modifier that allows functions to be called only before the contract is frozen.\n   */\n  modifier whenNotFrozen() {\n    require(!frozen, \"Cannot perform action for a frozen implementation directory\");\n    _;\n  }\n\n  /**\n   * @dev Makes the directory irreversibly immutable.\n   * It can only be called once, by the owner.\n   */\n  function freeze() onlyOwner whenNotFrozen public {\n    frozen = true;\n    emit Frozen();\n  }\n\n  /**\n   * @dev Returns the implementation address of a contract.\n   * @param contractName Name of the contract.\n   * @return Address of the implementation.\n   */\n  function getImplementation(string contractName) public view returns (address) {\n    return implementations[contractName];\n  }\n\n  /**\n   * @dev Sets the address of the implementation of a contract in the directory.\n   * @param contractName Name of the contract.\n   * @param implementation Address of the implementation.\n   */\n  function setImplementation(string contractName, address implementation) public onlyOwner whenNotFrozen {\n    require(AddressUtils.isContract(implementation), \"Cannot set implementation in directory with a non-contract address\");\n    implementations[contractName] = implementation;\n    emit ImplementationChanged(contractName, implementation);\n  }\n\n  /**\n   * @dev Removes the address of a contract implementation from the directory.\n   * @param contractName Name of the contract.\n   */\n  function unsetImplementation(string contractName) public onlyOwner whenNotFrozen {\n    implementations[contractName] = address(0);\n    emit ImplementationChanged(contractName, address(0));\n  }\n}\n",
  "sourcePath": "/Users/facu/Documents/Laburo/Zeppelin/ZeppelinOS/zos/packages/lib/contracts/application/ImplementationDirectory.sol",
  "compiler": {
    "name": "solc",
    "version": "0.4.24+commit.e67f0147.Emscripten.clang"
  },
  "schemaVersion": "2.0.1",
  "updatedAt": "2019-01-10T18:46:07.209Z"
}