{
  "contractName": "Implementation2",
  "abi": [
    {
      "constant": false,
      "inputs": [],
      "name": "initialize",
      "outputs": [],
      "payable": false,
      "stateMutability": "nonpayable",
      "type": "function"
    },
    {
      "constant": false,
      "inputs": [
        {
          "name": "_number",
          "type": "uint256"
        }
      ],
      "name": "setValue",
      "outputs": [],
      "payable": false,
      "stateMutability": "nonpayable",
      "type": "function"
    },
    {
      "constant": true,
      "inputs": [],
      "name": "getValue",
      "outputs": [
        {
          "name": "",
          "type": "uint256"
        }
      ],
      "payable": false,
      "stateMutability": "view",
      "type": "function"
    }
  ],
  "bytecode": "0x608060405234801561001057600080fd5b50610251806100206000396000f300608060405260043610610057576000357c0100000000000000000000000000000000000000000000000000000000900463ffffffff168063209652551461005c57806355241077146100875780638129fc1c146100b4575b600080fd5b34801561006857600080fd5b506100716100cb565b6040518082815260200191505060405180910390f35b34801561009357600080fd5b506100b2600480360381019080803590602001909291905050506100d5565b005b3480156100c057600080fd5b506100c96100df565b005b6000603354905090565b8060338190555050565b60008060019054906101000a900460ff16806100ff57506100fe610214565b5b8061011657506000809054906101000a900460ff16155b15156101b0576040517f08c379a000000000000000000000000000000000000000000000000000000000815260040180806020018281038252602e8152602001807f436f6e747261637420696e7374616e63652068617320616c726561647920626581526020017f656e20696e697469616c697a656400000000000000000000000000000000000081525060400191505060405180910390fd5b600060019054906101000a900460ff1690506001600060016101000a81548160ff02191690831515021790555060016000806101000a81548160ff02191690831515021790555080600060016101000a81548160ff02191690831515021790555050565b600080303b905060008114915050905600a165627a7a723058203fb9b2d70a147d5d1146059933a82e54e8128ca16170c2dd34714414ccca62f90029",
  "source": "pragma solidity ^0.4.24;\n\nimport \"../Initializable.sol\";\n\ncontract Implementation1 is Initializable {\n  uint value;\n\n  function initialize() initializer public {\n  }\n\n  function setValue(uint _number) public {\n    value = _number;\n  }\n}\n\ncontract Implementation2 is Initializable {\n  uint value;\n\n  function initialize() initializer public {\n  }\n\n  function setValue(uint _number) public {\n    value = _number;\n  }\n\n  function getValue() public view returns (uint) {\n    return value;\n  }\n}\n\ncontract Implementation3 is Initializable {\n  uint value;\n\n  function initialize() initializer public {\n  }\n\n  function setValue(uint _number) public {\n    value = _number;\n  }\n\n  function getValue(uint _number) public view returns (uint) {\n    return value + _number;\n  }\n}\n\ncontract Implementation4 is Initializable {\n  uint value;\n\n  function initialize() initializer public {\n  }\n\n  function setValue(uint _number) public {\n    value = _number;\n  }\n\n  function getValue() public view returns (uint) {\n    return value;\n  }\n\n  function() public {\n    value = 1;\n  }\n}\n",
  "sourcePath": "/Users/facu/Documents/Laburo/Zeppelin/ZeppelinOS/zos/packages/lib/contracts/mocks/RegressionImplementation.sol",
  "compiler": {
    "name": "solc",
    "version": "0.4.24+commit.e67f0147.Emscripten.clang"
  },
  "schemaVersion": "2.0.1",
  "updatedAt": "2019-01-10T18:46:07.230Z"
}