{
  "contractName": "MigratableMockV2",
  "abi": [
    {
      "constant": true,
      "inputs": [],
      "name": "x",
      "outputs": [
        {
          "name": "",
          "type": "uint256"
        }
      ],
      "payable": false,
      "stateMutability": "view",
      "type": "function"
    },
    {
      "constant": true,
      "inputs": [],
      "name": "y",
      "outputs": [
        {
          "name": "",
          "type": "uint256"
        }
      ],
      "payable": false,
      "stateMutability": "view",
      "type": "function"
    },
    {
      "constant": false,
      "inputs": [
        {
          "name": "value",
          "type": "uint256"
        }
      ],
      "name": "initialize",
      "outputs": [],
      "payable": true,
      "stateMutability": "payable",
      "type": "function"
    },
    {
      "constant": false,
      "inputs": [
        {
          "name": "value",
          "type": "uint256"
        },
        {
          "name": "anotherValue",
          "type": "uint256"
        }
      ],
      "name": "migrate",
      "outputs": [],
      "payable": true,
      "stateMutability": "payable",
      "type": "function"
    }
  ],
  "bytecode": "0x608060405234801561001057600080fd5b506102d6806100206000396000f300608060405260043610610062576000357c0100000000000000000000000000000000000000000000000000000000900463ffffffff1680630c55699c146100675780633e54bacb14610092578063a56dfe4a146100bc578063fe4b84df146100e7575b600080fd5b34801561007357600080fd5b5061007c610107565b6040518082815260200191505060405180910390f35b6100ba600480360381019080803590602001909291908035906020019092919050505061010d565b005b3480156100c857600080fd5b506100d1610156565b6040518082815260200191505060405180910390f35b6101056004803603810190808035906020019092919050505061015c565b005b60335481565b603460009054906101000a900460ff1615151561012957600080fd5b81603381905550806035819055506001603460006101000a81548160ff0219169083151502179055505050565b60355481565b60008060019054906101000a900460ff168061017c575061017b610299565b5b8061019357506000809054906101000a900460ff16155b151561022d576040517f08c379a000000000000000000000000000000000000000000000000000000000815260040180806020018281038252602e8152602001807f436f6e747261637420696e7374616e63652068617320616c726561647920626581526020017f656e20696e697469616c697a656400000000000000000000000000000000000081525060400191505060405180910390fd5b600060019054906101000a900460ff1690506001600060016101000a81548160ff02191690831515021790555060016000806101000a81548160ff0219169083151502179055508160338190555080600060016101000a81548160ff0219169083151502179055505050565b600080303b905060008114915050905600a165627a7a72305820723812b6507fb1acd7a6b6bdc50460749e644d65ccbd1e97c5aa4874364188d40029",
  "source": "pragma solidity ^0.4.24;\n\nimport '../Initializable.sol';\n\n/**\n * @title MigratableMockV1\n * @dev This contract is a mock to test initializable functionality through migrations\n */\ncontract MigratableMockV1 is Initializable {\n  uint256 public x;\n\n  function initialize(uint256 value) initializer public payable {\n    x = value;\n  }\n}\n\n/**\n * @title MigratableMockV2\n * @dev This contract is a mock to test migratable functionality with params\n */\ncontract MigratableMockV2 is MigratableMockV1 {\n  bool migratedV2;\n  uint256 public y;\n\n  function migrate(uint256 value, uint256 anotherValue) public payable {\n    require(!migratedV2);\n    x = value;\n    y = anotherValue;\n    migratedV2 = true;\n  }\n}\n\n/**\n * @title MigratableMockV3\n * @dev This contract is a mock to test migratable functionality without params\n */\ncontract MigratableMockV3 is MigratableMockV2 {\n  bool migratedV3;\n\n  function migrate() public payable {\n    require(!migratedV3);\n    uint256 oldX = x;\n    x = y;\n    y = oldX;\n    migratedV3 = true;\n  }\n}\n",
  "sourcePath": "/Users/facu/Documents/Laburo/Zeppelin/ZeppelinOS/zos/packages/lib/contracts/mocks/SingleInheritanceInitializableMocks.sol",
  "compiler": {
    "name": "solc",
    "version": "0.4.24+commit.e67f0147.Emscripten.clang"
  },
  "schemaVersion": "2.0.1",
  "updatedAt": "2019-01-10T18:46:07.231Z"
}