{
  "contractName": "WithoutInitialValuesInFieldsDeclarations",
  "abi": [
    {
      "constant": true,
      "inputs": [],
      "name": "doSomething",
      "outputs": [
        {
          "name": "",
          "type": "string"
        }
      ],
      "payable": false,
      "stateMutability": "pure",
      "type": "function"
    }
  ],
  "bytecode": "0x608060405234801561001057600080fd5b5061013f806100206000396000f300608060405260043610610041576000357c0100000000000000000000000000000000000000000000000000000000900463ffffffff1680638269267914610046575b600080fd5b34801561005257600080fd5b5061005b6100d6565b6040518080602001828103825283818151815260200191508051906020019080838360005b8381101561009b578082015181840152602081019050610080565b50505050905090810190601f1680156100c85780820380516001836020036101000a031916815260200191505b509250505060405180910390f35b60606040805190810160405280600281526020017f646f0000000000000000000000000000000000000000000000000000000000008152509050905600a165627a7a7230582082af107f5733549f0127d9da9e534b870ba70a76ff8fe0d874d3be816a269b860029",
  "source": "pragma solidity ^0.4.24;\n\ncontract WithoutInitialValuesInFieldsDeclarations {\n  uint constant myConst = 115994;\n\n  function doSomething() public pure returns (string) {\n    return 'do';\n  }\n}\n\ncontract WithInitialValuesInFieldsDeclarations {\n  string public allaps = 'allaps';\n\n  function doSomething() public pure returns (string) {\n    return 'do';\n  }\n}\n\ncontract WithParentWithInitialValuesInFieldsDeclarations is WithInitialValuesInFieldsDeclarations {\n  string public myVar;\n\n  function doSomething() public pure returns (string) {\n    return 'do';\n  }\n}\n\n",
  "sourcePath": "/Users/facu/Documents/Laburo/Zeppelin/ZeppelinOS/zos/packages/lib/contracts/mocks/WithInitialValues.sol",
  "compiler": {
    "name": "solc",
    "version": "0.4.24+commit.e67f0147.Emscripten.clang"
  },
  "schemaVersion": "2.0.1",
  "updatedAt": "2019-01-10T18:46:07.250Z"
}