{
  "contractName": "WithBaseInitialized",
  "abi": [
    {
      "constant": true,
      "inputs": [],
      "name": "value",
      "outputs": [
        {
          "name": "",
          "type": "uint256"
        }
      ],
      "payable": false,
      "stateMutability": "view",
      "type": "function"
    },
    {
      "constant": true,
      "inputs": [],
      "name": "someValue",
      "outputs": [
        {
          "name": "",
          "type": "uint256"
        }
      ],
      "payable": false,
      "stateMutability": "view",
      "type": "function"
    },
    {
      "constant": true,
      "inputs": [],
      "name": "anotherValue",
      "outputs": [
        {
          "name": "",
          "type": "uint256"
        }
      ],
      "payable": false,
      "stateMutability": "view",
      "type": "function"
    },
    {
      "constant": false,
      "inputs": [],
      "name": "init",
      "outputs": [],
      "payable": false,
      "stateMutability": "nonpayable",
      "type": "function"
    },
    {
      "constant": false,
      "inputs": [],
      "name": "initialize",
      "outputs": [],
      "payable": false,
      "stateMutability": "nonpayable",
      "type": "function"
    }
  ],
  "bytecode": "0x608060405234801561001057600080fd5b506102cf806100206000396000f30060806040526004361061006d576000357c0100000000000000000000000000000000000000000000000000000000900463ffffffff1680633fa4f245146100725780634a627e611461009d57806368620bd0146100c85780638129fc1c146100f3578063e1c7392a1461010a575b600080fd5b34801561007e57600080fd5b50610087610121565b6040518082815260200191505060405180910390f35b3480156100a957600080fd5b506100b2610127565b6040518082815260200191505060405180910390f35b3480156100d457600080fd5b506100dd61012d565b6040518082815260200191505060405180910390f35b3480156100ff57600080fd5b50610108610133565b005b34801561011657600080fd5b5061011f61014d565b005b60005481565b60355481565b60345481565b61013b610288565b61014361014d565b602a603581905550565b60006001809054906101000a900460ff168061016d575061016c610292565b5b806101855750600160009054906101000a900460ff16155b151561021f576040517f08c379a000000000000000000000000000000000000000000000000000000000815260040180806020018281038252602e8152602001807f436f6e747261637420696e7374616e63652068617320616c726561647920626581526020017f656e20696e697469616c697a656400000000000000000000000000000000000081525060400191505060405180910390fd5b6001809054906101000a900460ff16905060018060016101000a81548160ff02191690831515021790555060018060006101000a81548160ff021916908315150217905550602a603481905550806001806101000a81548160ff02191690831515021790555050565b602a600081905550565b600080303b905060008114915050905600a165627a7a72305820dc5ab50eec263f3a9e0795d49317dde49da3682e51bb9159aaf929e88c35bfd30029",
  "source": "pragma solidity ^0.4.24;\n\nimport \"../Initializable.sol\";\n\ncontract WithInitialize {\n  uint public value;\n\n  function initialize() public {\n    value = 42;\n  }\n}\n\ncontract AnotherWithInitialize is Initializable {\n  uint public anotherValue;\n\n  function init() initializer public {\n    anotherValue = 42;\n  }\n}\n\ncontract WithoutInitialize {\n  function say() public pure returns (string) {\n    return \"WithoutInitialize\";\n  }\n}\n\ncontract WithBaseUninitialized is WithInitialize, AnotherWithInitialize {\n  uint public someValue;\n\n  function initialize() public {\n    someValue = 42;\n  }\n}\n\ncontract WithBaseInitialized is WithInitialize, AnotherWithInitialize {\n  uint public someValue;\n\n  function initialize() public {\n    WithInitialize.initialize();\n    AnotherWithInitialize.init();\n    someValue = 42;\n  }\n}\n\ncontract WithSimpleBaseUninitialized is WithoutInitialize {\n  uint public someValue;\n\n  function initialize() public {\n    someValue = 42;\n  }\n}\n\ncontract ShouldHaveInitialize is WithInitialize, AnotherWithInitialize {\n  uint public someValue;\n}\n\ncontract DoesNotNeedAnInitialize is WithInitialize, WithoutInitialize {\n  uint public someValue;\n}\n\ncontract ExtendsFromShouldHaveInitialize is ShouldHaveInitialize {\n  uint public someOtherValue;\n}\n",
  "sourcePath": "/Users/facu/Documents/Laburo/Zeppelin/ZeppelinOS/zos/packages/lib/contracts/mocks/WithInitialize.sol",
  "compiler": {
    "name": "solc",
    "version": "0.4.24+commit.e67f0147.Emscripten.clang"
  },
  "schemaVersion": "2.0.1",
  "updatedAt": "2019-01-10T18:46:07.252Z"
}