{
  "contractName": "WithParentWithDelegateCall",
  "abi": [
    {
      "inputs": [
        {
          "name": "_e",
          "type": "address"
        }
      ],
      "payable": false,
      "stateMutability": "nonpayable",
      "type": "constructor"
    },
    {
      "constant": true,
      "inputs": [],
      "name": "say",
      "outputs": [
        {
          "name": "",
          "type": "string"
        }
      ],
      "payable": false,
      "stateMutability": "pure",
      "type": "function"
    }
  ],
  "bytecode": "0x608060405234801561001057600080fd5b5060405160208061023a83398101806040528101908080519060200190929190505050808073ffffffffffffffffffffffffffffffffffffffff1660405180807f6b696c6c28290000000000000000000000000000000000000000000000000000815250600601905060405180910390207c010000000000000000000000000000000000000000000000000000000090046040518163ffffffff167c0100000000000000000000000000000000000000000000000000000000028152600401600060405180830381865af49250505015156100ea57600080fd5b505061013f806100fb6000396000f300608060405260043610610041576000357c0100000000000000000000000000000000000000000000000000000000900463ffffffff168063954ab4b214610046575b600080fd5b34801561005257600080fd5b5061005b6100d6565b6040518080602001828103825283818151815260200191508051906020019080838360005b8381101561009b578082015181840152602081019050610080565b50505050905090810190601f1680156100c85780820380516001836020036101000a031916815260200191505b509250505060405180910390f35b60606040805190810160405280601a81526020017f57697468506172656e745769746844656c656761746543616c6c0000000000008152509050905600a165627a7a72305820af005cfef12bd06e9514730b3daec7d3b04848ca1dfbdc51a43bd9300110399a0029",
  "source": "pragma solidity ^0.4.24;\n\ncontract WithConstructor {\n  uint256 public value;\n\n  constructor() public {\n    value = 42;\n  }\n\n  function say() public pure returns (string) {\n    return \"WithConstructor\";\n  }\n}\n\ncontract WithFailingConstructor {\n  constructor() public {\n    assert(false);\n  }\n}\n\ncontract WithSelfDestruct {\n  uint256 public value;\n\n  constructor() public {\n    if (true)\n      selfdestruct(msg.sender);\n  }\n\n  function say() public pure returns (string) {\n    return \"WithSelfDestruct\";\n  }\n}\n\ncontract WithParentWithSelfDestruct is WithSelfDestruct {\n  function say() public pure returns (string) {\n    return \"WithParentWithSelfDestruct\";\n  }\n}\n\ncontract WithDelegateCall {\n  constructor(address _e) public {\n    require(_e.delegatecall(bytes4(keccak256(\"kill()\"))));\n  }\n  \n  function say() public pure returns (string) {\n    return \"WithDelegateCall\";\n  }\n}\n\ncontract WithParentWithDelegateCall is WithDelegateCall {\n  constructor(address _e) public WithDelegateCall(_e) {\n  }\n\n  function say() public pure returns (string) {\n    return \"WithParentWithDelegateCall\";\n  }\n}\n\ncontract WithConstructorImplementation {\n  uint256 public value;\n  string public text;\n\n  constructor(uint256 _value, string _text) public {\n    require(_value > 0);\n    value = _value;\n    text = _text;\n  }\n}",
  "sourcePath": "/Users/facu/Documents/Laburo/Zeppelin/ZeppelinOS/zos/packages/lib/contracts/mocks/Invalid.sol",
  "compiler": {
    "name": "solc",
    "version": "0.4.24+commit.e67f0147.Emscripten.clang"
  },
  "schemaVersion": "2.0.1",
  "updatedAt": "2019-01-10T18:46:07.223Z"
}