{
  "contractName": "WithInitialValuesInFieldsDeclarations",
  "abi": [
    {
      "constant": true,
      "inputs": [],
      "name": "allaps",
      "outputs": [
        {
          "name": "",
          "type": "string"
        }
      ],
      "payable": false,
      "stateMutability": "view",
      "type": "function"
    },
    {
      "constant": true,
      "inputs": [],
      "name": "doSomething",
      "outputs": [
        {
          "name": "",
          "type": "string"
        }
      ],
      "payable": false,
      "stateMutability": "pure",
      "type": "function"
    }
  ],
  "bytecode": "0x60806040526040805190810160405280600681526020017f616c6c61707300000000000000000000000000000000000000000000000000008152506000908051906020019061004f929190610062565b5034801561005c57600080fd5b50610107565b828054600181600116156101000203166002900490600052602060002090601f016020900481019282601f106100a357805160ff19168380011785556100d1565b828001600101855582156100d1579182015b828111156100d05782518255916020019190600101906100b5565b5b5090506100de91906100e2565b5090565b61010491905b808211156101005760008160009055506001016100e8565b5090565b90565b610278806101166000396000f30060806040526004361061004c576000357c0100000000000000000000000000000000000000000000000000000000900463ffffffff1680638269267914610051578063bc4b0e64146100e1575b600080fd5b34801561005d57600080fd5b50610066610171565b6040518080602001828103825283818151815260200191508051906020019080838360005b838110156100a657808201518184015260208101905061008b565b50505050905090810190601f1680156100d35780820380516001836020036101000a031916815260200191505b509250505060405180910390f35b3480156100ed57600080fd5b506100f66101ae565b6040518080602001828103825283818151815260200191508051906020019080838360005b8381101561013657808201518184015260208101905061011b565b50505050905090810190601f1680156101635780820380516001836020036101000a031916815260200191505b509250505060405180910390f35b60606040805190810160405280600281526020017f646f000000000000000000000000000000000000000000000000000000000000815250905090565b60008054600181600116156101000203166002900480601f0160208091040260200160405190810160405280929190818152602001828054600181600116156101000203166002900480156102445780601f1061021957610100808354040283529160200191610244565b820191906000526020600020905b81548152906001019060200180831161022757829003601f168201915b5050505050815600a165627a7a72305820936f4499bad4640cd44997889f85b7efd1b93232db83aa96b99f4cd77b4671610029",
  "source": "pragma solidity ^0.4.24;\n\ncontract WithoutInitialValuesInFieldsDeclarations {\n  uint constant myConst = 115994;\n\n  function doSomething() public pure returns (string) {\n    return 'do';\n  }\n}\n\ncontract WithInitialValuesInFieldsDeclarations {\n  string public allaps = 'allaps';\n\n  function doSomething() public pure returns (string) {\n    return 'do';\n  }\n}\n\ncontract WithParentWithInitialValuesInFieldsDeclarations is WithInitialValuesInFieldsDeclarations {\n  string public myVar;\n\n  function doSomething() public pure returns (string) {\n    return 'do';\n  }\n}\n\n",
  "sourcePath": "/Users/facu/Documents/Laburo/Zeppelin/ZeppelinOS/zos/packages/lib/contracts/mocks/WithInitialValues.sol",
  "compiler": {
    "name": "solc",
    "version": "0.4.24+commit.e67f0147.Emscripten.clang"
  },
  "schemaVersion": "2.0.1",
  "updatedAt": "2019-01-10T18:46:07.249Z"
}