{
  "contractName": "WithoutInitialize",
  "abi": [
    {
      "constant": true,
      "inputs": [],
      "name": "say",
      "outputs": [
        {
          "name": "",
          "type": "string"
        }
      ],
      "payable": false,
      "stateMutability": "pure",
      "type": "function"
    }
  ],
  "bytecode": "0x608060405234801561001057600080fd5b5061013f806100206000396000f300608060405260043610610041576000357c0100000000000000000000000000000000000000000000000000000000900463ffffffff168063954ab4b214610046575b600080fd5b34801561005257600080fd5b5061005b6100d6565b6040518080602001828103825283818151815260200191508051906020019080838360005b8381101561009b578082015181840152602081019050610080565b50505050905090810190601f1680156100c85780820380516001836020036101000a031916815260200191505b509250505060405180910390f35b60606040805190810160405280601181526020017f576974686f7574496e697469616c697a650000000000000000000000000000008152509050905600a165627a7a723058204bee661a5c39dec7bfd21d8871774e5049302dea90c06a3269473056930263950029",
  "source": "pragma solidity ^0.4.24;\n\nimport \"../Initializable.sol\";\n\ncontract WithInitialize {\n  uint public value;\n\n  function initialize() public {\n    value = 42;\n  }\n}\n\ncontract AnotherWithInitialize is Initializable {\n  uint public anotherValue;\n\n  function init() initializer public {\n    anotherValue = 42;\n  }\n}\n\ncontract WithoutInitialize {\n  function say() public pure returns (string) {\n    return \"WithoutInitialize\";\n  }\n}\n\ncontract WithBaseUninitialized is WithInitialize, AnotherWithInitialize {\n  uint public someValue;\n\n  function initialize() public {\n    someValue = 42;\n  }\n}\n\ncontract WithBaseInitialized is WithInitialize, AnotherWithInitialize {\n  uint public someValue;\n\n  function initialize() public {\n    WithInitialize.initialize();\n    AnotherWithInitialize.init();\n    someValue = 42;\n  }\n}\n\ncontract WithSimpleBaseUninitialized is WithoutInitialize {\n  uint public someValue;\n\n  function initialize() public {\n    someValue = 42;\n  }\n}\n\ncontract ShouldHaveInitialize is WithInitialize, AnotherWithInitialize {\n  uint public someValue;\n}\n\ncontract DoesNotNeedAnInitialize is WithInitialize, WithoutInitialize {\n  uint public someValue;\n}\n\ncontract ExtendsFromShouldHaveInitialize is ShouldHaveInitialize {\n  uint public someOtherValue;\n}\n",
  "sourcePath": "/Users/facu/Documents/Laburo/Zeppelin/ZeppelinOS/zos/packages/lib/contracts/mocks/WithInitialize.sol",
  "compiler": {
    "name": "solc",
    "version": "0.4.24+commit.e67f0147.Emscripten.clang"
  },
  "schemaVersion": "2.0.1",
  "updatedAt": "2019-01-10T18:46:07.254Z"
}