{
  "contractName": "IncreasingPriceCrowdsale",
  "abi": [
    {
      "constant": true,
      "inputs": [],
      "name": "hasClosed",
      "outputs": [
        {
          "name": "",
          "type": "bool"
        }
      ],
      "payable": false,
      "stateMutability": "view",
      "type": "function"
    },
    {
      "constant": true,
      "inputs": [],
      "name": "weiRaised",
      "outputs": [
        {
          "name": "",
          "type": "uint256"
        }
      ],
      "payable": false,
      "stateMutability": "view",
      "type": "function"
    },
    {
      "constant": true,
      "inputs": [],
      "name": "isOpen",
      "outputs": [
        {
          "name": "",
          "type": "bool"
        }
      ],
      "payable": false,
      "stateMutability": "view",
      "type": "function"
    },
    {
      "constant": true,
      "inputs": [],
      "name": "closingTime",
      "outputs": [
        {
          "name": "",
          "type": "uint256"
        }
      ],
      "payable": false,
      "stateMutability": "view",
      "type": "function"
    },
    {
      "constant": true,
      "inputs": [],
      "name": "wallet",
      "outputs": [
        {
          "name": "",
          "type": "address"
        }
      ],
      "payable": false,
      "stateMutability": "view",
      "type": "function"
    },
    {
      "constant": true,
      "inputs": [],
      "name": "openingTime",
      "outputs": [
        {
          "name": "",
          "type": "uint256"
        }
      ],
      "payable": false,
      "stateMutability": "view",
      "type": "function"
    },
    {
      "constant": false,
      "inputs": [
        {
          "name": "beneficiary",
          "type": "address"
        }
      ],
      "name": "buyTokens",
      "outputs": [],
      "payable": true,
      "stateMutability": "payable",
      "type": "function"
    },
    {
      "constant": true,
      "inputs": [],
      "name": "token",
      "outputs": [
        {
          "name": "",
          "type": "address"
        }
      ],
      "payable": false,
      "stateMutability": "view",
      "type": "function"
    },
    {
      "payable": true,
      "stateMutability": "payable",
      "type": "fallback"
    },
    {
      "anonymous": false,
      "inputs": [
        {
          "indexed": false,
          "name": "prevClosingTime",
          "type": "uint256"
        },
        {
          "indexed": false,
          "name": "newClosingTime",
          "type": "uint256"
        }
      ],
      "name": "TimedCrowdsaleExtended",
      "type": "event"
    },
    {
      "anonymous": false,
      "inputs": [
        {
          "indexed": true,
          "name": "purchaser",
          "type": "address"
        },
        {
          "indexed": true,
          "name": "beneficiary",
          "type": "address"
        },
        {
          "indexed": false,
          "name": "value",
          "type": "uint256"
        },
        {
          "indexed": false,
          "name": "amount",
          "type": "uint256"
        }
      ],
      "name": "TokensPurchased",
      "type": "event"
    },
    {
      "constant": false,
      "inputs": [],
      "name": "initialize",
      "outputs": [],
      "payable": false,
      "stateMutability": "nonpayable",
      "type": "function"
    },
    {
      "constant": false,
      "inputs": [
        {
          "name": "rate",
          "type": "uint256"
        },
        {
          "name": "wallet",
          "type": "address"
        },
        {
          "name": "token",
          "type": "address"
        }
      ],
      "name": "initialize",
      "outputs": [],
      "payable": false,
      "stateMutability": "nonpayable",
      "type": "function"
    },
    {
      "constant": false,
      "inputs": [
        {
          "name": "initialRate",
          "type": "uint256"
        },
        {
          "name": "finalRate",
          "type": "uint256"
        }
      ],
      "name": "initialize",
      "outputs": [],
      "payable": false,
      "stateMutability": "nonpayable",
      "type": "function"
    },
    {
      "constant": true,
      "inputs": [],
      "name": "rate",
      "outputs": [
        {
          "name": "",
          "type": "uint256"
        }
      ],
      "payable": false,
      "stateMutability": "view",
      "type": "function"
    },
    {
      "constant": true,
      "inputs": [],
      "name": "initialRate",
      "outputs": [
        {
          "name": "",
          "type": "uint256"
        }
      ],
      "payable": false,
      "stateMutability": "view",
      "type": "function"
    },
    {
      "constant": true,
      "inputs": [],
      "name": "finalRate",
      "outputs": [
        {
          "name": "",
          "type": "uint256"
        }
      ],
      "payable": false,
      "stateMutability": "view",
      "type": "function"
    },
    {
      "constant": true,
      "inputs": [],
      "name": "getCurrentRate",
      "outputs": [
        {
          "name": "",
          "type": "uint256"
        }
      ],
      "payable": false,
      "stateMutability": "view",
      "type": "function"
    }
  ],
  "bytecode": "0x608060405234801561001057600080fd5b50610fc7806100206000396000f3fe608060405260043610610105576000357c0100000000000000000000000000000000000000000000000000000000900480638129fc1c116100a7578063e4a3011611610076578063e4a3011614610359578063ec8ac4d81461039e578063f7fb07b0146103e2578063fc0c546a1461040d57610105565b80638129fc1c146102715780639e51051f14610288578063b4988fd0146102b3578063b7a8807c1461032e57610105565b80634042b66f116100e35780634042b66f1461019557806347535d7b146101c05780634b6753bc146101ef578063521eb2731461021a57610105565b80631515bc2b14610110578063211061091461013f5780632c4e722e1461016a575b61010e33610464565b005b34801561011c57600080fd5b5061012561055c565b604051808215151515815260200191505060405180910390f35b34801561014b57600080fd5b50610154610568565b6040518082815260200191505060405180910390f35b34801561017657600080fd5b5061017f610572565b6040518082815260200191505060405180910390f35b3480156101a157600080fd5b506101aa610579565b6040518082815260200191505060405180910390f35b3480156101cc57600080fd5b506101d5610583565b604051808215151515815260200191505060405180910390f35b3480156101fb57600080fd5b5061020461059e565b6040518082815260200191505060405180910390f35b34801561022657600080fd5b5061022f6105a8565b604051808273ffffffffffffffffffffffffffffffffffffffff1673ffffffffffffffffffffffffffffffffffffffff16815260200191505060405180910390f35b34801561027d57600080fd5b506102866105d2565b005b34801561029457600080fd5b5061029d6106cc565b6040518082815260200191505060405180910390f35b3480156102bf57600080fd5b5061032c600480360360608110156102d657600080fd5b8101908080359060200190929190803573ffffffffffffffffffffffffffffffffffffffff169060200190929190803573ffffffffffffffffffffffffffffffffffffffff1690602001909291905050506106d6565b005b34801561033a57600080fd5b506103436108db565b6040518082815260200191505060405180910390f35b34801561036557600080fd5b5061039c6004803603604081101561037c57600080fd5b8101908080359060200190929190803590602001909291905050506108e5565b005b6103e0600480360360208110156103b457600080fd5b81019080803573ffffffffffffffffffffffffffffffffffffffff169060200190929190505050610464565b005b3480156103ee57600080fd5b506103f7610a14565b6040518082815260200191505060405180910390f35b34801561041957600080fd5b50610422610acd565b604051808273ffffffffffffffffffffffffffffffffffffffff1673ffffffffffffffffffffffffffffffffffffffff16815260200191505060405180910390f35b600160336000828254019250508190555060006033549050600034905061048b8382610af7565b600061049682610b18565b90506104ad82606954610b4090919063ffffffff16565b6069819055506104bd8482610b61565b8373ffffffffffffffffffffffffffffffffffffffff163373ffffffffffffffffffffffffffffffffffffffff167f6faf93231a456e552dbc9961f58d9713ee4f2e69d15f1975b050ef0911053a7b8484604051808381526020018281526020019250505060405180910390a36105348483610b6f565b61053c610b73565b6105468483610bde565b50506033548114151561055857600080fd5b5050565b6000609d544211905090565b600060d154905090565b6000806000fd5b6000606954905090565b6000609c5442101580156105995750609d544211155b905090565b6000609d54905090565b6000606760009054906101000a900473ffffffffffffffffffffffffffffffffffffffff16905090565b600060019054906101000a900460ff16806105f157506105f0610be2565b5b8061060857506000809054906101000a900460ff16155b151561065f576040517f08c379a000000000000000000000000000000000000000000000000000000000815260040180806020018281038252602e815260200180610f6e602e913960400191505060405180910390fd5b60008060019054906101000a900460ff1690506001600060016101000a81548160ff02191690831515021790555060016000806101000a81548160ff021916908315150217905550600160338190555080600060016101000a81548160ff02191690831515021790555050565b600060d054905090565b600060019054906101000a900460ff16806106f557506106f4610be2565b5b8061070c57506000809054906101000a900460ff16155b1515610763576040517f08c379a000000000000000000000000000000000000000000000000000000000815260040180806020018281038252602e815260200180610f6e602e913960400191505060405180910390fd5b60008060019054906101000a900460ff1690506001600060016101000a81548160ff02191690831515021790555060016000806101000a81548160ff0219169083151502179055506000841115156107ba57600080fd5b600073ffffffffffffffffffffffffffffffffffffffff168373ffffffffffffffffffffffffffffffffffffffff16141515156107f657600080fd5b600073ffffffffffffffffffffffffffffffffffffffff168273ffffffffffffffffffffffffffffffffffffffff161415151561083257600080fd5b8360688190555082606760006101000a81548173ffffffffffffffffffffffffffffffffffffffff021916908373ffffffffffffffffffffffffffffffffffffffff16021790555081606660006101000a81548173ffffffffffffffffffffffffffffffffffffffff021916908373ffffffffffffffffffffffffffffffffffffffff16021790555080600060016101000a81548160ff02191690831515021790555050505050565b6000609c54905090565b600060019054906101000a900460ff16806109045750610903610be2565b5b8061091b57506000809054906101000a900460ff16155b1515610972576040517f08c379a000000000000000000000000000000000000000000000000000000000815260040180806020018281038252602e815260200180610f6e602e913960400191505060405180910390fd5b60008060019054906101000a900460ff1690506001600060016101000a81548160ff02191690831515021790555060016000806101000a81548160ff0219169083151502179055506109c2610bf3565b15156109ca57fe5b6000821115156109d957600080fd5b81831115156109e757600080fd5b8260d0819055508160d18190555080600060016101000a81548160ff021916908315150217905550505050565b6000610a1e610583565b1515610a2d5760009050610aca565b6000610a49610a3a6108db565b42610c0d90919063ffffffff16565b90506000610a6e610a586108db565b610a6061059e565b610c0d90919063ffffffff16565b90506000610a8960d15460d054610c0d90919063ffffffff16565b9050610ac4610ab383610aa58487610c2f90919063ffffffff16565b610c6d90919063ffffffff16565b60d054610c0d90919063ffffffff16565b93505050505b90565b6000606660009054906101000a900473ffffffffffffffffffffffffffffffffffffffff16905090565b610aff610583565b1515610b0a57600080fd5b610b148282610c97565b5050565b600080610b23610a14565b9050610b388382610c2f90919063ffffffff16565b915050919050565b6000808284019050838110151515610b5757600080fd5b8091505092915050565b610b6b8282610ce7565b5050565b5050565b606760009054906101000a900473ffffffffffffffffffffffffffffffffffffffff1673ffffffffffffffffffffffffffffffffffffffff166108fc349081150290604051600060405180830381858888f19350505050158015610bdb573d6000803e3d6000fd5b50565b5050565b600080303b90506000811491505090565b600080609c54118015610c0857506000609d54115b905090565b6000828211151515610c1e57600080fd5b600082840390508091505092915050565b600080831415610c425760009050610c67565b60008284029050828482811515610c5557fe5b04141515610c6257600080fd5b809150505b92915050565b60008082111515610c7d57600080fd5b60008284811515610c8a57fe5b0490508091505092915050565b600073ffffffffffffffffffffffffffffffffffffffff168273ffffffffffffffffffffffffffffffffffffffff1614151515610cd357600080fd5b60008114151515610ce357600080fd5b5050565b610d348282606660009054906101000a900473ffffffffffffffffffffffffffffffffffffffff1673ffffffffffffffffffffffffffffffffffffffff16610d389092919063ffffffff16565b5050565b610e20838473ffffffffffffffffffffffffffffffffffffffff1663a9059cbb90507c0100000000000000000000000000000000000000000000000000000000028484604051602401808373ffffffffffffffffffffffffffffffffffffffff1673ffffffffffffffffffffffffffffffffffffffff16815260200182815260200192505050604051602081830303815290604052907bffffffffffffffffffffffffffffffffffffffffffffffffffffffff19166020820180517bffffffffffffffffffffffffffffffffffffffffffffffffffffffff8381831617835250505050610e25565b505050565b610e448273ffffffffffffffffffffffffffffffffffffffff16610f5a565b1515610e4f57600080fd5b600060608373ffffffffffffffffffffffffffffffffffffffff16836040518082805190602001908083835b602083101515610ea05780518252602082019150602081019050602083039250610e7b565b6001836020036101000a0380198251168184511680821785525050505050509050019150506000604051808303816000865af19150503d8060008114610f02576040519150601f19603f3d011682016040523d82523d6000602084013e610f07565b606091505b5091509150811515610f1857600080fd5b600081511115610f5457808060200190516020811015610f3757600080fd5b81019080805190602001909291905050501515610f5357600080fd5b5b50505050565b600080823b90506000811191505091905056fe436f6e747261637420696e7374616e63652068617320616c7265616479206265656e20696e697469616c697a6564a165627a7a723058201310420542fa20a50284e3d8d1596c0791ba673984686961c50c5a017445b6da0029",
  "source": "pragma solidity ^0.5.2;\n\nimport \"zos-lib/contracts/Initializable.sol\";\nimport \"../validation/TimedCrowdsale.sol\";\nimport \"../../math/SafeMath.sol\";\n\n/**\n * @title IncreasingPriceCrowdsale\n * @dev Extension of Crowdsale contract that increases the price of tokens linearly in time.\n * Note that what should be provided to the constructor is the initial and final _rates_, that is,\n * the amount of tokens per wei contributed. Thus, the initial rate must be greater than the final rate.\n */\ncontract IncreasingPriceCrowdsale is Initializable, TimedCrowdsale {\n    using SafeMath for uint256;\n\n    uint256 private _initialRate;\n    uint256 private _finalRate;\n\n    /**\n     * @dev Constructor, takes initial and final rates of tokens received per wei contributed.\n     * @param initialRate Number of tokens a buyer gets per wei at the start of the crowdsale\n     * @param finalRate Number of tokens a buyer gets per wei at the end of the crowdsale\n     */\n    function initialize(uint256 initialRate, uint256 finalRate) public initializer {\n        assert(TimedCrowdsale._hasBeenInitialized());\n\n        require(finalRate > 0);\n        require(initialRate > finalRate);\n        _initialRate = initialRate;\n        _finalRate = finalRate;\n    }\n\n    /**\n     * The base rate function is overridden to revert, since this crowdsale doesn't use it, and\n     * all calls to it are a mistake.\n     */\n    function rate() public view returns (uint256) {\n        revert();\n    }\n\n    /**\n     * @return the initial rate of the crowdsale.\n     */\n    function initialRate() public view returns (uint256) {\n        return _initialRate;\n    }\n\n    /**\n     * @return the final rate of the crowdsale.\n     */\n    function finalRate() public view returns (uint256) {\n        return _finalRate;\n    }\n\n    /**\n     * @dev Returns the rate of tokens per wei at the present time.\n     * Note that, as price _increases_ with time, the rate _decreases_.\n     * @return The number of tokens a buyer gets per wei at a given time\n     */\n    function getCurrentRate() public view returns (uint256) {\n        if (!isOpen()) {\n            return 0;\n        }\n\n        // solhint-disable-next-line not-rely-on-time\n        uint256 elapsedTime = block.timestamp.sub(openingTime());\n        uint256 timeRange = closingTime().sub(openingTime());\n        uint256 rateRange = _initialRate.sub(_finalRate);\n        return _initialRate.sub(elapsedTime.mul(rateRange).div(timeRange));\n    }\n\n    /**\n     * @dev Overrides parent method taking into account variable rate.\n     * @param weiAmount The value in wei to be converted into tokens\n     * @return The number of tokens _weiAmount wei will buy at present time\n     */\n    function _getTokenAmount(uint256 weiAmount) internal view returns (uint256) {\n        uint256 currentRate = getCurrentRate();\n        return currentRate.mul(weiAmount);\n    }\n\n    uint256[50] private ______gap;\n}\n",
  "sourcePath": "/home/frangio/zs/oz/eth/contracts/crowdsale/price/IncreasingPriceCrowdsale.sol",
  "compiler": {
    "name": "solc",
    "version": "0.5.2+commit.1df8f40c.Emscripten.clang"
  },
  "schemaVersion": "3.0.0",
  "updatedAt": "2019-06-10T23:33:49.218Z",
  "devdoc": {
    "details": "Extension of Crowdsale contract that increases the price of tokens linearly in time. Note that what should be provided to the constructor is the initial and final _rates_, that is, the amount of tokens per wei contributed. Thus, the initial rate must be greater than the final rate.",
    "methods": {
      "buyTokens(address)": {
        "details": "low level token purchase ***DO NOT OVERRIDE*** This function has a non-reentrancy guard, so it shouldn't be called by another `nonReentrant` function.",
        "params": {
          "beneficiary": "Recipient of the token purchase"
        }
      },
      "closingTime()": {
        "return": "the crowdsale closing time."
      },
      "finalRate()": {
        "return": "the final rate of the crowdsale."
      },
      "getCurrentRate()": {
        "details": "Returns the rate of tokens per wei at the present time. Note that, as price _increases_ with time, the rate _decreases_.",
        "return": "The number of tokens a buyer gets per wei at a given time"
      },
      "hasClosed()": {
        "details": "Checks whether the period in which the crowdsale is open has already elapsed.",
        "return": "Whether crowdsale period has elapsed"
      },
      "initialRate()": {
        "return": "the initial rate of the crowdsale."
      },
      "initialize(uint256,address,address)": {
        "details": "The rate is the conversion between wei and the smallest and indivisible token unit. So, if you are using a rate of 1 with a ERC20Detailed token with 3 decimals called TOK, 1 wei will give you 1 unit, or 0.001 TOK.",
        "params": {
          "rate": "Number of token units a buyer gets per wei",
          "token": "Address of the token being sold",
          "wallet": "Address where collected funds will be forwarded to"
        }
      },
      "initialize(uint256,uint256)": {
        "details": "Constructor, takes initial and final rates of tokens received per wei contributed.",
        "params": {
          "finalRate": "Number of tokens a buyer gets per wei at the end of the crowdsale",
          "initialRate": "Number of tokens a buyer gets per wei at the start of the crowdsale"
        }
      },
      "isOpen()": {
        "return": "true if the crowdsale is open, false otherwise."
      },
      "openingTime()": {
        "return": "the crowdsale opening time."
      },
      "token()": {
        "return": "the token being sold."
      },
      "wallet()": {
        "return": "the address where funds are collected."
      },
      "weiRaised()": {
        "return": "the amount of wei raised."
      }
    },
    "title": "IncreasingPriceCrowdsale"
  },
  "userdoc": {
    "methods": {
      "rate()": {
        "notice": "The base rate function is overridden to revert, since this crowdsale doesn't use it, and all calls to it are a mistake."
      }
    }
  }
}