{
  "contractName": "PaymentSplitter",
  "abi": [
    {
      "payable": true,
      "stateMutability": "payable",
      "type": "fallback"
    },
    {
      "anonymous": false,
      "inputs": [
        {
          "indexed": false,
          "name": "account",
          "type": "address"
        },
        {
          "indexed": false,
          "name": "shares",
          "type": "uint256"
        }
      ],
      "name": "PayeeAdded",
      "type": "event"
    },
    {
      "anonymous": false,
      "inputs": [
        {
          "indexed": false,
          "name": "to",
          "type": "address"
        },
        {
          "indexed": false,
          "name": "amount",
          "type": "uint256"
        }
      ],
      "name": "PaymentReleased",
      "type": "event"
    },
    {
      "anonymous": false,
      "inputs": [
        {
          "indexed": false,
          "name": "from",
          "type": "address"
        },
        {
          "indexed": false,
          "name": "amount",
          "type": "uint256"
        }
      ],
      "name": "PaymentReceived",
      "type": "event"
    },
    {
      "constant": false,
      "inputs": [
        {
          "name": "payees",
          "type": "address[]"
        },
        {
          "name": "shares",
          "type": "uint256[]"
        }
      ],
      "name": "initialize",
      "outputs": [],
      "payable": true,
      "stateMutability": "payable",
      "type": "function"
    },
    {
      "constant": true,
      "inputs": [],
      "name": "totalShares",
      "outputs": [
        {
          "name": "",
          "type": "uint256"
        }
      ],
      "payable": false,
      "stateMutability": "view",
      "type": "function"
    },
    {
      "constant": true,
      "inputs": [],
      "name": "totalReleased",
      "outputs": [
        {
          "name": "",
          "type": "uint256"
        }
      ],
      "payable": false,
      "stateMutability": "view",
      "type": "function"
    },
    {
      "constant": true,
      "inputs": [
        {
          "name": "account",
          "type": "address"
        }
      ],
      "name": "shares",
      "outputs": [
        {
          "name": "",
          "type": "uint256"
        }
      ],
      "payable": false,
      "stateMutability": "view",
      "type": "function"
    },
    {
      "constant": true,
      "inputs": [
        {
          "name": "account",
          "type": "address"
        }
      ],
      "name": "released",
      "outputs": [
        {
          "name": "",
          "type": "uint256"
        }
      ],
      "payable": false,
      "stateMutability": "view",
      "type": "function"
    },
    {
      "constant": true,
      "inputs": [
        {
          "name": "index",
          "type": "uint256"
        }
      ],
      "name": "payee",
      "outputs": [
        {
          "name": "",
          "type": "address"
        }
      ],
      "payable": false,
      "stateMutability": "view",
      "type": "function"
    },
    {
      "constant": false,
      "inputs": [
        {
          "name": "account",
          "type": "address"
        }
      ],
      "name": "release",
      "outputs": [],
      "payable": false,
      "stateMutability": "nonpayable",
      "type": "function"
    }
  ],
  "bytecode": "0x608060405234801561001057600080fd5b50610c17806100206000396000f3fe60806040526004361061008d576000357c0100000000000000000000000000000000000000000000000000000000900480638b83209b1161006b5780638b83209b146102c25780639852595c1461033d578063ce7c2ac2146103a2578063e33b7de3146104075761008d565b806319165587146100fa5780633a98ef391461014b5780637fbbe46f14610176575b7f6ef95f06320e7a25a04a175ca677b7052bdd97131872c2192525a629f51be7703334604051808373ffffffffffffffffffffffffffffffffffffffff1673ffffffffffffffffffffffffffffffffffffffff1681526020018281526020019250505060405180910390a1005b34801561010657600080fd5b506101496004803603602081101561011d57600080fd5b81019080803573ffffffffffffffffffffffffffffffffffffffff169060200190929190505050610432565b005b34801561015757600080fd5b506101606106e2565b6040518082815260200191505060405180910390f35b6102c06004803603604081101561018c57600080fd5b81019080803590602001906401000000008111156101a957600080fd5b8201836020820111156101bb57600080fd5b803590602001918460208302840111640100000000831117156101dd57600080fd5b919080806020026020016040519081016040528093929190818152602001838360200280828437600081840152601f19601f8201169050808301925050505050505091929192908035906020019064010000000081111561023d57600080fd5b82018360208201111561024f57600080fd5b8035906020019184602083028401116401000000008311171561027157600080fd5b919080806020026020016040519081016040528093929190818152602001838360200280828437600081840152601f19601f8201169050808301925050505050505091929192905050506106ec565b005b3480156102ce57600080fd5b506102fb600480360360208110156102e557600080fd5b8101908080359060200190929190505050610855565b604051808273ffffffffffffffffffffffffffffffffffffffff1673ffffffffffffffffffffffffffffffffffffffff16815260200191505060405180910390f35b34801561034957600080fd5b5061038c6004803603602081101561036057600080fd5b81019080803573ffffffffffffffffffffffffffffffffffffffff169060200190929190505050610898565b6040518082815260200191505060405180910390f35b3480156103ae57600080fd5b506103f1600480360360208110156103c557600080fd5b81019080803573ffffffffffffffffffffffffffffffffffffffff1690602001909291905050506108e1565b6040518082815260200191505060405180910390f35b34801561041357600080fd5b5061041c61092a565b6040518082815260200191505060405180910390f35b6000603560008373ffffffffffffffffffffffffffffffffffffffff1673ffffffffffffffffffffffffffffffffffffffff1681526020019081526020016000205411151561048057600080fd5b60006104ae6034543073ffffffffffffffffffffffffffffffffffffffff163161093490919063ffffffff16565b90506000610569603660008573ffffffffffffffffffffffffffffffffffffffff1673ffffffffffffffffffffffffffffffffffffffff1681526020019081526020016000205461055b60335461054d603560008973ffffffffffffffffffffffffffffffffffffffff1673ffffffffffffffffffffffffffffffffffffffff168152602001908152602001600020548761095590919063ffffffff16565b61099390919063ffffffff16565b6109bd90919063ffffffff16565b90506000811415151561057b57600080fd5b6105cd81603660008673ffffffffffffffffffffffffffffffffffffffff1673ffffffffffffffffffffffffffffffffffffffff1681526020019081526020016000205461093490919063ffffffff16565b603660008573ffffffffffffffffffffffffffffffffffffffff1673ffffffffffffffffffffffffffffffffffffffff168152602001908152602001600020819055506106258160345461093490919063ffffffff16565b6034819055508273ffffffffffffffffffffffffffffffffffffffff166108fc829081150290604051600060405180830381858888f19350505050158015610671573d6000803e3d6000fd5b507fdf20fd1e76bc69d672e4814fafb2c449bba3a5369d8359adf9e05e6fde87b0568382604051808373ffffffffffffffffffffffffffffffffffffffff1673ffffffffffffffffffffffffffffffffffffffff1681526020018281526020019250505060405180910390a1505050565b6000603354905090565b600060019054906101000a900460ff168061070b575061070a6109df565b5b8061072257506000809054906101000a900460ff16155b1515610779576040517f08c379a000000000000000000000000000000000000000000000000000000000815260040180806020018281038252602e815260200180610bbe602e913960400191505060405180910390fd5b60008060019054906101000a900460ff1690506001600060016101000a81548160ff02191690831515021790555060016000806101000a81548160ff021916908315150217905550815183511415156107d157600080fd5b600083511115156107e157600080fd5b60008090505b835181101561083557610828848281518110151561080157fe5b90602001906020020151848381518110151561081957fe5b906020019060200201516109f0565b80806001019150506107e7565b5080600060016101000a81548160ff021916908315150217905550505050565b600060378281548110151561086657fe5b9060005260206000200160009054906101000a900473ffffffffffffffffffffffffffffffffffffffff169050919050565b6000603660008373ffffffffffffffffffffffffffffffffffffffff1673ffffffffffffffffffffffffffffffffffffffff168152602001908152602001600020549050919050565b6000603560008373ffffffffffffffffffffffffffffffffffffffff1673ffffffffffffffffffffffffffffffffffffffff168152602001908152602001600020549050919050565b6000603454905090565b600080828401905083811015151561094b57600080fd5b8091505092915050565b600080831415610968576000905061098d565b6000828402905082848281151561097b57fe5b0414151561098857600080fd5b809150505b92915050565b600080821115156109a357600080fd5b600082848115156109b057fe5b0490508091505092915050565b60008282111515156109ce57600080fd5b600082840390508091505092915050565b600080303b90506000811491505090565b600073ffffffffffffffffffffffffffffffffffffffff168273ffffffffffffffffffffffffffffffffffffffff1614151515610a2c57600080fd5b600081111515610a3b57600080fd5b6000603560008473ffffffffffffffffffffffffffffffffffffffff1673ffffffffffffffffffffffffffffffffffffffff16815260200190815260200160002054141515610a8957600080fd5b60378290806001815401808255809150509060018203906000526020600020016000909192909190916101000a81548173ffffffffffffffffffffffffffffffffffffffff021916908373ffffffffffffffffffffffffffffffffffffffff1602179055505080603560008473ffffffffffffffffffffffffffffffffffffffff1673ffffffffffffffffffffffffffffffffffffffff16815260200190815260200160002081905550610b488160335461093490919063ffffffff16565b6033819055507f40c340f65e17194d14ddddb073d3c9f888e3cb52b5aae0c6c7706b4fbc905fac8282604051808373ffffffffffffffffffffffffffffffffffffffff1673ffffffffffffffffffffffffffffffffffffffff1681526020018281526020019250505060405180910390a1505056fe436f6e747261637420696e7374616e63652068617320616c7265616479206265656e20696e697469616c697a6564a165627a7a72305820bf578973f769fc0610b34cd1eb3918a58f6529f8274dc2ce604cbaa8c9c329ae0029",
  "source": "pragma solidity ^0.5.2;\n\nimport \"zos-lib/contracts/Initializable.sol\";\n\nimport \"../math/SafeMath.sol\";\n\n/**\n * @title PaymentSplitter\n * @dev This contract can be used when payments need to be received by a group\n * of people and split proportionately to some number of shares they own.\n */\ncontract PaymentSplitter is Initializable {\n    using SafeMath for uint256;\n\n    event PayeeAdded(address account, uint256 shares);\n    event PaymentReleased(address to, uint256 amount);\n    event PaymentReceived(address from, uint256 amount);\n\n    uint256 private _totalShares;\n    uint256 private _totalReleased;\n\n    mapping(address => uint256) private _shares;\n    mapping(address => uint256) private _released;\n    address[] private _payees;\n\n    /**\n     * @dev Constructor\n     */\n    function initialize(address[] memory payees, uint256[] memory shares) public payable initializer {\n        require(payees.length == shares.length);\n        require(payees.length > 0);\n\n        for (uint256 i = 0; i < payees.length; i++) {\n            _addPayee(payees[i], shares[i]);\n        }\n    }\n\n    /**\n     * @dev payable fallback\n     */\n    function () external payable {\n        emit PaymentReceived(msg.sender, msg.value);\n    }\n\n    /**\n     * @return the total shares of the contract.\n     */\n    function totalShares() public view returns (uint256) {\n        return _totalShares;\n    }\n\n    /**\n     * @return the total amount already released.\n     */\n    function totalReleased() public view returns (uint256) {\n        return _totalReleased;\n    }\n\n    /**\n     * @return the shares of an account.\n     */\n    function shares(address account) public view returns (uint256) {\n        return _shares[account];\n    }\n\n    /**\n     * @return the amount already released to an account.\n     */\n    function released(address account) public view returns (uint256) {\n        return _released[account];\n    }\n\n    /**\n     * @return the address of a payee.\n     */\n    function payee(uint256 index) public view returns (address) {\n        return _payees[index];\n    }\n\n    /**\n     * @dev Release one of the payee's proportional payment.\n     * @param account Whose payments will be released.\n     */\n    function release(address payable account) public {\n        require(_shares[account] > 0);\n\n        uint256 totalReceived = address(this).balance.add(_totalReleased);\n        uint256 payment = totalReceived.mul(_shares[account]).div(_totalShares).sub(_released[account]);\n\n        require(payment != 0);\n\n        _released[account] = _released[account].add(payment);\n        _totalReleased = _totalReleased.add(payment);\n\n        account.transfer(payment);\n        emit PaymentReleased(account, payment);\n    }\n\n    /**\n     * @dev Add a new payee to the contract.\n     * @param account The address of the payee to add.\n     * @param shares_ The number of shares owned by the payee.\n     */\n    function _addPayee(address account, uint256 shares_) private {\n        require(account != address(0));\n        require(shares_ > 0);\n        require(_shares[account] == 0);\n\n        _payees.push(account);\n        _shares[account] = shares_;\n        _totalShares = _totalShares.add(shares_);\n        emit PayeeAdded(account, shares_);\n    }\n\n    uint256[50] private ______gap;\n}\n",
  "sourcePath": "/home/frangio/zs/oz/eth/contracts/payment/PaymentSplitter.sol",
  "compiler": {
    "name": "solc",
    "version": "0.5.2+commit.1df8f40c.Emscripten.clang"
  },
  "schemaVersion": "3.0.0",
  "updatedAt": "2019-06-10T23:33:49.234Z",
  "devdoc": {
    "details": "This contract can be used when payments need to be received by a group of people and split proportionately to some number of shares they own.",
    "methods": {
      "initialize(address[],uint256[])": {
        "details": "Constructor"
      },
      "payee(uint256)": {
        "return": "the address of a payee."
      },
      "release(address)": {
        "details": "Release one of the payee's proportional payment.",
        "params": {
          "account": "Whose payments will be released."
        }
      },
      "released(address)": {
        "return": "the amount already released to an account."
      },
      "shares(address)": {
        "return": "the shares of an account."
      },
      "totalReleased()": {
        "return": "the total amount already released."
      },
      "totalShares()": {
        "return": "the total shares of the contract."
      }
    },
    "title": "PaymentSplitter"
  },
  "userdoc": {
    "methods": {}
  }
}