{
  "contractName": "PullPayment",
  "abi": [
    {
      "constant": false,
      "inputs": [],
      "name": "initialize",
      "outputs": [],
      "payable": false,
      "stateMutability": "nonpayable",
      "type": "function"
    },
    {
      "constant": false,
      "inputs": [
        {
          "name": "payee",
          "type": "address"
        }
      ],
      "name": "withdrawPayments",
      "outputs": [],
      "payable": false,
      "stateMutability": "nonpayable",
      "type": "function"
    },
    {
      "constant": true,
      "inputs": [
        {
          "name": "dest",
          "type": "address"
        }
      ],
      "name": "payments",
      "outputs": [
        {
          "name": "",
          "type": "uint256"
        }
      ],
      "payable": false,
      "stateMutability": "view",
      "type": "function"
    }
  ],
  "bytecode": "0x608060405234801561001057600080fd5b50611044806100206000396000f3fe608060405234801561001057600080fd5b506004361061005e576000357c01000000000000000000000000000000000000000000000000000000009004806331b3eb94146100635780638129fc1c146100a7578063e2982c21146100b1575b600080fd5b6100a56004803603602081101561007957600080fd5b81019080803573ffffffffffffffffffffffffffffffffffffffff169060200190929190505050610109565b005b6100af6101e1565b005b6100f3600480360360208110156100c757600080fd5b81019080803573ffffffffffffffffffffffffffffffffffffffff169060200190929190505050610465565b6040518082815260200191505060405180910390f35b603360009054906101000a900473ffffffffffffffffffffffffffffffffffffffff1673ffffffffffffffffffffffffffffffffffffffff166351cff8d9826040518263ffffffff167c0100000000000000000000000000000000000000000000000000000000028152600401808273ffffffffffffffffffffffffffffffffffffffff1673ffffffffffffffffffffffffffffffffffffffff168152602001915050600060405180830381600087803b1580156101c657600080fd5b505af11580156101da573d6000803e3d6000fd5b5050505050565b600060019054906101000a900460ff168061020057506101ff610564565b5b8061021757506000809054906101000a900460ff16155b151561026e576040517f08c379a000000000000000000000000000000000000000000000000000000000815260040180806020018281038252602e815260200180610feb602e913960400191505060405180910390fd5b60008060019054906101000a900460ff1690506001600060016101000a81548160ff02191690831515021790555060016000806101000a81548160ff021916908315150217905550600073ffffffffffffffffffffffffffffffffffffffff16603360009054906101000a900473ffffffffffffffffffffffffffffffffffffffff1673ffffffffffffffffffffffffffffffffffffffff16141561044857610315610575565b604051809103906000f080158015610331573d6000803e3d6000fd5b50603360006101000a81548173ffffffffffffffffffffffffffffffffffffffff021916908373ffffffffffffffffffffffffffffffffffffffff160217905550603360009054906101000a900473ffffffffffffffffffffffffffffffffffffffff1673ffffffffffffffffffffffffffffffffffffffff1663c4d66de8306040518263ffffffff167c0100000000000000000000000000000000000000000000000000000000028152600401808273ffffffffffffffffffffffffffffffffffffffff1673ffffffffffffffffffffffffffffffffffffffff168152602001915050600060405180830381600087803b15801561042f57600080fd5b505af1158015610443573d6000803e3d6000fd5b505050505b80600060016101000a81548160ff02191690831515021790555050565b6000603360009054906101000a900473ffffffffffffffffffffffffffffffffffffffff1673ffffffffffffffffffffffffffffffffffffffff1663e3a9db1a836040518263ffffffff167c0100000000000000000000000000000000000000000000000000000000028152600401808273ffffffffffffffffffffffffffffffffffffffff1673ffffffffffffffffffffffffffffffffffffffff16815260200191505060206040518083038186803b15801561052257600080fd5b505afa158015610536573d6000803e3d6000fd5b505050506040513d602081101561054c57600080fd5b81019080805190602001909291905050509050919050565b600080303b90506000811491505090565b604051610a65806105868339019056fe608060405234801561001057600080fd5b50610a45806100206000396000f3fe608060405260043610610072576000357c0100000000000000000000000000000000000000000000000000000000900480632348238c1461007757806351cff8d9146100c8578063c4d66de814610119578063c6dbdf611461016a578063e3a9db1a146101c1578063f340fa0114610226575b600080fd5b34801561008357600080fd5b506100c66004803603602081101561009a57600080fd5b81019080803573ffffffffffffffffffffffffffffffffffffffff16906020019092919050505061026a565b005b3480156100d457600080fd5b50610117600480360360208110156100eb57600080fd5b81019080803573ffffffffffffffffffffffffffffffffffffffff1690602001909291905050506103cb565b005b34801561012557600080fd5b506101686004803603602081101561013c57600080fd5b81019080803573ffffffffffffffffffffffffffffffffffffffff169060200190929190505050610549565b005b34801561017657600080fd5b5061017f610645565b604051808273ffffffffffffffffffffffffffffffffffffffff1673ffffffffffffffffffffffffffffffffffffffff16815260200191505060405180910390f35b3480156101cd57600080fd5b50610210600480360360208110156101e457600080fd5b81019080803573ffffffffffffffffffffffffffffffffffffffff16906020019092919050505061066f565b6040518082815260200191505060405180910390f35b6102686004803603602081101561023c57600080fd5b81019080803573ffffffffffffffffffffffffffffffffffffffff1690602001909291905050506106b8565b005b603360009054906101000a900473ffffffffffffffffffffffffffffffffffffffff1673ffffffffffffffffffffffffffffffffffffffff163373ffffffffffffffffffffffffffffffffffffffff161415156102c657600080fd5b600073ffffffffffffffffffffffffffffffffffffffff168173ffffffffffffffffffffffffffffffffffffffff161415151561030257600080fd5b80603360006101000a81548173ffffffffffffffffffffffffffffffffffffffff021916908373ffffffffffffffffffffffffffffffffffffffff1602179055507f4101e71e974f68df5e9730cc223280b41654676bbb052cdcc735c3337e64d2d9603360009054906101000a900473ffffffffffffffffffffffffffffffffffffffff16604051808273ffffffffffffffffffffffffffffffffffffffff1673ffffffffffffffffffffffffffffffffffffffff16815260200191505060405180910390a150565b603360009054906101000a900473ffffffffffffffffffffffffffffffffffffffff1673ffffffffffffffffffffffffffffffffffffffff163373ffffffffffffffffffffffffffffffffffffffff1614151561042757600080fd5b6000606660008373ffffffffffffffffffffffffffffffffffffffff1673ffffffffffffffffffffffffffffffffffffffff1681526020019081526020016000205490506000606660008473ffffffffffffffffffffffffffffffffffffffff1673ffffffffffffffffffffffffffffffffffffffff168152602001908152602001600020819055508173ffffffffffffffffffffffffffffffffffffffff166108fc829081150290604051600060405180830381858888f193505050501580156104f6573d6000803e3d6000fd5b508173ffffffffffffffffffffffffffffffffffffffff167f7084f5476618d8e60b11ef0d7d3f06914655adb8793e28ff7f018d4c76d505d5826040518082815260200191505060405180910390a25050565b600060019054906101000a900460ff16806105685750610567610800565b5b8061057f57506000809054906101000a900460ff16155b15156105d6576040517f08c379a000000000000000000000000000000000000000000000000000000000815260040180806020018281038252602e8152602001806109ec602e913960400191505060405180910390fd5b60008060019054906101000a900460ff1690506001600060016101000a81548160ff02191690831515021790555060016000806101000a81548160ff02191690831515021790555061062782610811565b80600060016101000a81548160ff0219169083151502179055505050565b6000603360009054906101000a900473ffffffffffffffffffffffffffffffffffffffff16905090565b6000606660008373ffffffffffffffffffffffffffffffffffffffff1673ffffffffffffffffffffffffffffffffffffffff168152602001908152602001600020549050919050565b603360009054906101000a900473ffffffffffffffffffffffffffffffffffffffff1673ffffffffffffffffffffffffffffffffffffffff163373ffffffffffffffffffffffffffffffffffffffff1614151561071457600080fd5b600034905061076b81606660008573ffffffffffffffffffffffffffffffffffffffff1673ffffffffffffffffffffffffffffffffffffffff168152602001908152602001600020546109ca90919063ffffffff16565b606660008473ffffffffffffffffffffffffffffffffffffffff1673ffffffffffffffffffffffffffffffffffffffff168152602001908152602001600020819055508173ffffffffffffffffffffffffffffffffffffffff167f2da466a7b24304f47e87fa2e1e5a81b9831ce54fec19055ce277ca2f39ba42c4826040518082815260200191505060405180910390a25050565b600080303b90506000811491505090565b600060019054906101000a900460ff1680610830575061082f610800565b5b8061084757506000809054906101000a900460ff16155b151561089e576040517f08c379a000000000000000000000000000000000000000000000000000000000815260040180806020018281038252602e8152602001806109ec602e913960400191505060405180910390fd5b60008060019054906101000a900460ff1690506001600060016101000a81548160ff02191690831515021790555060016000806101000a81548160ff02191690831515021790555081603360006101000a81548173ffffffffffffffffffffffffffffffffffffffff021916908373ffffffffffffffffffffffffffffffffffffffff1602179055507f4101e71e974f68df5e9730cc223280b41654676bbb052cdcc735c3337e64d2d9603360009054906101000a900473ffffffffffffffffffffffffffffffffffffffff16604051808273ffffffffffffffffffffffffffffffffffffffff1673ffffffffffffffffffffffffffffffffffffffff16815260200191505060405180910390a180600060016101000a81548160ff0219169083151502179055505050565b60008082840190508381101515156109e157600080fd5b809150509291505056fe436f6e747261637420696e7374616e63652068617320616c7265616479206265656e20696e697469616c697a6564a165627a7a72305820afd68ab76cfd4b586cc3f914eac9bb828298fe34e0767c761b2b667b694edf270029436f6e747261637420696e7374616e63652068617320616c7265616479206265656e20696e697469616c697a6564a165627a7a723058207f9976033188b9dc54e5545cb381e088b409f0bdbc1269e2d5307f77a9ad240f0029",
  "source": "pragma solidity ^0.5.2;\n\nimport \"zos-lib/contracts/Initializable.sol\";\n\nimport \"./escrow/Escrow.sol\";\n\n/**\n * @title PullPayment\n * @dev Base contract supporting async send for pull payments. Inherit from this\n * contract and use _asyncTransfer instead of send or transfer.\n */\ncontract PullPayment is Initializable {\n    Escrow private _escrow;\n\n    function initialize() public initializer {\n        // conditional added to make initializer idempotent in case of diamond inheritance\n        if (address(_escrow) == address(0)) {\n            _escrow = new Escrow();\n            _escrow.initialize(address(this));\n        }\n    }\n\n    /**\n     * @dev Withdraw accumulated balance.\n     * @param payee Whose balance will be withdrawn.\n     */\n    function withdrawPayments(address payable payee) public {\n        _escrow.withdraw(payee);\n    }\n\n    /**\n     * @dev Returns the credit owed to an address.\n     * @param dest The creditor's address.\n     */\n    function payments(address dest) public view returns (uint256) {\n        return _escrow.depositsOf(dest);\n    }\n\n    /**\n     * @dev Called by the payer to store the sent amount as credit to be pulled.\n     * @param dest The destination address of the funds.\n     * @param amount The amount to transfer.\n     */\n    function _asyncTransfer(address dest, uint256 amount) internal {\n        _escrow.deposit.value(amount)(dest);\n    }\n\n    uint256[50] private ______gap;\n}\n",
  "sourcePath": "/home/frangio/zs/oz/eth/contracts/payment/PullPayment.sol",
  "compiler": {
    "name": "solc",
    "version": "0.5.2+commit.1df8f40c.Emscripten.clang"
  },
  "schemaVersion": "3.0.0",
  "updatedAt": "2019-06-10T23:33:49.233Z",
  "devdoc": {
    "details": "Base contract supporting async send for pull payments. Inherit from this contract and use _asyncTransfer instead of send or transfer.",
    "methods": {
      "payments(address)": {
        "details": "Returns the credit owed to an address.",
        "params": {
          "dest": "The creditor's address."
        }
      },
      "withdrawPayments(address)": {
        "details": "Withdraw accumulated balance.",
        "params": {
          "payee": "Whose balance will be withdrawn."
        }
      }
    },
    "title": "PullPayment"
  },
  "userdoc": {
    "methods": {}
  }
}