{
  "contractName": "RefundablePostDeliveryCrowdsale",
  "abi": [
    {
      "constant": true,
      "inputs": [],
      "name": "hasClosed",
      "outputs": [
        {
          "name": "",
          "type": "bool"
        }
      ],
      "payable": false,
      "stateMutability": "view",
      "type": "function"
    },
    {
      "constant": true,
      "inputs": [],
      "name": "rate",
      "outputs": [
        {
          "name": "",
          "type": "uint256"
        }
      ],
      "payable": false,
      "stateMutability": "view",
      "type": "function"
    },
    {
      "constant": true,
      "inputs": [],
      "name": "goal",
      "outputs": [
        {
          "name": "",
          "type": "uint256"
        }
      ],
      "payable": false,
      "stateMutability": "view",
      "type": "function"
    },
    {
      "constant": true,
      "inputs": [],
      "name": "weiRaised",
      "outputs": [
        {
          "name": "",
          "type": "uint256"
        }
      ],
      "payable": false,
      "stateMutability": "view",
      "type": "function"
    },
    {
      "constant": true,
      "inputs": [],
      "name": "isOpen",
      "outputs": [
        {
          "name": "",
          "type": "bool"
        }
      ],
      "payable": false,
      "stateMutability": "view",
      "type": "function"
    },
    {
      "constant": true,
      "inputs": [],
      "name": "closingTime",
      "outputs": [
        {
          "name": "",
          "type": "uint256"
        }
      ],
      "payable": false,
      "stateMutability": "view",
      "type": "function"
    },
    {
      "constant": false,
      "inputs": [],
      "name": "finalize",
      "outputs": [],
      "payable": false,
      "stateMutability": "nonpayable",
      "type": "function"
    },
    {
      "constant": true,
      "inputs": [],
      "name": "wallet",
      "outputs": [
        {
          "name": "",
          "type": "address"
        }
      ],
      "payable": false,
      "stateMutability": "view",
      "type": "function"
    },
    {
      "constant": true,
      "inputs": [
        {
          "name": "account",
          "type": "address"
        }
      ],
      "name": "balanceOf",
      "outputs": [
        {
          "name": "",
          "type": "uint256"
        }
      ],
      "payable": false,
      "stateMutability": "view",
      "type": "function"
    },
    {
      "constant": true,
      "inputs": [],
      "name": "goalReached",
      "outputs": [
        {
          "name": "",
          "type": "bool"
        }
      ],
      "payable": false,
      "stateMutability": "view",
      "type": "function"
    },
    {
      "constant": false,
      "inputs": [],
      "name": "initialize",
      "outputs": [],
      "payable": false,
      "stateMutability": "nonpayable",
      "type": "function"
    },
    {
      "constant": true,
      "inputs": [],
      "name": "finalized",
      "outputs": [
        {
          "name": "",
          "type": "bool"
        }
      ],
      "payable": false,
      "stateMutability": "view",
      "type": "function"
    },
    {
      "constant": false,
      "inputs": [
        {
          "name": "rate",
          "type": "uint256"
        },
        {
          "name": "wallet",
          "type": "address"
        },
        {
          "name": "token",
          "type": "address"
        }
      ],
      "name": "initialize",
      "outputs": [],
      "payable": false,
      "stateMutability": "nonpayable",
      "type": "function"
    },
    {
      "constant": true,
      "inputs": [],
      "name": "openingTime",
      "outputs": [
        {
          "name": "",
          "type": "uint256"
        }
      ],
      "payable": false,
      "stateMutability": "view",
      "type": "function"
    },
    {
      "constant": false,
      "inputs": [
        {
          "name": "refundee",
          "type": "address"
        }
      ],
      "name": "claimRefund",
      "outputs": [],
      "payable": false,
      "stateMutability": "nonpayable",
      "type": "function"
    },
    {
      "constant": false,
      "inputs": [
        {
          "name": "openingTime",
          "type": "uint256"
        },
        {
          "name": "closingTime",
          "type": "uint256"
        }
      ],
      "name": "initialize",
      "outputs": [],
      "payable": false,
      "stateMutability": "nonpayable",
      "type": "function"
    },
    {
      "constant": false,
      "inputs": [
        {
          "name": "beneficiary",
          "type": "address"
        }
      ],
      "name": "buyTokens",
      "outputs": [],
      "payable": true,
      "stateMutability": "payable",
      "type": "function"
    },
    {
      "constant": true,
      "inputs": [],
      "name": "token",
      "outputs": [
        {
          "name": "",
          "type": "address"
        }
      ],
      "payable": false,
      "stateMutability": "view",
      "type": "function"
    },
    {
      "constant": false,
      "inputs": [
        {
          "name": "goal",
          "type": "uint256"
        }
      ],
      "name": "initialize",
      "outputs": [],
      "payable": false,
      "stateMutability": "nonpayable",
      "type": "function"
    },
    {
      "payable": true,
      "stateMutability": "payable",
      "type": "fallback"
    },
    {
      "anonymous": false,
      "inputs": [],
      "name": "CrowdsaleFinalized",
      "type": "event"
    },
    {
      "anonymous": false,
      "inputs": [
        {
          "indexed": false,
          "name": "prevClosingTime",
          "type": "uint256"
        },
        {
          "indexed": false,
          "name": "newClosingTime",
          "type": "uint256"
        }
      ],
      "name": "TimedCrowdsaleExtended",
      "type": "event"
    },
    {
      "anonymous": false,
      "inputs": [
        {
          "indexed": true,
          "name": "purchaser",
          "type": "address"
        },
        {
          "indexed": true,
          "name": "beneficiary",
          "type": "address"
        },
        {
          "indexed": false,
          "name": "value",
          "type": "uint256"
        },
        {
          "indexed": false,
          "name": "amount",
          "type": "uint256"
        }
      ],
      "name": "TokensPurchased",
      "type": "event"
    },
    {
      "constant": false,
      "inputs": [
        {
          "name": "beneficiary",
          "type": "address"
        }
      ],
      "name": "withdrawTokens",
      "outputs": [],
      "payable": false,
      "stateMutability": "nonpayable",
      "type": "function"
    }
  ],
  "bytecode": "0x608060405234801561001057600080fd5b50612c47806100206000396000f3fe60806040526004361061013c576000357c0100000000000000000000000000000000000000000000000000000000900480637d3d6522116100bd578063bffa55d511610081578063bffa55d514610490578063e4a30116146104e1578063ec8ac4d814610526578063fc0c546a1461056a578063fe4b84df146105c15761013c565b80637d3d6522146103755780638129fc1c146103a4578063b3f05b97146103bb578063b4988fd0146103ea578063b7a8807c146104655761013c565b806349df728c1161010457806349df728c146102265780634b6753bc146102775780634bb278f3146102a2578063521eb273146102b957806370a08231146103105761013c565b80631515bc2b146101475780632c4e722e1461017657806340193883146101a15780634042b66f146101cc57806347535d7b146101f7575b610145336105fc565b005b34801561015357600080fd5b5061015c6106f4565b604051808215151515815260200191505060405180910390f35b34801561018257600080fd5b5061018b610700565b6040518082815260200191505060405180910390f35b3480156101ad57600080fd5b506101b661070a565b6040518082815260200191505060405180910390f35b3480156101d857600080fd5b506101e1610715565b6040518082815260200191505060405180910390f35b34801561020357600080fd5b5061020c61071f565b604051808215151515815260200191505060405180910390f35b34801561023257600080fd5b506102756004803603602081101561024957600080fd5b81019080803573ffffffffffffffffffffffffffffffffffffffff16906020019092919050505061073a565b005b34801561028357600080fd5b5061028c61076c565b6040518082815260200191505060405180910390f35b3480156102ae57600080fd5b506102b7610776565b005b3480156102c557600080fd5b506102ce6107f6565b604051808273ffffffffffffffffffffffffffffffffffffffff1673ffffffffffffffffffffffffffffffffffffffff16815260200191505060405180910390f35b34801561031c57600080fd5b5061035f6004803603602081101561033357600080fd5b81019080803573ffffffffffffffffffffffffffffffffffffffff169060200190929190505050610820565b6040518082815260200191505060405180910390f35b34801561038157600080fd5b5061038a61086a565b604051808215151515815260200191505060405180910390f35b3480156103b057600080fd5b506103b961087f565b005b3480156103c757600080fd5b506103d0610979565b604051808215151515815260200191505060405180910390f35b3480156103f657600080fd5b506104636004803603606081101561040d57600080fd5b8101908080359060200190929190803573ffffffffffffffffffffffffffffffffffffffff169060200190929190803573ffffffffffffffffffffffffffffffffffffffff169060200190929190505050610990565b005b34801561047157600080fd5b5061047a610b95565b6040518082815260200191505060405180910390f35b34801561049c57600080fd5b506104df600480360360208110156104b357600080fd5b81019080803573ffffffffffffffffffffffffffffffffffffffff169060200190929190505050610b9f565b005b3480156104ed57600080fd5b506105246004803603604081101561050457600080fd5b810190808035906020019092919080359060200190929190505050610c9f565b005b6105686004803603602081101561053c57600080fd5b81019080803573ffffffffffffffffffffffffffffffffffffffff1690602001909291905050506105fc565b005b34801561057657600080fd5b5061057f610dce565b604051808273ffffffffffffffffffffffffffffffffffffffff1673ffffffffffffffffffffffffffffffffffffffff16815260200191505060405180910390f35b3480156105cd57600080fd5b506105fa600480360360208110156105e457600080fd5b8101908080359060200190929190505050610df8565b005b600160336000828254019250508190555060006033549050600034905061062383826110e2565b600061062e82611103565b90506106458260695461112190919063ffffffff16565b6069819055506106558482611142565b8373ffffffffffffffffffffffffffffffffffffffff163373ffffffffffffffffffffffffffffffffffffffff167f6faf93231a456e552dbc9961f58d9713ee4f2e69d15f1975b050ef0911053a7b8484604051808381526020018281526020019250505060405180910390a36106cc84836111dd565b6106d46111e1565b6106de84836112ba565b5050603354811415156106f057600080fd5b5050565b6000609d544211905090565b6000606854905090565b600061010354905090565b6000606954905090565b6000609c5442101580156107355750609d544211155b905090565b610742610979565b151561074d57600080fd5b61075561086a565b151561076057600080fd5b610769816112be565b50565b6000609d54905090565b60d060009054906101000a900460ff1615151561079257600080fd5b61079a6106f4565b15156107a557600080fd5b600160d060006101000a81548160ff0219169083151502179055506107c8611379565b7f9270cc390c096600a1c17c44345a1ba689fafd99d97487b10cfccf86cf73183660405160405180910390a1565b6000606760009054906101000a900473ffffffffffffffffffffffffffffffffffffffff16905090565b600061013760008373ffffffffffffffffffffffffffffffffffffffff1673ffffffffffffffffffffffffffffffffffffffff168152602001908152602001600020549050919050565b600061010354610878610715565b1015905090565b600060019054906101000a900460ff168061089e575061089d611573565b5b806108b557506000809054906101000a900460ff16155b151561090c576040517f08c379a000000000000000000000000000000000000000000000000000000000815260040180806020018281038252602e815260200180612bee602e913960400191505060405180910390fd5b60008060019054906101000a900460ff1690506001600060016101000a81548160ff02191690831515021790555060016000806101000a81548160ff021916908315150217905550600160338190555080600060016101000a81548160ff02191690831515021790555050565b600060d060009054906101000a900460ff16905090565b600060019054906101000a900460ff16806109af57506109ae611573565b5b806109c657506000809054906101000a900460ff16155b1515610a1d576040517f08c379a000000000000000000000000000000000000000000000000000000000815260040180806020018281038252602e815260200180612bee602e913960400191505060405180910390fd5b60008060019054906101000a900460ff1690506001600060016101000a81548160ff02191690831515021790555060016000806101000a81548160ff021916908315150217905550600084111515610a7457600080fd5b600073ffffffffffffffffffffffffffffffffffffffff168373ffffffffffffffffffffffffffffffffffffffff1614151515610ab057600080fd5b600073ffffffffffffffffffffffffffffffffffffffff168273ffffffffffffffffffffffffffffffffffffffff1614151515610aec57600080fd5b8360688190555082606760006101000a81548173ffffffffffffffffffffffffffffffffffffffff021916908373ffffffffffffffffffffffffffffffffffffffff16021790555081606660006101000a81548173ffffffffffffffffffffffffffffffffffffffff021916908373ffffffffffffffffffffffffffffffffffffffff16021790555080600060016101000a81548160ff02191690831515021790555050505050565b6000609c54905090565b610ba7610979565b1515610bb257600080fd5b610bba61086a565b151515610bc657600080fd5b61010460009054906101000a900473ffffffffffffffffffffffffffffffffffffffff1673ffffffffffffffffffffffffffffffffffffffff166351cff8d9826040518263ffffffff167c0100000000000000000000000000000000000000000000000000000000028152600401808273ffffffffffffffffffffffffffffffffffffffff1673ffffffffffffffffffffffffffffffffffffffff168152602001915050600060405180830381600087803b158015610c8457600080fd5b505af1158015610c98573d6000803e3d6000fd5b5050505050565b600060019054906101000a900460ff1680610cbe5750610cbd611573565b5b80610cd557506000809054906101000a900460ff16155b1515610d2c576040517f08c379a000000000000000000000000000000000000000000000000000000000815260040180806020018281038252602e815260200180612bee602e913960400191505060405180910390fd5b60008060019054906101000a900460ff1690506001600060016101000a81548160ff02191690831515021790555060016000806101000a81548160ff021916908315150217905550610d7c611584565b1515610d8457fe5b428310151515610d9357600080fd5b8282111515610da157600080fd5b82609c8190555081609d8190555080600060016101000a81548160ff021916908315150217905550505050565b6000606660009054906101000a900473ffffffffffffffffffffffffffffffffffffffff16905090565b600060019054906101000a900460ff1680610e175750610e16611573565b5b80610e2e57506000809054906101000a900460ff16155b1515610e85576040517f08c379a000000000000000000000000000000000000000000000000000000000815260040180806020018281038252602e815260200180612bee602e913960400191505060405180910390fd5b60008060019054906101000a900460ff1690506001600060016101000a81548160ff02191690831515021790555060016000806101000a81548160ff021916908315150217905550610ed5611646565b1515610edd57fe5b600082111515610eec57600080fd5b600073ffffffffffffffffffffffffffffffffffffffff1661010460009054906101000a900473ffffffffffffffffffffffffffffffffffffffff1673ffffffffffffffffffffffffffffffffffffffff1614156110bc57610f4c611976565b604051809103906000f080158015610f68573d6000803e3d6000fd5b5061010460006101000a81548173ffffffffffffffffffffffffffffffffffffffff021916908373ffffffffffffffffffffffffffffffffffffffff16021790555061010460009054906101000a900473ffffffffffffffffffffffffffffffffffffffff1673ffffffffffffffffffffffffffffffffffffffff1663485cc955610ff16107f6565b306040518363ffffffff167c0100000000000000000000000000000000000000000000000000000000028152600401808373ffffffffffffffffffffffffffffffffffffffff1673ffffffffffffffffffffffffffffffffffffffff1681526020018273ffffffffffffffffffffffffffffffffffffffff1673ffffffffffffffffffffffffffffffffffffffff16815260200192505050600060405180830381600087803b1580156110a357600080fd5b505af11580156110b7573d6000803e3d6000fd5b505050505b816101038190555080600060016101000a81548160ff0219169083151502179055505050565b6110ea61071f565b15156110f557600080fd5b6110ff8282611660565b5050565b600061111a606854836116b090919063ffffffff16565b9050919050565b600080828401905083811015151561113857600080fd5b8091505092915050565b6111958161013760008573ffffffffffffffffffffffffffffffffffffffff1673ffffffffffffffffffffffffffffffffffffffff1681526020019081526020016000205461112190919063ffffffff16565b61013760008473ffffffffffffffffffffffffffffffffffffffff1673ffffffffffffffffffffffffffffffffffffffff168152602001908152602001600020819055505050565b5050565b61010460009054906101000a900473ffffffffffffffffffffffffffffffffffffffff1673ffffffffffffffffffffffffffffffffffffffff1663f340fa0134336040518363ffffffff167c0100000000000000000000000000000000000000000000000000000000028152600401808273ffffffffffffffffffffffffffffffffffffffff1673ffffffffffffffffffffffffffffffffffffffff1681526020019150506000604051808303818588803b15801561129f57600080fd5b505af11580156112b3573d6000803e3d6000fd5b5050505050565b5050565b6112c66106f4565b15156112d157600080fd5b600061013760008373ffffffffffffffffffffffffffffffffffffffff1673ffffffffffffffffffffffffffffffffffffffff16815260200190815260200160002054905060008111151561132557600080fd5b600061013760008473ffffffffffffffffffffffffffffffffffffffff1673ffffffffffffffffffffffffffffffffffffffff1681526020019081526020016000208190555061137582826116ee565b5050565b61138161086a565b156114c95761010460009054906101000a900473ffffffffffffffffffffffffffffffffffffffff1673ffffffffffffffffffffffffffffffffffffffff166343d726d66040518163ffffffff167c0100000000000000000000000000000000000000000000000000000000028152600401600060405180830381600087803b15801561140d57600080fd5b505af1158015611421573d6000803e3d6000fd5b5050505061010460009054906101000a900473ffffffffffffffffffffffffffffffffffffffff1673ffffffffffffffffffffffffffffffffffffffff16639af6549a6040518163ffffffff167c0100000000000000000000000000000000000000000000000000000000028152600401600060405180830381600087803b1580156114ac57600080fd5b505af11580156114c0573d6000803e3d6000fd5b50505050611569565b61010460009054906101000a900473ffffffffffffffffffffffffffffffffffffffff1673ffffffffffffffffffffffffffffffffffffffff16638c52dc416040518163ffffffff167c0100000000000000000000000000000000000000000000000000000000028152600401600060405180830381600087803b15801561155057600080fd5b505af1158015611564573d6000803e3d6000fd5b505050505b61157161173f565b565b600080303b90506000811491505090565b6000806068541180156115e65750600073ffffffffffffffffffffffffffffffffffffffff16606760009054906101000a900473ffffffffffffffffffffffffffffffffffffffff1673ffffffffffffffffffffffffffffffffffffffff1614155b80156116415750600073ffffffffffffffffffffffffffffffffffffffff16606660009054906101000a900473ffffffffffffffffffffffffffffffffffffffff1673ffffffffffffffffffffffffffffffffffffffff1614155b905090565b600080609c5411801561165b57506000609d54115b905090565b600073ffffffffffffffffffffffffffffffffffffffff168273ffffffffffffffffffffffffffffffffffffffff161415151561169c57600080fd5b600081141515156116ac57600080fd5b5050565b6000808314156116c357600090506116e8565b600082840290508284828115156116d657fe5b041415156116e357600080fd5b809150505b92915050565b61173b8282606660009054906101000a900473ffffffffffffffffffffffffffffffffffffffff1673ffffffffffffffffffffffffffffffffffffffff166117419092919063ffffffff16565b5050565b565b611829838473ffffffffffffffffffffffffffffffffffffffff1663a9059cbb90507c0100000000000000000000000000000000000000000000000000000000028484604051602401808373ffffffffffffffffffffffffffffffffffffffff1673ffffffffffffffffffffffffffffffffffffffff16815260200182815260200192505050604051602081830303815290604052907bffffffffffffffffffffffffffffffffffffffffffffffffffffffff19166020820180517bffffffffffffffffffffffffffffffffffffffffffffffffffffffff838183161783525050505061182e565b505050565b61184d8273ffffffffffffffffffffffffffffffffffffffff16611963565b151561185857600080fd5b600060608373ffffffffffffffffffffffffffffffffffffffff16836040518082805190602001908083835b6020831015156118a95780518252602082019150602081019050602083039250611884565b6001836020036101000a0380198251168184511680821785525050505050509050019150506000604051808303816000865af19150503d806000811461190b576040519150601f19603f3d011682016040523d82523d6000602084013e611910565b606091505b509150915081151561192157600080fd5b60008151111561195d5780806020019051602081101561194057600080fd5b8101908080519060200190929190505050151561195c57600080fd5b5b50505050565b600080823b905060008111915050919050565b604051611267806119878339019056fe608060405234801561001057600080fd5b50611247806100206000396000f3fe6080604052600436106100df576000357c0100000000000000000000000000000000000000000000000000000000900480638c52dc411161009c578063c4d66de811610076578063c4d66de814610335578063c6dbdf6114610386578063e3a9db1a146103dd578063f340fa0114610442576100df565b80638c52dc41146102ce5780639af6549a146102e5578063c19d93fb146102fc576100df565b80632348238c146100e457806338af3eed1461013557806343d726d61461018c578063485cc955146101a357806351cff8d914610214578063685ca19414610265575b600080fd5b3480156100f057600080fd5b506101336004803603602081101561010757600080fd5b81019080803573ffffffffffffffffffffffffffffffffffffffff169060200190929190505050610486565b005b34801561014157600080fd5b5061014a6105e7565b604051808273ffffffffffffffffffffffffffffffffffffffff1673ffffffffffffffffffffffffffffffffffffffff16815260200191505060405180910390f35b34801561019857600080fd5b506101a1610611565b005b3480156101af57600080fd5b50610212600480360360408110156101c657600080fd5b81019080803573ffffffffffffffffffffffffffffffffffffffff169060200190929190803573ffffffffffffffffffffffffffffffffffffffff1690602001909291905050506106f3565b005b34801561022057600080fd5b506102636004803603602081101561023757600080fd5b81019080803573ffffffffffffffffffffffffffffffffffffffff169060200190929190505050610891565b005b34801561027157600080fd5b506102b46004803603602081101561028857600080fd5b81019080803573ffffffffffffffffffffffffffffffffffffffff1690602001909291905050506108b1565b604051808215151515815260200191505060405180910390f35b3480156102da57600080fd5b506102e36108e3565b005b3480156102f157600080fd5b506102fa6109c5565b005b34801561030857600080fd5b50610311610a7a565b6040518082600281111561032157fe5b60ff16815260200191505060405180910390f35b34801561034157600080fd5b506103846004803603602081101561035857600080fd5b81019080803573ffffffffffffffffffffffffffffffffffffffff169060200190929190505050610a91565b005b34801561039257600080fd5b5061039b610b8d565b604051808273ffffffffffffffffffffffffffffffffffffffff1673ffffffffffffffffffffffffffffffffffffffff16815260200191505060405180910390f35b3480156103e957600080fd5b5061042c6004803603602081101561040057600080fd5b81019080803573ffffffffffffffffffffffffffffffffffffffff169060200190929190505050610bb7565b6040518082815260200191505060405180910390f35b6104846004803603602081101561045857600080fd5b81019080803573ffffffffffffffffffffffffffffffffffffffff169060200190929190505050610c00565b005b603360009054906101000a900473ffffffffffffffffffffffffffffffffffffffff1673ffffffffffffffffffffffffffffffffffffffff163373ffffffffffffffffffffffffffffffffffffffff161415156104e257600080fd5b600073ffffffffffffffffffffffffffffffffffffffff168173ffffffffffffffffffffffffffffffffffffffff161415151561051e57600080fd5b80603360006101000a81548173ffffffffffffffffffffffffffffffffffffffff021916908373ffffffffffffffffffffffffffffffffffffffff1602179055507f4101e71e974f68df5e9730cc223280b41654676bbb052cdcc735c3337e64d2d9603360009054906101000a900473ffffffffffffffffffffffffffffffffffffffff16604051808273ffffffffffffffffffffffffffffffffffffffff1673ffffffffffffffffffffffffffffffffffffffff16815260200191505060405180910390a150565b600060cb60019054906101000a900473ffffffffffffffffffffffffffffffffffffffff16905090565b603360009054906101000a900473ffffffffffffffffffffffffffffffffffffffff1673ffffffffffffffffffffffffffffffffffffffff163373ffffffffffffffffffffffffffffffffffffffff1614151561066d57600080fd5b6000600281111561067a57fe5b60cb60009054906101000a900460ff16600281111561069557fe5b1415156106a157600080fd5b600260cb60006101000a81548160ff021916908360028111156106c057fe5b02179055507f088672c3a6e342f7cd94a65ba63b79df24a8973927b4d05d803c44bbf787d12f60405160405180910390a1565b600060019054906101000a900460ff16806107125750610711610c40565b5b8061072957506000809054906101000a900460ff16155b1515610780576040517f08c379a000000000000000000000000000000000000000000000000000000000815260040180806020018281038252602e8152602001806111ee602e913960400191505060405180910390fd5b60008060019054906101000a900460ff1690506001600060016101000a81548160ff02191690831515021790555060016000806101000a81548160ff0219169083151502179055506107d182610a91565b600073ffffffffffffffffffffffffffffffffffffffff168373ffffffffffffffffffffffffffffffffffffffff161415151561080d57600080fd5b8260cb60016101000a81548173ffffffffffffffffffffffffffffffffffffffff021916908373ffffffffffffffffffffffffffffffffffffffff160217905550600060cb60006101000a81548160ff0219169083600281111561086d57fe5b021790555080600060016101000a81548160ff021916908315150217905550505050565b61089a816108b1565b15156108a557600080fd5b6108ae81610c51565b50565b6000600160028111156108c057fe5b60cb60009054906101000a900460ff1660028111156108db57fe5b149050919050565b603360009054906101000a900473ffffffffffffffffffffffffffffffffffffffff1673ffffffffffffffffffffffffffffffffffffffff163373ffffffffffffffffffffffffffffffffffffffff1614151561093f57600080fd5b6000600281111561094c57fe5b60cb60009054906101000a900460ff16600281111561096757fe5b14151561097357600080fd5b600160cb60006101000a81548160ff0219169083600281111561099257fe5b02179055507f599d8e5a83cffb867d051598c4d70e805d59802d8081c1c7d6dffc5b6aca2b8960405160405180910390a1565b6002808111156109d157fe5b60cb60009054906101000a900460ff1660028111156109ec57fe5b1415156109f857600080fd5b60cb60019054906101000a900473ffffffffffffffffffffffffffffffffffffffff1673ffffffffffffffffffffffffffffffffffffffff166108fc3073ffffffffffffffffffffffffffffffffffffffff16319081150290604051600060405180830381858888f19350505050158015610a77573d6000803e3d6000fd5b50565b600060cb60009054906101000a900460ff16905090565b600060019054906101000a900460ff1680610ab05750610aaf610c40565b5b80610ac757506000809054906101000a900460ff16155b1515610b1e576040517f08c379a000000000000000000000000000000000000000000000000000000000815260040180806020018281038252602e8152602001806111ee602e913960400191505060405180910390fd5b60008060019054906101000a900460ff1690506001600060016101000a81548160ff02191690831515021790555060016000806101000a81548160ff021916908315150217905550610b6f82610dcf565b80600060016101000a81548160ff0219169083151502179055505050565b6000603360009054906101000a900473ffffffffffffffffffffffffffffffffffffffff16905090565b6000606660008373ffffffffffffffffffffffffffffffffffffffff1673ffffffffffffffffffffffffffffffffffffffff168152602001908152602001600020549050919050565b60006002811115610c0d57fe5b60cb60009054906101000a900460ff166002811115610c2857fe5b141515610c3457600080fd5b610c3d81610ecb565b50565b600080303b90506000811491505090565b603360009054906101000a900473ffffffffffffffffffffffffffffffffffffffff1673ffffffffffffffffffffffffffffffffffffffff163373ffffffffffffffffffffffffffffffffffffffff16141515610cad57600080fd5b6000606660008373ffffffffffffffffffffffffffffffffffffffff1673ffffffffffffffffffffffffffffffffffffffff1681526020019081526020016000205490506000606660008473ffffffffffffffffffffffffffffffffffffffff1673ffffffffffffffffffffffffffffffffffffffff168152602001908152602001600020819055508173ffffffffffffffffffffffffffffffffffffffff166108fc829081150290604051600060405180830381858888f19350505050158015610d7c573d6000803e3d6000fd5b508173ffffffffffffffffffffffffffffffffffffffff167f7084f5476618d8e60b11ef0d7d3f06914655adb8793e28ff7f018d4c76d505d5826040518082815260200191505060405180910390a25050565b600060019054906101000a900460ff1680610dee5750610ded610c40565b5b80610e0557506000809054906101000a900460ff16155b1515610e5c576040517f08c379a000000000000000000000000000000000000000000000000000000000815260040180806020018281038252602e8152602001806111ee602e913960400191505060405180910390fd5b60008060019054906101000a900460ff1690506001600060016101000a81548160ff02191690831515021790555060016000806101000a81548160ff021916908315150217905550610ead82611013565b80600060016101000a81548160ff0219169083151502179055505050565b603360009054906101000a900473ffffffffffffffffffffffffffffffffffffffff1673ffffffffffffffffffffffffffffffffffffffff163373ffffffffffffffffffffffffffffffffffffffff16141515610f2757600080fd5b6000349050610f7e81606660008573ffffffffffffffffffffffffffffffffffffffff1673ffffffffffffffffffffffffffffffffffffffff168152602001908152602001600020546111cc90919063ffffffff16565b606660008473ffffffffffffffffffffffffffffffffffffffff1673ffffffffffffffffffffffffffffffffffffffff168152602001908152602001600020819055508173ffffffffffffffffffffffffffffffffffffffff167f2da466a7b24304f47e87fa2e1e5a81b9831ce54fec19055ce277ca2f39ba42c4826040518082815260200191505060405180910390a25050565b600060019054906101000a900460ff16806110325750611031610c40565b5b8061104957506000809054906101000a900460ff16155b15156110a0576040517f08c379a000000000000000000000000000000000000000000000000000000000815260040180806020018281038252602e8152602001806111ee602e913960400191505060405180910390fd5b60008060019054906101000a900460ff1690506001600060016101000a81548160ff02191690831515021790555060016000806101000a81548160ff02191690831515021790555081603360006101000a81548173ffffffffffffffffffffffffffffffffffffffff021916908373ffffffffffffffffffffffffffffffffffffffff1602179055507f4101e71e974f68df5e9730cc223280b41654676bbb052cdcc735c3337e64d2d9603360009054906101000a900473ffffffffffffffffffffffffffffffffffffffff16604051808273ffffffffffffffffffffffffffffffffffffffff1673ffffffffffffffffffffffffffffffffffffffff16815260200191505060405180910390a180600060016101000a81548160ff0219169083151502179055505050565b60008082840190508381101515156111e357600080fd5b809150509291505056fe436f6e747261637420696e7374616e63652068617320616c7265616479206265656e20696e697469616c697a6564a165627a7a723058206e7831cda3df76175e2ae7a136e3f350427deeb58b6b4059a124c85c941f23530029436f6e747261637420696e7374616e63652068617320616c7265616479206265656e20696e697469616c697a6564a165627a7a72305820871a6a7a70ba565bd6bf8255af22cd5c0046d5ba6feeb13c04f29d58bc104cf80029",
  "source": "pragma solidity ^0.5.2;\n\nimport \"zos-lib/contracts/Initializable.sol\";\n\nimport \"./RefundableCrowdsale.sol\";\nimport \"./PostDeliveryCrowdsale.sol\";\n\n/**\n * @title RefundablePostDeliveryCrowdsale\n * @dev Extension of RefundableCrowdsale contract that only delivers the tokens\n * once the crowdsale has closed and the goal met, preventing refunds to be issued\n * to token holders.\n */\ncontract RefundablePostDeliveryCrowdsale is Initializable, RefundableCrowdsale, PostDeliveryCrowdsale {\n    function withdrawTokens(address beneficiary) public {\n        require(finalized());\n        require(goalReached());\n\n        super.withdrawTokens(beneficiary);\n    }\n\n    uint256[50] private ______gap;\n}\n",
  "sourcePath": "/home/frangio/zs/oz/eth/contracts/crowdsale/distribution/RefundablePostDeliveryCrowdsale.sol",
  "compiler": {
    "name": "solc",
    "version": "0.5.2+commit.1df8f40c.Emscripten.clang"
  },
  "schemaVersion": "3.0.0",
  "updatedAt": "2019-06-10T23:33:49.217Z",
  "devdoc": {
    "details": "Extension of RefundableCrowdsale contract that only delivers the tokens once the crowdsale has closed and the goal met, preventing refunds to be issued to token holders.",
    "methods": {
      "balanceOf(address)": {
        "return": "the balance of an account."
      },
      "buyTokens(address)": {
        "details": "low level token purchase ***DO NOT OVERRIDE*** This function has a non-reentrancy guard, so it shouldn't be called by another `nonReentrant` function.",
        "params": {
          "beneficiary": "Recipient of the token purchase"
        }
      },
      "claimRefund(address)": {
        "details": "Investors can claim refunds here if crowdsale is unsuccessful",
        "params": {
          "refundee": "Whose refund will be claimed."
        }
      },
      "closingTime()": {
        "return": "the crowdsale closing time."
      },
      "finalize()": {
        "details": "Must be called after crowdsale ends, to do some extra finalization work. Calls the contract's finalization function."
      },
      "finalized()": {
        "return": "true if the crowdsale is finalized, false otherwise."
      },
      "goal()": {
        "return": "minimum amount of funds to be raised in wei."
      },
      "goalReached()": {
        "details": "Checks whether funding goal was reached.",
        "return": "Whether funding goal was reached"
      },
      "hasClosed()": {
        "details": "Checks whether the period in which the crowdsale is open has already elapsed.",
        "return": "Whether crowdsale period has elapsed"
      },
      "initialize(uint256)": {
        "details": "Constructor, creates RefundEscrow.",
        "params": {
          "goal": "Funding goal"
        }
      },
      "initialize(uint256,address,address)": {
        "details": "The rate is the conversion between wei and the smallest and indivisible token unit. So, if you are using a rate of 1 with a ERC20Detailed token with 3 decimals called TOK, 1 wei will give you 1 unit, or 0.001 TOK.",
        "params": {
          "rate": "Number of token units a buyer gets per wei",
          "token": "Address of the token being sold",
          "wallet": "Address where collected funds will be forwarded to"
        }
      },
      "initialize(uint256,uint256)": {
        "details": "Constructor, takes crowdsale opening and closing times.",
        "params": {
          "closingTime": "Crowdsale closing time",
          "openingTime": "Crowdsale opening time"
        }
      },
      "isOpen()": {
        "return": "true if the crowdsale is open, false otherwise."
      },
      "openingTime()": {
        "return": "the crowdsale opening time."
      },
      "rate()": {
        "return": "the number of token units a buyer gets per wei."
      },
      "token()": {
        "return": "the token being sold."
      },
      "wallet()": {
        "return": "the address where funds are collected."
      },
      "weiRaised()": {
        "return": "the amount of wei raised."
      }
    },
    "title": "RefundablePostDeliveryCrowdsale"
  },
  "userdoc": {
    "methods": {}
  }
}