{
  "contractName": "RefundableCrowdsale",
  "abi": [
    {
      "constant": true,
      "inputs": [],
      "name": "hasClosed",
      "outputs": [
        {
          "name": "",
          "type": "bool"
        }
      ],
      "payable": false,
      "stateMutability": "view",
      "type": "function"
    },
    {
      "constant": true,
      "inputs": [],
      "name": "rate",
      "outputs": [
        {
          "name": "",
          "type": "uint256"
        }
      ],
      "payable": false,
      "stateMutability": "view",
      "type": "function"
    },
    {
      "constant": true,
      "inputs": [],
      "name": "weiRaised",
      "outputs": [
        {
          "name": "",
          "type": "uint256"
        }
      ],
      "payable": false,
      "stateMutability": "view",
      "type": "function"
    },
    {
      "constant": true,
      "inputs": [],
      "name": "isOpen",
      "outputs": [
        {
          "name": "",
          "type": "bool"
        }
      ],
      "payable": false,
      "stateMutability": "view",
      "type": "function"
    },
    {
      "constant": true,
      "inputs": [],
      "name": "closingTime",
      "outputs": [
        {
          "name": "",
          "type": "uint256"
        }
      ],
      "payable": false,
      "stateMutability": "view",
      "type": "function"
    },
    {
      "constant": false,
      "inputs": [],
      "name": "finalize",
      "outputs": [],
      "payable": false,
      "stateMutability": "nonpayable",
      "type": "function"
    },
    {
      "constant": true,
      "inputs": [],
      "name": "wallet",
      "outputs": [
        {
          "name": "",
          "type": "address"
        }
      ],
      "payable": false,
      "stateMutability": "view",
      "type": "function"
    },
    {
      "constant": true,
      "inputs": [],
      "name": "finalized",
      "outputs": [
        {
          "name": "",
          "type": "bool"
        }
      ],
      "payable": false,
      "stateMutability": "view",
      "type": "function"
    },
    {
      "constant": true,
      "inputs": [],
      "name": "openingTime",
      "outputs": [
        {
          "name": "",
          "type": "uint256"
        }
      ],
      "payable": false,
      "stateMutability": "view",
      "type": "function"
    },
    {
      "constant": false,
      "inputs": [
        {
          "name": "beneficiary",
          "type": "address"
        }
      ],
      "name": "buyTokens",
      "outputs": [],
      "payable": true,
      "stateMutability": "payable",
      "type": "function"
    },
    {
      "constant": true,
      "inputs": [],
      "name": "token",
      "outputs": [
        {
          "name": "",
          "type": "address"
        }
      ],
      "payable": false,
      "stateMutability": "view",
      "type": "function"
    },
    {
      "payable": true,
      "stateMutability": "payable",
      "type": "fallback"
    },
    {
      "anonymous": false,
      "inputs": [],
      "name": "CrowdsaleFinalized",
      "type": "event"
    },
    {
      "anonymous": false,
      "inputs": [
        {
          "indexed": false,
          "name": "prevClosingTime",
          "type": "uint256"
        },
        {
          "indexed": false,
          "name": "newClosingTime",
          "type": "uint256"
        }
      ],
      "name": "TimedCrowdsaleExtended",
      "type": "event"
    },
    {
      "anonymous": false,
      "inputs": [
        {
          "indexed": true,
          "name": "purchaser",
          "type": "address"
        },
        {
          "indexed": true,
          "name": "beneficiary",
          "type": "address"
        },
        {
          "indexed": false,
          "name": "value",
          "type": "uint256"
        },
        {
          "indexed": false,
          "name": "amount",
          "type": "uint256"
        }
      ],
      "name": "TokensPurchased",
      "type": "event"
    },
    {
      "constant": false,
      "inputs": [],
      "name": "initialize",
      "outputs": [],
      "payable": false,
      "stateMutability": "nonpayable",
      "type": "function"
    },
    {
      "constant": false,
      "inputs": [
        {
          "name": "rate",
          "type": "uint256"
        },
        {
          "name": "wallet",
          "type": "address"
        },
        {
          "name": "token",
          "type": "address"
        }
      ],
      "name": "initialize",
      "outputs": [],
      "payable": false,
      "stateMutability": "nonpayable",
      "type": "function"
    },
    {
      "constant": false,
      "inputs": [
        {
          "name": "openingTime",
          "type": "uint256"
        },
        {
          "name": "closingTime",
          "type": "uint256"
        }
      ],
      "name": "initialize",
      "outputs": [],
      "payable": false,
      "stateMutability": "nonpayable",
      "type": "function"
    },
    {
      "constant": false,
      "inputs": [
        {
          "name": "goal",
          "type": "uint256"
        }
      ],
      "name": "initialize",
      "outputs": [],
      "payable": false,
      "stateMutability": "nonpayable",
      "type": "function"
    },
    {
      "constant": true,
      "inputs": [],
      "name": "goal",
      "outputs": [
        {
          "name": "",
          "type": "uint256"
        }
      ],
      "payable": false,
      "stateMutability": "view",
      "type": "function"
    },
    {
      "constant": false,
      "inputs": [
        {
          "name": "refundee",
          "type": "address"
        }
      ],
      "name": "claimRefund",
      "outputs": [],
      "payable": false,
      "stateMutability": "nonpayable",
      "type": "function"
    },
    {
      "constant": true,
      "inputs": [],
      "name": "goalReached",
      "outputs": [
        {
          "name": "",
          "type": "bool"
        }
      ],
      "payable": false,
      "stateMutability": "view",
      "type": "function"
    }
  ],
  "bytecode": "0x608060405234801561001057600080fd5b506129b7806100206000396000f3fe608060405260043610610126576000357c0100000000000000000000000000000000000000000000000000000000900480638129fc1c116100b2578063bffa55d511610081578063bffa55d5146103c4578063e4a3011614610415578063ec8ac4d81461045a578063fc0c546a1461049e578063fe4b84df146104f557610126565b80638129fc1c146102d8578063b3f05b97146102ef578063b4988fd01461031e578063b7a8807c1461039957610126565b806347535d7b116100f957806347535d7b146101e15780634b6753bc146102105780634bb278f31461023b578063521eb273146102525780637d3d6522146102a957610126565b80631515bc2b146101315780632c4e722e14610160578063401938831461018b5780634042b66f146101b6575b61012f33610530565b005b34801561013d57600080fd5b50610146610628565b604051808215151515815260200191505060405180910390f35b34801561016c57600080fd5b50610175610634565b6040518082815260200191505060405180910390f35b34801561019757600080fd5b506101a061063e565b6040518082815260200191505060405180910390f35b3480156101c257600080fd5b506101cb610649565b6040518082815260200191505060405180910390f35b3480156101ed57600080fd5b506101f6610653565b604051808215151515815260200191505060405180910390f35b34801561021c57600080fd5b5061022561066e565b6040518082815260200191505060405180910390f35b34801561024757600080fd5b50610250610678565b005b34801561025e57600080fd5b506102676106f8565b604051808273ffffffffffffffffffffffffffffffffffffffff1673ffffffffffffffffffffffffffffffffffffffff16815260200191505060405180910390f35b3480156102b557600080fd5b506102be610722565b604051808215151515815260200191505060405180910390f35b3480156102e457600080fd5b506102ed610737565b005b3480156102fb57600080fd5b50610304610831565b604051808215151515815260200191505060405180910390f35b34801561032a57600080fd5b506103976004803603606081101561034157600080fd5b8101908080359060200190929190803573ffffffffffffffffffffffffffffffffffffffff169060200190929190803573ffffffffffffffffffffffffffffffffffffffff169060200190929190505050610848565b005b3480156103a557600080fd5b506103ae610a4d565b6040518082815260200191505060405180910390f35b3480156103d057600080fd5b50610413600480360360208110156103e757600080fd5b81019080803573ffffffffffffffffffffffffffffffffffffffff169060200190929190505050610a57565b005b34801561042157600080fd5b506104586004803603604081101561043857600080fd5b810190808035906020019092919080359060200190929190505050610b57565b005b61049c6004803603602081101561047057600080fd5b81019080803573ffffffffffffffffffffffffffffffffffffffff169060200190929190505050610530565b005b3480156104aa57600080fd5b506104b3610c86565b604051808273ffffffffffffffffffffffffffffffffffffffff1673ffffffffffffffffffffffffffffffffffffffff16815260200191505060405180910390f35b34801561050157600080fd5b5061052e6004803603602081101561051857600080fd5b8101908080359060200190929190505050610cb0565b005b60016033600082825401925050819055506000603354905060003490506105578382610f9a565b600061056282610fbb565b905061057982606954610fd990919063ffffffff16565b6069819055506105898482610ffa565b8373ffffffffffffffffffffffffffffffffffffffff163373ffffffffffffffffffffffffffffffffffffffff167f6faf93231a456e552dbc9961f58d9713ee4f2e69d15f1975b050ef0911053a7b8484604051808381526020018281526020019250505060405180910390a36106008483611008565b61060861100c565b61061284836110e5565b50506033548114151561062457600080fd5b5050565b6000609d544211905090565b6000606854905090565b600061010354905090565b6000606954905090565b6000609c5442101580156106695750609d544211155b905090565b6000609d54905090565b60d060009054906101000a900460ff1615151561069457600080fd5b61069c610628565b15156106a757600080fd5b600160d060006101000a81548160ff0219169083151502179055506106ca6110e9565b7f9270cc390c096600a1c17c44345a1ba689fafd99d97487b10cfccf86cf73183660405160405180910390a1565b6000606760009054906101000a900473ffffffffffffffffffffffffffffffffffffffff16905090565b600061010354610730610649565b1015905090565b600060019054906101000a900460ff168061075657506107556112e3565b5b8061076d57506000809054906101000a900460ff16155b15156107c4576040517f08c379a000000000000000000000000000000000000000000000000000000000815260040180806020018281038252602e81526020018061295e602e913960400191505060405180910390fd5b60008060019054906101000a900460ff1690506001600060016101000a81548160ff02191690831515021790555060016000806101000a81548160ff021916908315150217905550600160338190555080600060016101000a81548160ff02191690831515021790555050565b600060d060009054906101000a900460ff16905090565b600060019054906101000a900460ff168061086757506108666112e3565b5b8061087e57506000809054906101000a900460ff16155b15156108d5576040517f08c379a000000000000000000000000000000000000000000000000000000000815260040180806020018281038252602e81526020018061295e602e913960400191505060405180910390fd5b60008060019054906101000a900460ff1690506001600060016101000a81548160ff02191690831515021790555060016000806101000a81548160ff02191690831515021790555060008411151561092c57600080fd5b600073ffffffffffffffffffffffffffffffffffffffff168373ffffffffffffffffffffffffffffffffffffffff161415151561096857600080fd5b600073ffffffffffffffffffffffffffffffffffffffff168273ffffffffffffffffffffffffffffffffffffffff16141515156109a457600080fd5b8360688190555082606760006101000a81548173ffffffffffffffffffffffffffffffffffffffff021916908373ffffffffffffffffffffffffffffffffffffffff16021790555081606660006101000a81548173ffffffffffffffffffffffffffffffffffffffff021916908373ffffffffffffffffffffffffffffffffffffffff16021790555080600060016101000a81548160ff02191690831515021790555050505050565b6000609c54905090565b610a5f610831565b1515610a6a57600080fd5b610a72610722565b151515610a7e57600080fd5b61010460009054906101000a900473ffffffffffffffffffffffffffffffffffffffff1673ffffffffffffffffffffffffffffffffffffffff166351cff8d9826040518263ffffffff167c0100000000000000000000000000000000000000000000000000000000028152600401808273ffffffffffffffffffffffffffffffffffffffff1673ffffffffffffffffffffffffffffffffffffffff168152602001915050600060405180830381600087803b158015610b3c57600080fd5b505af1158015610b50573d6000803e3d6000fd5b5050505050565b600060019054906101000a900460ff1680610b765750610b756112e3565b5b80610b8d57506000809054906101000a900460ff16155b1515610be4576040517f08c379a000000000000000000000000000000000000000000000000000000000815260040180806020018281038252602e81526020018061295e602e913960400191505060405180910390fd5b60008060019054906101000a900460ff1690506001600060016101000a81548160ff02191690831515021790555060016000806101000a81548160ff021916908315150217905550610c346112f4565b1515610c3c57fe5b428310151515610c4b57600080fd5b8282111515610c5957600080fd5b82609c8190555081609d8190555080600060016101000a81548160ff021916908315150217905550505050565b6000606660009054906101000a900473ffffffffffffffffffffffffffffffffffffffff16905090565b600060019054906101000a900460ff1680610ccf5750610cce6112e3565b5b80610ce657506000809054906101000a900460ff16155b1515610d3d576040517f08c379a000000000000000000000000000000000000000000000000000000000815260040180806020018281038252602e81526020018061295e602e913960400191505060405180910390fd5b60008060019054906101000a900460ff1690506001600060016101000a81548160ff02191690831515021790555060016000806101000a81548160ff021916908315150217905550610d8d6113b6565b1515610d9557fe5b600082111515610da457600080fd5b600073ffffffffffffffffffffffffffffffffffffffff1661010460009054906101000a900473ffffffffffffffffffffffffffffffffffffffff1673ffffffffffffffffffffffffffffffffffffffff161415610f7457610e046116e6565b604051809103906000f080158015610e20573d6000803e3d6000fd5b5061010460006101000a81548173ffffffffffffffffffffffffffffffffffffffff021916908373ffffffffffffffffffffffffffffffffffffffff16021790555061010460009054906101000a900473ffffffffffffffffffffffffffffffffffffffff1673ffffffffffffffffffffffffffffffffffffffff1663485cc955610ea96106f8565b306040518363ffffffff167c0100000000000000000000000000000000000000000000000000000000028152600401808373ffffffffffffffffffffffffffffffffffffffff1673ffffffffffffffffffffffffffffffffffffffff1681526020018273ffffffffffffffffffffffffffffffffffffffff1673ffffffffffffffffffffffffffffffffffffffff16815260200192505050600060405180830381600087803b158015610f5b57600080fd5b505af1158015610f6f573d6000803e3d6000fd5b505050505b816101038190555080600060016101000a81548160ff0219169083151502179055505050565b610fa2610653565b1515610fad57600080fd5b610fb782826113d0565b5050565b6000610fd26068548361142090919063ffffffff16565b9050919050565b6000808284019050838110151515610ff057600080fd5b8091505092915050565b611004828261145e565b5050565b5050565b61010460009054906101000a900473ffffffffffffffffffffffffffffffffffffffff1673ffffffffffffffffffffffffffffffffffffffff1663f340fa0134336040518363ffffffff167c0100000000000000000000000000000000000000000000000000000000028152600401808273ffffffffffffffffffffffffffffffffffffffff1673ffffffffffffffffffffffffffffffffffffffff1681526020019150506000604051808303818588803b1580156110ca57600080fd5b505af11580156110de573d6000803e3d6000fd5b5050505050565b5050565b6110f1610722565b156112395761010460009054906101000a900473ffffffffffffffffffffffffffffffffffffffff1673ffffffffffffffffffffffffffffffffffffffff166343d726d66040518163ffffffff167c0100000000000000000000000000000000000000000000000000000000028152600401600060405180830381600087803b15801561117d57600080fd5b505af1158015611191573d6000803e3d6000fd5b5050505061010460009054906101000a900473ffffffffffffffffffffffffffffffffffffffff1673ffffffffffffffffffffffffffffffffffffffff16639af6549a6040518163ffffffff167c0100000000000000000000000000000000000000000000000000000000028152600401600060405180830381600087803b15801561121c57600080fd5b505af1158015611230573d6000803e3d6000fd5b505050506112d9565b61010460009054906101000a900473ffffffffffffffffffffffffffffffffffffffff1673ffffffffffffffffffffffffffffffffffffffff16638c52dc416040518163ffffffff167c0100000000000000000000000000000000000000000000000000000000028152600401600060405180830381600087803b1580156112c057600080fd5b505af11580156112d4573d6000803e3d6000fd5b505050505b6112e16114af565b565b600080303b90506000811491505090565b6000806068541180156113565750600073ffffffffffffffffffffffffffffffffffffffff16606760009054906101000a900473ffffffffffffffffffffffffffffffffffffffff1673ffffffffffffffffffffffffffffffffffffffff1614155b80156113b15750600073ffffffffffffffffffffffffffffffffffffffff16606660009054906101000a900473ffffffffffffffffffffffffffffffffffffffff1673ffffffffffffffffffffffffffffffffffffffff1614155b905090565b600080609c541180156113cb57506000609d54115b905090565b600073ffffffffffffffffffffffffffffffffffffffff168273ffffffffffffffffffffffffffffffffffffffff161415151561140c57600080fd5b6000811415151561141c57600080fd5b5050565b6000808314156114335760009050611458565b6000828402905082848281151561144657fe5b0414151561145357600080fd5b809150505b92915050565b6114ab8282606660009054906101000a900473ffffffffffffffffffffffffffffffffffffffff1673ffffffffffffffffffffffffffffffffffffffff166114b19092919063ffffffff16565b5050565b565b611599838473ffffffffffffffffffffffffffffffffffffffff1663a9059cbb90507c0100000000000000000000000000000000000000000000000000000000028484604051602401808373ffffffffffffffffffffffffffffffffffffffff1673ffffffffffffffffffffffffffffffffffffffff16815260200182815260200192505050604051602081830303815290604052907bffffffffffffffffffffffffffffffffffffffffffffffffffffffff19166020820180517bffffffffffffffffffffffffffffffffffffffffffffffffffffffff838183161783525050505061159e565b505050565b6115bd8273ffffffffffffffffffffffffffffffffffffffff166116d3565b15156115c857600080fd5b600060608373ffffffffffffffffffffffffffffffffffffffff16836040518082805190602001908083835b60208310151561161957805182526020820191506020810190506020830392506115f4565b6001836020036101000a0380198251168184511680821785525050505050509050019150506000604051808303816000865af19150503d806000811461167b576040519150601f19603f3d011682016040523d82523d6000602084013e611680565b606091505b509150915081151561169157600080fd5b6000815111156116cd578080602001905160208110156116b057600080fd5b810190808051906020019092919050505015156116cc57600080fd5b5b50505050565b600080823b905060008111915050919050565b604051611267806116f78339019056fe608060405234801561001057600080fd5b50611247806100206000396000f3fe6080604052600436106100df576000357c0100000000000000000000000000000000000000000000000000000000900480638c52dc411161009c578063c4d66de811610076578063c4d66de814610335578063c6dbdf6114610386578063e3a9db1a146103dd578063f340fa0114610442576100df565b80638c52dc41146102ce5780639af6549a146102e5578063c19d93fb146102fc576100df565b80632348238c146100e457806338af3eed1461013557806343d726d61461018c578063485cc955146101a357806351cff8d914610214578063685ca19414610265575b600080fd5b3480156100f057600080fd5b506101336004803603602081101561010757600080fd5b81019080803573ffffffffffffffffffffffffffffffffffffffff169060200190929190505050610486565b005b34801561014157600080fd5b5061014a6105e7565b604051808273ffffffffffffffffffffffffffffffffffffffff1673ffffffffffffffffffffffffffffffffffffffff16815260200191505060405180910390f35b34801561019857600080fd5b506101a1610611565b005b3480156101af57600080fd5b50610212600480360360408110156101c657600080fd5b81019080803573ffffffffffffffffffffffffffffffffffffffff169060200190929190803573ffffffffffffffffffffffffffffffffffffffff1690602001909291905050506106f3565b005b34801561022057600080fd5b506102636004803603602081101561023757600080fd5b81019080803573ffffffffffffffffffffffffffffffffffffffff169060200190929190505050610891565b005b34801561027157600080fd5b506102b46004803603602081101561028857600080fd5b81019080803573ffffffffffffffffffffffffffffffffffffffff1690602001909291905050506108b1565b604051808215151515815260200191505060405180910390f35b3480156102da57600080fd5b506102e36108e3565b005b3480156102f157600080fd5b506102fa6109c5565b005b34801561030857600080fd5b50610311610a7a565b6040518082600281111561032157fe5b60ff16815260200191505060405180910390f35b34801561034157600080fd5b506103846004803603602081101561035857600080fd5b81019080803573ffffffffffffffffffffffffffffffffffffffff169060200190929190505050610a91565b005b34801561039257600080fd5b5061039b610b8d565b604051808273ffffffffffffffffffffffffffffffffffffffff1673ffffffffffffffffffffffffffffffffffffffff16815260200191505060405180910390f35b3480156103e957600080fd5b5061042c6004803603602081101561040057600080fd5b81019080803573ffffffffffffffffffffffffffffffffffffffff169060200190929190505050610bb7565b6040518082815260200191505060405180910390f35b6104846004803603602081101561045857600080fd5b81019080803573ffffffffffffffffffffffffffffffffffffffff169060200190929190505050610c00565b005b603360009054906101000a900473ffffffffffffffffffffffffffffffffffffffff1673ffffffffffffffffffffffffffffffffffffffff163373ffffffffffffffffffffffffffffffffffffffff161415156104e257600080fd5b600073ffffffffffffffffffffffffffffffffffffffff168173ffffffffffffffffffffffffffffffffffffffff161415151561051e57600080fd5b80603360006101000a81548173ffffffffffffffffffffffffffffffffffffffff021916908373ffffffffffffffffffffffffffffffffffffffff1602179055507f4101e71e974f68df5e9730cc223280b41654676bbb052cdcc735c3337e64d2d9603360009054906101000a900473ffffffffffffffffffffffffffffffffffffffff16604051808273ffffffffffffffffffffffffffffffffffffffff1673ffffffffffffffffffffffffffffffffffffffff16815260200191505060405180910390a150565b600060cb60019054906101000a900473ffffffffffffffffffffffffffffffffffffffff16905090565b603360009054906101000a900473ffffffffffffffffffffffffffffffffffffffff1673ffffffffffffffffffffffffffffffffffffffff163373ffffffffffffffffffffffffffffffffffffffff1614151561066d57600080fd5b6000600281111561067a57fe5b60cb60009054906101000a900460ff16600281111561069557fe5b1415156106a157600080fd5b600260cb60006101000a81548160ff021916908360028111156106c057fe5b02179055507f088672c3a6e342f7cd94a65ba63b79df24a8973927b4d05d803c44bbf787d12f60405160405180910390a1565b600060019054906101000a900460ff16806107125750610711610c40565b5b8061072957506000809054906101000a900460ff16155b1515610780576040517f08c379a000000000000000000000000000000000000000000000000000000000815260040180806020018281038252602e8152602001806111ee602e913960400191505060405180910390fd5b60008060019054906101000a900460ff1690506001600060016101000a81548160ff02191690831515021790555060016000806101000a81548160ff0219169083151502179055506107d182610a91565b600073ffffffffffffffffffffffffffffffffffffffff168373ffffffffffffffffffffffffffffffffffffffff161415151561080d57600080fd5b8260cb60016101000a81548173ffffffffffffffffffffffffffffffffffffffff021916908373ffffffffffffffffffffffffffffffffffffffff160217905550600060cb60006101000a81548160ff0219169083600281111561086d57fe5b021790555080600060016101000a81548160ff021916908315150217905550505050565b61089a816108b1565b15156108a557600080fd5b6108ae81610c51565b50565b6000600160028111156108c057fe5b60cb60009054906101000a900460ff1660028111156108db57fe5b149050919050565b603360009054906101000a900473ffffffffffffffffffffffffffffffffffffffff1673ffffffffffffffffffffffffffffffffffffffff163373ffffffffffffffffffffffffffffffffffffffff1614151561093f57600080fd5b6000600281111561094c57fe5b60cb60009054906101000a900460ff16600281111561096757fe5b14151561097357600080fd5b600160cb60006101000a81548160ff0219169083600281111561099257fe5b02179055507f599d8e5a83cffb867d051598c4d70e805d59802d8081c1c7d6dffc5b6aca2b8960405160405180910390a1565b6002808111156109d157fe5b60cb60009054906101000a900460ff1660028111156109ec57fe5b1415156109f857600080fd5b60cb60019054906101000a900473ffffffffffffffffffffffffffffffffffffffff1673ffffffffffffffffffffffffffffffffffffffff166108fc3073ffffffffffffffffffffffffffffffffffffffff16319081150290604051600060405180830381858888f19350505050158015610a77573d6000803e3d6000fd5b50565b600060cb60009054906101000a900460ff16905090565b600060019054906101000a900460ff1680610ab05750610aaf610c40565b5b80610ac757506000809054906101000a900460ff16155b1515610b1e576040517f08c379a000000000000000000000000000000000000000000000000000000000815260040180806020018281038252602e8152602001806111ee602e913960400191505060405180910390fd5b60008060019054906101000a900460ff1690506001600060016101000a81548160ff02191690831515021790555060016000806101000a81548160ff021916908315150217905550610b6f82610dcf565b80600060016101000a81548160ff0219169083151502179055505050565b6000603360009054906101000a900473ffffffffffffffffffffffffffffffffffffffff16905090565b6000606660008373ffffffffffffffffffffffffffffffffffffffff1673ffffffffffffffffffffffffffffffffffffffff168152602001908152602001600020549050919050565b60006002811115610c0d57fe5b60cb60009054906101000a900460ff166002811115610c2857fe5b141515610c3457600080fd5b610c3d81610ecb565b50565b600080303b90506000811491505090565b603360009054906101000a900473ffffffffffffffffffffffffffffffffffffffff1673ffffffffffffffffffffffffffffffffffffffff163373ffffffffffffffffffffffffffffffffffffffff16141515610cad57600080fd5b6000606660008373ffffffffffffffffffffffffffffffffffffffff1673ffffffffffffffffffffffffffffffffffffffff1681526020019081526020016000205490506000606660008473ffffffffffffffffffffffffffffffffffffffff1673ffffffffffffffffffffffffffffffffffffffff168152602001908152602001600020819055508173ffffffffffffffffffffffffffffffffffffffff166108fc829081150290604051600060405180830381858888f19350505050158015610d7c573d6000803e3d6000fd5b508173ffffffffffffffffffffffffffffffffffffffff167f7084f5476618d8e60b11ef0d7d3f06914655adb8793e28ff7f018d4c76d505d5826040518082815260200191505060405180910390a25050565b600060019054906101000a900460ff1680610dee5750610ded610c40565b5b80610e0557506000809054906101000a900460ff16155b1515610e5c576040517f08c379a000000000000000000000000000000000000000000000000000000000815260040180806020018281038252602e8152602001806111ee602e913960400191505060405180910390fd5b60008060019054906101000a900460ff1690506001600060016101000a81548160ff02191690831515021790555060016000806101000a81548160ff021916908315150217905550610ead82611013565b80600060016101000a81548160ff0219169083151502179055505050565b603360009054906101000a900473ffffffffffffffffffffffffffffffffffffffff1673ffffffffffffffffffffffffffffffffffffffff163373ffffffffffffffffffffffffffffffffffffffff16141515610f2757600080fd5b6000349050610f7e81606660008573ffffffffffffffffffffffffffffffffffffffff1673ffffffffffffffffffffffffffffffffffffffff168152602001908152602001600020546111cc90919063ffffffff16565b606660008473ffffffffffffffffffffffffffffffffffffffff1673ffffffffffffffffffffffffffffffffffffffff168152602001908152602001600020819055508173ffffffffffffffffffffffffffffffffffffffff167f2da466a7b24304f47e87fa2e1e5a81b9831ce54fec19055ce277ca2f39ba42c4826040518082815260200191505060405180910390a25050565b600060019054906101000a900460ff16806110325750611031610c40565b5b8061104957506000809054906101000a900460ff16155b15156110a0576040517f08c379a000000000000000000000000000000000000000000000000000000000815260040180806020018281038252602e8152602001806111ee602e913960400191505060405180910390fd5b60008060019054906101000a900460ff1690506001600060016101000a81548160ff02191690831515021790555060016000806101000a81548160ff02191690831515021790555081603360006101000a81548173ffffffffffffffffffffffffffffffffffffffff021916908373ffffffffffffffffffffffffffffffffffffffff1602179055507f4101e71e974f68df5e9730cc223280b41654676bbb052cdcc735c3337e64d2d9603360009054906101000a900473ffffffffffffffffffffffffffffffffffffffff16604051808273ffffffffffffffffffffffffffffffffffffffff1673ffffffffffffffffffffffffffffffffffffffff16815260200191505060405180910390a180600060016101000a81548160ff0219169083151502179055505050565b60008082840190508381101515156111e357600080fd5b809150509291505056fe436f6e747261637420696e7374616e63652068617320616c7265616479206265656e20696e697469616c697a6564a165627a7a723058206e7831cda3df76175e2ae7a136e3f350427deeb58b6b4059a124c85c941f23530029436f6e747261637420696e7374616e63652068617320616c7265616479206265656e20696e697469616c697a6564a165627a7a72305820325783e87cd93b3f5e5f1ecd1c2477e5d94a105bf960a4432ae78f4c8eeea0cc0029",
  "source": "pragma solidity ^0.5.2;\n\nimport \"zos-lib/contracts/Initializable.sol\";\nimport \"../../math/SafeMath.sol\";\nimport \"./FinalizableCrowdsale.sol\";\nimport \"../../payment/escrow/RefundEscrow.sol\";\n\n/**\n * @title RefundableCrowdsale\n * @dev Extension of FinalizableCrowdsale contract that adds a funding goal, and the possibility of users\n * getting a refund if goal is not met.\n *\n * Deprecated, use RefundablePostDeliveryCrowdsale instead. Note that if you allow tokens to be traded before the goal\n * is met, then an attack is possible in which the attacker purchases tokens from the crowdsale and when they sees that\n * the goal is unlikely to be met, they sell their tokens (possibly at a discount). The attacker will be refunded when\n * the crowdsale is finalized, and the users that purchased from them will be left with worthless tokens.\n */\ncontract RefundableCrowdsale is Initializable, FinalizableCrowdsale {\n    using SafeMath for uint256;\n\n    // minimum amount of funds to be raised in weis\n    uint256 private _goal;\n\n    // refund escrow used to hold funds while crowdsale is running\n    RefundEscrow private _escrow;\n\n    /**\n     * @dev Constructor, creates RefundEscrow.\n     * @param goal Funding goal\n     */\n    function initialize(uint256 goal) public initializer {\n        // FinalizableCrowdsale depends on TimedCrowdsale\n        assert(TimedCrowdsale._hasBeenInitialized());\n\n        require(goal > 0);\n        // conditional added to make initializer idempotent in case of diamond inheritance\n        if (address(_escrow) == address(0)) {\n            _escrow = new RefundEscrow();\n            _escrow.initialize(wallet(), address(this));\n        }\n        _goal = goal;\n    }\n\n    /**\n     * @return minimum amount of funds to be raised in wei.\n     */\n    function goal() public view returns (uint256) {\n        return _goal;\n    }\n\n    /**\n     * @dev Investors can claim refunds here if crowdsale is unsuccessful\n     * @param refundee Whose refund will be claimed.\n     */\n    function claimRefund(address payable refundee) public {\n        require(finalized());\n        require(!goalReached());\n\n        _escrow.withdraw(refundee);\n    }\n\n    /**\n     * @dev Checks whether funding goal was reached.\n     * @return Whether funding goal was reached\n     */\n    function goalReached() public view returns (bool) {\n        return weiRaised() >= _goal;\n    }\n\n    /**\n     * @dev escrow finalization task, called when finalize() is called\n     */\n    function _finalization() internal {\n        if (goalReached()) {\n            _escrow.close();\n            _escrow.beneficiaryWithdraw();\n        } else {\n            _escrow.enableRefunds();\n        }\n\n        super._finalization();\n    }\n\n    /**\n     * @dev Overrides Crowdsale fund forwarding, sending funds to escrow.\n     */\n    function _forwardFunds() internal {\n        _escrow.deposit.value(msg.value)(msg.sender);\n    }\n\n    uint256[50] private ______gap;\n}\n",
  "sourcePath": "/home/frangio/zs/oz/eth/contracts/crowdsale/distribution/RefundableCrowdsale.sol",
  "compiler": {
    "name": "solc",
    "version": "0.5.2+commit.1df8f40c.Emscripten.clang"
  },
  "schemaVersion": "3.0.0",
  "updatedAt": "2019-06-10T23:33:49.216Z",
  "devdoc": {
    "details": "Extension of FinalizableCrowdsale contract that adds a funding goal, and the possibility of users getting a refund if goal is not met. * Deprecated, use RefundablePostDeliveryCrowdsale instead. Note that if you allow tokens to be traded before the goal is met, then an attack is possible in which the attacker purchases tokens from the crowdsale and when they sees that the goal is unlikely to be met, they sell their tokens (possibly at a discount). The attacker will be refunded when the crowdsale is finalized, and the users that purchased from them will be left with worthless tokens.",
    "methods": {
      "buyTokens(address)": {
        "details": "low level token purchase ***DO NOT OVERRIDE*** This function has a non-reentrancy guard, so it shouldn't be called by another `nonReentrant` function.",
        "params": {
          "beneficiary": "Recipient of the token purchase"
        }
      },
      "claimRefund(address)": {
        "details": "Investors can claim refunds here if crowdsale is unsuccessful",
        "params": {
          "refundee": "Whose refund will be claimed."
        }
      },
      "closingTime()": {
        "return": "the crowdsale closing time."
      },
      "finalize()": {
        "details": "Must be called after crowdsale ends, to do some extra finalization work. Calls the contract's finalization function."
      },
      "finalized()": {
        "return": "true if the crowdsale is finalized, false otherwise."
      },
      "goal()": {
        "return": "minimum amount of funds to be raised in wei."
      },
      "goalReached()": {
        "details": "Checks whether funding goal was reached.",
        "return": "Whether funding goal was reached"
      },
      "hasClosed()": {
        "details": "Checks whether the period in which the crowdsale is open has already elapsed.",
        "return": "Whether crowdsale period has elapsed"
      },
      "initialize(uint256)": {
        "details": "Constructor, creates RefundEscrow.",
        "params": {
          "goal": "Funding goal"
        }
      },
      "initialize(uint256,address,address)": {
        "details": "The rate is the conversion between wei and the smallest and indivisible token unit. So, if you are using a rate of 1 with a ERC20Detailed token with 3 decimals called TOK, 1 wei will give you 1 unit, or 0.001 TOK.",
        "params": {
          "rate": "Number of token units a buyer gets per wei",
          "token": "Address of the token being sold",
          "wallet": "Address where collected funds will be forwarded to"
        }
      },
      "initialize(uint256,uint256)": {
        "details": "Constructor, takes crowdsale opening and closing times.",
        "params": {
          "closingTime": "Crowdsale closing time",
          "openingTime": "Crowdsale opening time"
        }
      },
      "isOpen()": {
        "return": "true if the crowdsale is open, false otherwise."
      },
      "openingTime()": {
        "return": "the crowdsale opening time."
      },
      "rate()": {
        "return": "the number of token units a buyer gets per wei."
      },
      "token()": {
        "return": "the token being sold."
      },
      "wallet()": {
        "return": "the address where funds are collected."
      },
      "weiRaised()": {
        "return": "the amount of wei raised."
      }
    },
    "title": "RefundableCrowdsale"
  },
  "userdoc": {
    "methods": {}
  }
}