{
  "contractName": "SignatureBouncer",
  "abi": [
    {
      "constant": true,
      "inputs": [
        {
          "name": "account",
          "type": "address"
        }
      ],
      "name": "isSigner",
      "outputs": [
        {
          "name": "",
          "type": "bool"
        }
      ],
      "payable": false,
      "stateMutability": "view",
      "type": "function"
    },
    {
      "constant": false,
      "inputs": [],
      "name": "renounceSigner",
      "outputs": [],
      "payable": false,
      "stateMutability": "nonpayable",
      "type": "function"
    },
    {
      "constant": false,
      "inputs": [
        {
          "name": "account",
          "type": "address"
        }
      ],
      "name": "addSigner",
      "outputs": [],
      "payable": false,
      "stateMutability": "nonpayable",
      "type": "function"
    },
    {
      "anonymous": false,
      "inputs": [
        {
          "indexed": true,
          "name": "account",
          "type": "address"
        }
      ],
      "name": "SignerAdded",
      "type": "event"
    },
    {
      "anonymous": false,
      "inputs": [
        {
          "indexed": true,
          "name": "account",
          "type": "address"
        }
      ],
      "name": "SignerRemoved",
      "type": "event"
    },
    {
      "constant": false,
      "inputs": [
        {
          "name": "sender",
          "type": "address"
        }
      ],
      "name": "initialize",
      "outputs": [],
      "payable": false,
      "stateMutability": "nonpayable",
      "type": "function"
    }
  ],
  "bytecode": "0x608060405234801561001057600080fd5b506106be806100206000396000f3fe608060405234801561001057600080fd5b5060043610610069576000357c0100000000000000000000000000000000000000000000000000000000900480637df73e271461006e578063c4d66de8146100ca578063e5c8b03d1461010e578063eb12d61e14610118575b600080fd5b6100b06004803603602081101561008457600080fd5b81019080803573ffffffffffffffffffffffffffffffffffffffff16906020019092919050505061015c565b604051808215151515815260200191505060405180910390f35b61010c600480360360208110156100e057600080fd5b81019080803573ffffffffffffffffffffffffffffffffffffffff169060200190929190505050610179565b005b610116610275565b005b61015a6004803603602081101561012e57600080fd5b81019080803573ffffffffffffffffffffffffffffffffffffffff169060200190929190505050610280565b005b60006101728260336102a090919063ffffffff16565b9050919050565b600060019054906101000a900460ff16806101985750610197610334565b5b806101af57506000809054906101000a900460ff16155b1515610206576040517f08c379a000000000000000000000000000000000000000000000000000000000815260040180806020018281038252602e815260200180610665602e913960400191505060405180910390fd5b60008060019054906101000a900460ff1690506001600060016101000a81548160ff02191690831515021790555060016000806101000a81548160ff02191690831515021790555061025782610345565b80600060016101000a81548160ff0219169083151502179055505050565b61027e33610451565b565b6102893361015c565b151561029457600080fd5b61029d816104ab565b50565b60008073ffffffffffffffffffffffffffffffffffffffff168273ffffffffffffffffffffffffffffffffffffffff16141515156102dd57600080fd5b8260000160008373ffffffffffffffffffffffffffffffffffffffff1673ffffffffffffffffffffffffffffffffffffffff16815260200190815260200160002060009054906101000a900460ff16905092915050565b600080303b90506000811491505090565b600060019054906101000a900460ff16806103645750610363610334565b5b8061037b57506000809054906101000a900460ff16155b15156103d2576040517f08c379a000000000000000000000000000000000000000000000000000000000815260040180806020018281038252602e815260200180610665602e913960400191505060405180910390fd5b60008060019054906101000a900460ff1690506001600060016101000a81548160ff02191690831515021790555060016000806101000a81548160ff0219169083151502179055506104238261015c565b151561043357610432826104ab565b5b80600060016101000a81548160ff0219169083151502179055505050565b61046581603361050590919063ffffffff16565b8073ffffffffffffffffffffffffffffffffffffffff167f3525e22824a8a7df2c9a6029941c824cf95b6447f1e13d5128fd3826d35afe8b60405160405180910390a250565b6104bf8160336105b490919063ffffffff16565b8073ffffffffffffffffffffffffffffffffffffffff167f47d1c22a25bb3a5d4e481b9b1e6944c2eade3181a0a20b495ed61d35b5323f2460405160405180910390a250565b600073ffffffffffffffffffffffffffffffffffffffff168173ffffffffffffffffffffffffffffffffffffffff161415151561054157600080fd5b61054b82826102a0565b151561055657600080fd5b60008260000160008373ffffffffffffffffffffffffffffffffffffffff1673ffffffffffffffffffffffffffffffffffffffff16815260200190815260200160002060006101000a81548160ff0219169083151502179055505050565b600073ffffffffffffffffffffffffffffffffffffffff168173ffffffffffffffffffffffffffffffffffffffff16141515156105f057600080fd5b6105fa82826102a0565b15151561060657600080fd5b60018260000160008373ffffffffffffffffffffffffffffffffffffffff1673ffffffffffffffffffffffffffffffffffffffff16815260200190815260200160002060006101000a81548160ff021916908315150217905550505056fe436f6e747261637420696e7374616e63652068617320616c7265616479206265656e20696e697469616c697a6564a165627a7a7230582010dd8f7f7298d5dfedb736713a2e9662f286d23f71a6a4c44574b867b95220110029",
  "source": "pragma solidity ^0.5.2;\n\nimport \"zos-lib/contracts/Initializable.sol\";\nimport \"../access/roles/SignerRole.sol\";\nimport \"../cryptography/ECDSA.sol\";\n\n/**\n * @title SignatureBouncer\n * @author PhABC, Shrugs and aflesher\n * @dev SignatureBouncer allows users to submit a signature as a permission to\n * do an action.\n * If the signature is from one of the authorized signer addresses, the\n * signature is valid.\n * Note that SignatureBouncer offers no protection against replay attacks, users\n * must add this themselves!\n *\n * Signer addresses can be individual servers signing grants or different\n * users within a decentralized club that have permission to invite other\n * members. This technique is useful for whitelists and airdrops; instead of\n * putting all valid addresses on-chain, simply sign a grant of the form\n * keccak256(abi.encodePacked(`:contractAddress` + `:granteeAddress`)) using a\n * valid signer address.\n * Then restrict access to your crowdsale/whitelist/airdrop using the\n * `onlyValidSignature` modifier (or implement your own using _isValidSignature).\n * In addition to `onlyValidSignature`, `onlyValidSignatureAndMethod` and\n * `onlyValidSignatureAndData` can be used to restrict access to only a given\n * method or a given method with given parameters respectively.\n * See the tests in SignatureBouncer.test.js for specific usage examples.\n *\n * @notice A method that uses the `onlyValidSignatureAndData` modifier must make\n * the _signature parameter the \"last\" parameter. You cannot sign a message that\n * has its own signature in it so the last 128 bytes of msg.data (which\n * represents the length of the _signature data and the _signature data itself)\n * is ignored when validating. Also non fixed sized parameters make constructing\n * the data in the signature much more complex.\n * See https://ethereum.stackexchange.com/a/50616 for more details.\n */\ncontract SignatureBouncer is Initializable, SignerRole {\n    using ECDSA for bytes32;\n\n    // Function selectors are 4 bytes long, as documented in\n    // https://solidity.readthedocs.io/en/v0.4.24/abi-spec.html#function-selector\n    uint256 private constant _METHOD_ID_SIZE = 4;\n    // Signature size is 65 bytes (tightly packed v + r + s), but gets padded to 96 bytes\n    uint256 private constant _SIGNATURE_SIZE = 96;\n\n    function initialize(address sender) public initializer {\n        SignerRole.initialize(sender);\n    }\n\n    /**\n     * @dev requires that a valid signature of a signer was provided\n     */\n    modifier onlyValidSignature(bytes memory signature) {\n        require(_isValidSignature(msg.sender, signature));\n        _;\n    }\n\n    /**\n     * @dev requires that a valid signature with a specified method of a signer was provided\n     */\n    modifier onlyValidSignatureAndMethod(bytes memory signature) {\n        require(_isValidSignatureAndMethod(msg.sender, signature));\n        _;\n    }\n\n    /**\n     * @dev requires that a valid signature with a specified method and params of a signer was provided\n     */\n    modifier onlyValidSignatureAndData(bytes memory signature) {\n        require(_isValidSignatureAndData(msg.sender, signature));\n        _;\n    }\n\n    /**\n     * @dev is the signature of `this + account` from a signer?\n     * @return bool\n     */\n    function _isValidSignature(address account, bytes memory signature) internal view returns (bool) {\n        return _isValidDataHash(keccak256(abi.encodePacked(address(this), account)), signature);\n    }\n\n    /**\n     * @dev is the signature of `this + account + methodId` from a signer?\n     * @return bool\n     */\n    function _isValidSignatureAndMethod(address account, bytes memory signature) internal view returns (bool) {\n        bytes memory data = new bytes(_METHOD_ID_SIZE);\n        for (uint i = 0; i < data.length; i++) {\n            data[i] = msg.data[i];\n        }\n        return _isValidDataHash(keccak256(abi.encodePacked(address(this), account, data)), signature);\n    }\n\n    /**\n     * @dev is the signature of `this + account + methodId + params(s)` from a signer?\n     * @notice the signature parameter of the method being validated must be the \"last\" parameter\n     * @return bool\n     */\n    function _isValidSignatureAndData(address account, bytes memory signature) internal view returns (bool) {\n        require(msg.data.length > _SIGNATURE_SIZE);\n\n        bytes memory data = new bytes(msg.data.length - _SIGNATURE_SIZE);\n        for (uint i = 0; i < data.length; i++) {\n            data[i] = msg.data[i];\n        }\n\n        return _isValidDataHash(keccak256(abi.encodePacked(address(this), account, data)), signature);\n    }\n\n    /**\n     * @dev internal function to convert a hash to an eth signed message\n     * and then recover the signature and check it against the signer role\n     * @return bool\n     */\n    function _isValidDataHash(bytes32 hash, bytes memory signature) internal view returns (bool) {\n        address signer = hash.toEthSignedMessageHash().recover(signature);\n\n        return signer != address(0) && isSigner(signer);\n    }\n\n    uint256[50] private ______gap;\n}\n",
  "sourcePath": "/home/frangio/zs/oz/eth/contracts/drafts/SignatureBouncer.sol",
  "compiler": {
    "name": "solc",
    "version": "0.5.2+commit.1df8f40c.Emscripten.clang"
  },
  "schemaVersion": "3.0.0",
  "updatedAt": "2019-06-10T23:33:49.223Z",
  "devdoc": {
    "author": "PhABC, Shrugs and aflesher",
    "details": "SignatureBouncer allows users to submit a signature as a permission to do an action. If the signature is from one of the authorized signer addresses, the signature is valid. Note that SignatureBouncer offers no protection against replay attacks, users must add this themselves! * Signer addresses can be individual servers signing grants or different users within a decentralized club that have permission to invite other members. This technique is useful for whitelists and airdrops; instead of putting all valid addresses on-chain, simply sign a grant of the form keccak256(abi.encodePacked(`:contractAddress` + `:granteeAddress`)) using a valid signer address. Then restrict access to your crowdsale/whitelist/airdrop using the `onlyValidSignature` modifier (or implement your own using _isValidSignature). In addition to `onlyValidSignature`, `onlyValidSignatureAndMethod` and `onlyValidSignatureAndData` can be used to restrict access to only a given method or a given method with given parameters respectively. See the tests in SignatureBouncer.test.js for specific usage examples.",
    "methods": {},
    "title": "SignatureBouncer"
  },
  "userdoc": {
    "methods": {},
    "notice": "A method that uses the `onlyValidSignatureAndData` modifier must make the _signature parameter the \"last\" parameter. You cannot sign a message that has its own signature in it so the last 128 bytes of msg.data (which represents the length of the _signature data and the _signature data itself) is ignored when validating. Also non fixed sized parameters make constructing the data in the signature much more complex. See https://ethereum.stackexchange.com/a/50616 for more details."
  }
}