{
  "contractName": "ERC20Snapshot",
  "abi": [
    {
      "constant": false,
      "inputs": [
        {
          "name": "spender",
          "type": "address"
        },
        {
          "name": "value",
          "type": "uint256"
        }
      ],
      "name": "approve",
      "outputs": [
        {
          "name": "",
          "type": "bool"
        }
      ],
      "payable": false,
      "stateMutability": "nonpayable",
      "type": "function"
    },
    {
      "constant": true,
      "inputs": [],
      "name": "totalSupply",
      "outputs": [
        {
          "name": "",
          "type": "uint256"
        }
      ],
      "payable": false,
      "stateMutability": "view",
      "type": "function"
    },
    {
      "constant": false,
      "inputs": [
        {
          "name": "from",
          "type": "address"
        },
        {
          "name": "to",
          "type": "address"
        },
        {
          "name": "value",
          "type": "uint256"
        }
      ],
      "name": "transferFrom",
      "outputs": [
        {
          "name": "",
          "type": "bool"
        }
      ],
      "payable": false,
      "stateMutability": "nonpayable",
      "type": "function"
    },
    {
      "constant": false,
      "inputs": [
        {
          "name": "spender",
          "type": "address"
        },
        {
          "name": "addedValue",
          "type": "uint256"
        }
      ],
      "name": "increaseAllowance",
      "outputs": [
        {
          "name": "",
          "type": "bool"
        }
      ],
      "payable": false,
      "stateMutability": "nonpayable",
      "type": "function"
    },
    {
      "constant": true,
      "inputs": [
        {
          "name": "owner",
          "type": "address"
        }
      ],
      "name": "balanceOf",
      "outputs": [
        {
          "name": "",
          "type": "uint256"
        }
      ],
      "payable": false,
      "stateMutability": "view",
      "type": "function"
    },
    {
      "constant": false,
      "inputs": [
        {
          "name": "spender",
          "type": "address"
        },
        {
          "name": "subtractedValue",
          "type": "uint256"
        }
      ],
      "name": "decreaseAllowance",
      "outputs": [
        {
          "name": "",
          "type": "bool"
        }
      ],
      "payable": false,
      "stateMutability": "nonpayable",
      "type": "function"
    },
    {
      "constant": false,
      "inputs": [
        {
          "name": "to",
          "type": "address"
        },
        {
          "name": "value",
          "type": "uint256"
        }
      ],
      "name": "transfer",
      "outputs": [
        {
          "name": "",
          "type": "bool"
        }
      ],
      "payable": false,
      "stateMutability": "nonpayable",
      "type": "function"
    },
    {
      "constant": true,
      "inputs": [
        {
          "name": "owner",
          "type": "address"
        },
        {
          "name": "spender",
          "type": "address"
        }
      ],
      "name": "allowance",
      "outputs": [
        {
          "name": "",
          "type": "uint256"
        }
      ],
      "payable": false,
      "stateMutability": "view",
      "type": "function"
    },
    {
      "anonymous": false,
      "inputs": [
        {
          "indexed": false,
          "name": "id",
          "type": "uint256"
        }
      ],
      "name": "Snapshot",
      "type": "event"
    },
    {
      "anonymous": false,
      "inputs": [
        {
          "indexed": true,
          "name": "from",
          "type": "address"
        },
        {
          "indexed": true,
          "name": "to",
          "type": "address"
        },
        {
          "indexed": false,
          "name": "value",
          "type": "uint256"
        }
      ],
      "name": "Transfer",
      "type": "event"
    },
    {
      "anonymous": false,
      "inputs": [
        {
          "indexed": true,
          "name": "owner",
          "type": "address"
        },
        {
          "indexed": true,
          "name": "spender",
          "type": "address"
        },
        {
          "indexed": false,
          "name": "value",
          "type": "uint256"
        }
      ],
      "name": "Approval",
      "type": "event"
    },
    {
      "constant": false,
      "inputs": [],
      "name": "snapshot",
      "outputs": [
        {
          "name": "",
          "type": "uint256"
        }
      ],
      "payable": false,
      "stateMutability": "nonpayable",
      "type": "function"
    },
    {
      "constant": true,
      "inputs": [
        {
          "name": "account",
          "type": "address"
        },
        {
          "name": "snapshotId",
          "type": "uint256"
        }
      ],
      "name": "balanceOfAt",
      "outputs": [
        {
          "name": "",
          "type": "uint256"
        }
      ],
      "payable": false,
      "stateMutability": "view",
      "type": "function"
    },
    {
      "constant": true,
      "inputs": [
        {
          "name": "snapshotId",
          "type": "uint256"
        }
      ],
      "name": "totalSupplyAt",
      "outputs": [
        {
          "name": "",
          "type": "uint256"
        }
      ],
      "payable": false,
      "stateMutability": "view",
      "type": "function"
    }
  ],
  "bytecode": "0x608060405234801561001057600080fd5b50610f25806100206000396000f3fe608060405234801561001057600080fd5b50600436106100c6576000357c01000000000000000000000000000000000000000000000000000000009004806370a082311161008e57806370a082311461029d5780639711715a146102f5578063981b24d014610313578063a457c2d714610355578063a9059cbb146103bb578063dd62ed3e14610421576100c6565b8063095ea7b3146100cb57806318160ddd1461013157806323b872dd1461014f57806339509351146101d55780634ee2cd7e1461023b575b600080fd5b610117600480360360408110156100e157600080fd5b81019080803573ffffffffffffffffffffffffffffffffffffffff16906020019092919080359060200190929190505050610499565b604051808215151515815260200191505060405180910390f35b6101396104b0565b6040518082815260200191505060405180910390f35b6101bb6004803603606081101561016557600080fd5b81019080803573ffffffffffffffffffffffffffffffffffffffff169060200190929190803573ffffffffffffffffffffffffffffffffffffffff169060200190929190803590602001909291905050506104ba565b604051808215151515815260200191505060405180910390f35b610221600480360360408110156101eb57600080fd5b81019080803573ffffffffffffffffffffffffffffffffffffffff1690602001909291908035906020019092919050505061056b565b604051808215151515815260200191505060405180910390f35b6102876004803603604081101561025157600080fd5b81019080803573ffffffffffffffffffffffffffffffffffffffff16906020019092919080359060200190929190505050610610565b6040518082815260200191505060405180910390f35b6102df600480360360208110156102b357600080fd5b81019080803573ffffffffffffffffffffffffffffffffffffffff169060200190929190505050610680565b6040518082815260200191505060405180910390f35b6102fd6106c9565b6040518082815260200191505060405180910390f35b61033f6004803603602081101561032957600080fd5b8101908080359060200190929190505050610721565b6040518082815260200191505060405180910390f35b6103a16004803603604081101561036b57600080fd5b81019080803573ffffffffffffffffffffffffffffffffffffffff16906020019092919080359060200190929190505050610752565b604051808215151515815260200191505060405180910390f35b610407600480360360408110156103d157600080fd5b81019080803573ffffffffffffffffffffffffffffffffffffffff169060200190929190803590602001909291905050506107f7565b604051808215151515815260200191505060405180910390f35b6104836004803603604081101561043757600080fd5b81019080803573ffffffffffffffffffffffffffffffffffffffff169060200190929190803573ffffffffffffffffffffffffffffffffffffffff16906020019092919050505061080e565b6040518082815260200191505060405180910390f35b60006104a6338484610895565b6001905092915050565b6000603554905090565b60006104c78484846109f8565b610560843361055b85603460008a73ffffffffffffffffffffffffffffffffffffffff1673ffffffffffffffffffffffffffffffffffffffff16815260200190815260200160002060003373ffffffffffffffffffffffffffffffffffffffff1673ffffffffffffffffffffffffffffffffffffffff16815260200190815260200160002054610a1a90919063ffffffff16565b610895565b600190509392505050565b6000610606338461060185603460003373ffffffffffffffffffffffffffffffffffffffff1673ffffffffffffffffffffffffffffffffffffffff16815260200190815260200160002060008973ffffffffffffffffffffffffffffffffffffffff1673ffffffffffffffffffffffffffffffffffffffff16815260200190815260200160002054610a3c90919063ffffffff16565b610895565b6001905092915050565b600080600061065d84606860008873ffffffffffffffffffffffffffffffffffffffff1673ffffffffffffffffffffffffffffffffffffffff168152602001908152602001600020610a5d565b91509150816106745761066f85610680565b610676565b805b9250505092915050565b6000603360008373ffffffffffffffffffffffffffffffffffffffff1673ffffffffffffffffffffffffffffffffffffffff168152602001908152602001600020549050919050565b60006106d5606b610aeb565b60006106e1606b610b01565b90507f8030e83b04d87bef53480e26263266d6ca66863aa8506aca6f2559d18aa1cb67816040518082815260200191505060405180910390a18091505090565b6000806000610731846069610a5d565b9150915081610747576107426104b0565b610749565b805b92505050919050565b60006107ed33846107e885603460003373ffffffffffffffffffffffffffffffffffffffff1673ffffffffffffffffffffffffffffffffffffffff16815260200190815260200160002060008973ffffffffffffffffffffffffffffffffffffffff1673ffffffffffffffffffffffffffffffffffffffff16815260200190815260200160002054610a1a90919063ffffffff16565b610895565b6001905092915050565b60006108043384846109f8565b6001905092915050565b6000603460008473ffffffffffffffffffffffffffffffffffffffff1673ffffffffffffffffffffffffffffffffffffffff16815260200190815260200160002060008373ffffffffffffffffffffffffffffffffffffffff1673ffffffffffffffffffffffffffffffffffffffff16815260200190815260200160002054905092915050565b600073ffffffffffffffffffffffffffffffffffffffff168273ffffffffffffffffffffffffffffffffffffffff16141515156108d157600080fd5b600073ffffffffffffffffffffffffffffffffffffffff168373ffffffffffffffffffffffffffffffffffffffff161415151561090d57600080fd5b80603460008573ffffffffffffffffffffffffffffffffffffffff1673ffffffffffffffffffffffffffffffffffffffff16815260200190815260200160002060008473ffffffffffffffffffffffffffffffffffffffff1673ffffffffffffffffffffffffffffffffffffffff168152602001908152602001600020819055508173ffffffffffffffffffffffffffffffffffffffff168373ffffffffffffffffffffffffffffffffffffffff167f8c5be1e5ebec7d5bd14f71427d1e84f3dd0314c0f7b2291e5b200ac8c7c3b925836040518082815260200191505060405180910390a3505050565b610a0183610b0f565b610a0a82610b0f565b610a15838383610b62565b505050565b6000828211151515610a2b57600080fd5b600082840390508091505092915050565b6000808284019050838110151515610a5357600080fd5b8091505092915050565b600080600084111515610a6f57600080fd5b610a79606b610b01565b8411151515610a8757600080fd5b6000610a9f8585600001610d3290919063ffffffff16565b90508360000180549050811415610ac0576000808090509250925050610ae4565b60018460010182815481101515610ad357fe5b906000526020600020015492509250505b9250929050565b6001816000016000828254019250508190555050565b600081600001549050919050565b610b5f606860008373ffffffffffffffffffffffffffffffffffffffff1673ffffffffffffffffffffffffffffffffffffffff168152602001908152602001600020610b5a83610680565b610deb565b50565b600073ffffffffffffffffffffffffffffffffffffffff168273ffffffffffffffffffffffffffffffffffffffff1614151515610b9e57600080fd5b610bf081603360008673ffffffffffffffffffffffffffffffffffffffff1673ffffffffffffffffffffffffffffffffffffffff16815260200190815260200160002054610a1a90919063ffffffff16565b603360008573ffffffffffffffffffffffffffffffffffffffff1673ffffffffffffffffffffffffffffffffffffffff16815260200190815260200160002081905550610c8581603360008573ffffffffffffffffffffffffffffffffffffffff1673ffffffffffffffffffffffffffffffffffffffff16815260200190815260200160002054610a3c90919063ffffffff16565b603360008473ffffffffffffffffffffffffffffffffffffffff1673ffffffffffffffffffffffffffffffffffffffff168152602001908152602001600020819055508173ffffffffffffffffffffffffffffffffffffffff168373ffffffffffffffffffffffffffffffffffffffff167fddf252ad1be2c89b69c2b068fc378daa952ba7f163c4a11628f55a4df523b3ef836040518082815260200191505060405180910390a3505050565b60008083805490501415610d495760009050610de5565b60008090506000848054905090505b80821015610da3576000610d6c8383610e6e565b9050848682815481101515610d7d57fe5b90600052602060002001541115610d9657809150610d9d565b6001810192505b50610d58565b600082118015610dcd5750838560018403815481101515610dc057fe5b9060005260206000200154145b15610ddf576001820392505050610de5565b81925050505b92915050565b6000610df7606b610b01565b905080610e0684600001610eba565b1015610e695782600001819080600181540180825580915050906001820390600052602060002001600090919290919091505550826001018290806001815401808255809150509060018203906000526020600020016000909192909190915055505b505050565b600060028083811515610e7d57fe5b06600285811515610e8a57fe5b0601811515610e9557fe5b04600283811515610ea257fe5b04600285811515610eaf57fe5b040101905092915050565b60008082805490501415610ed15760009050610ef4565b816001838054905003815481101515610ee657fe5b906000526020600020015490505b91905056fea165627a7a723058200fb2ecb0d1302bb1895767207a76bac3fa0d5e7090edaf842bb8f96ecb197b8d0029",
  "source": "pragma solidity ^0.5.2;\n\nimport \"zos-lib/contracts/Initializable.sol\";\nimport \"../math/SafeMath.sol\";\nimport \"../utils/Arrays.sol\";\nimport \"../drafts/Counters.sol\";\nimport \"../token/ERC20/ERC20.sol\";\n\n/**\n * @title ERC20 token with snapshots.\n * @dev Inspired by Jordi Baylina's MiniMeToken to record historical balances:\n * https://github.com/Giveth/minime/blob/ea04d950eea153a04c51fa510b068b9dded390cb/contracts/MiniMeToken.sol\n * When a snapshot is made, the balances and totalSupply at the time of the snapshot are recorded for later\n * access.\n *\n * To make a snapshot, call the `snapshot` function, which will emit the `Snapshot` event and return a snapshot id.\n * To get the total supply from a snapshot, call the function `totalSupplyAt` with the snapshot id.\n * To get the balance of an account from a snapshot, call the `balanceOfAt` function with the snapshot id and the\n * account address.\n * @author Validity Labs AG <info@validitylabs.org>\n */\ncontract ERC20Snapshot is Initializable, ERC20 {\n    using SafeMath for uint256;\n    using Arrays for uint256[];\n    using Counters for Counters.Counter;\n\n    // Snapshotted values have arrays of ids and the value corresponding to that id. These could be an array of a\n    // Snapshot struct, but that would impede usage of functions that work on an array.\n    struct Snapshots {\n        uint256[] ids;\n        uint256[] values;\n    }\n\n    mapping (address => Snapshots) private _accountBalanceSnapshots;\n    Snapshots private _totalSupplySnaphots;\n\n    // Snapshot ids increase monotonically, with the first value being 1. An id of 0 is invalid.\n    Counters.Counter private _currentSnapshotId;\n\n    event Snapshot(uint256 id);\n\n    // Creates a new snapshot id. Balances are only stored in snapshots on demand: unless a snapshot was taken, a\n    // balance change will not be recorded. This means the extra added cost of storing snapshotted balances is only paid\n    // when required, but is also flexible enough that it allows for e.g. daily snapshots.\n    function snapshot() public returns (uint256) {\n        _currentSnapshotId.increment();\n\n        uint256 currentId = _currentSnapshotId.current();\n        emit Snapshot(currentId);\n        return currentId;\n    }\n\n    function balanceOfAt(address account, uint256 snapshotId) public view returns (uint256) {\n        (bool snapshotted, uint256 value) = _valueAt(snapshotId, _accountBalanceSnapshots[account]);\n\n        return snapshotted ? value : balanceOf(account);\n    }\n\n    function totalSupplyAt(uint256 snapshotId) public view returns(uint256) {\n        (bool snapshotted, uint256 value) = _valueAt(snapshotId, _totalSupplySnaphots);\n\n        return snapshotted ? value : totalSupply();\n    }\n\n    // _transfer, _mint and _burn are the only functions where the balances are modified, so it is there that the\n    // snapshots are updated. Note that the update happens _before_ the balance change, with the pre-modified value.\n    // The same is true for the total supply and _mint and _burn.\n    function _transfer(address from, address to, uint256 value) internal {\n        _updateAccountSnapshot(from);\n        _updateAccountSnapshot(to);\n\n        super._transfer(from, to, value);\n    }\n\n    function _mint(address account, uint256 value) internal {\n        _updateAccountSnapshot(account);\n        _updateTotalSupplySnapshot();\n\n        super._mint(account, value);\n    }\n\n    function _burn(address account, uint256 value) internal {\n        _updateAccountSnapshot(account);\n        _updateTotalSupplySnapshot();\n\n        super._burn(account, value);\n    }\n\n    // When a valid snapshot is queried, there are three possibilities:\n    //  a) The queried value was not modified after the snapshot was taken. Therefore, a snapshot entry was never\n    //  created for this id, and all stored snapshot ids are smaller than the requested one. The value that corresponds\n    //  to this id is the current one.\n    //  b) The queried value was modified after the snapshot was taken. Therefore, there will be an entry with the\n    //  requested id, and its value is the one to return.\n    //  c) More snapshots were created after the requested one, and the queried value was later modified. There will be\n    //  no entry for the requested id: the value that corresponds to it is that of the smallest snapshot id that is\n    //  larger than the requested one.\n    //\n    // In summary, we need to find an element in an array, returning the index of the smallest value that is larger if\n    // it is not found, unless said value doesn't exist (e.g. when all values are smaller). Arrays.findUpperBound does\n    // exactly this.\n    function _valueAt(uint256 snapshotId, Snapshots storage snapshots)\n        private view returns (bool, uint256)\n    {\n        require(snapshotId > 0);\n        require(snapshotId <= _currentSnapshotId.current());\n\n        uint256 index = snapshots.ids.findUpperBound(snapshotId);\n\n        if (index == snapshots.ids.length) {\n            return (false, 0);\n        } else {\n            return (true, snapshots.values[index]);\n        }\n    }\n\n    function _updateAccountSnapshot(address account) private {\n        _updateSnapshot(_accountBalanceSnapshots[account], balanceOf(account));\n    }\n\n    function _updateTotalSupplySnapshot() private {\n        _updateSnapshot(_totalSupplySnaphots, totalSupply());\n    }\n\n    function _updateSnapshot(Snapshots storage snapshots, uint256 currentValue) private {\n        uint256 currentId = _currentSnapshotId.current();\n        if (_lastSnapshotId(snapshots.ids) < currentId) {\n            snapshots.ids.push(currentId);\n            snapshots.values.push(currentValue);\n        }\n    }\n\n    function _lastSnapshotId(uint256[] storage ids) private view returns (uint256) {\n        if (ids.length == 0) {\n            return 0;\n        } else {\n            return ids[ids.length - 1];\n        }\n    }\n\n    uint256[50] private ______gap;\n}\n",
  "sourcePath": "openzeppelin-eth/contracts/drafts/ERC20Snapshot.sol",
  "compiler": {
    "name": "solc",
    "version": "0.5.2+commit.1df8f40c.Emscripten.clang"
  },
  "schemaVersion": "3.0.11",
  "updatedAt": "2019-06-20T17:23:17.036Z",
  "devdoc": {
    "author": "Validity Labs AG <info@validitylabs.org>",
    "details": "Inspired by Jordi Baylina's MiniMeToken to record historical balances: https://github.com/Giveth/minime/blob/ea04d950eea153a04c51fa510b068b9dded390cb/contracts/MiniMeToken.sol When a snapshot is made, the balances and totalSupply at the time of the snapshot are recorded for later access. * To make a snapshot, call the `snapshot` function, which will emit the `Snapshot` event and return a snapshot id. To get the total supply from a snapshot, call the function `totalSupplyAt` with the snapshot id. To get the balance of an account from a snapshot, call the `balanceOfAt` function with the snapshot id and the account address.",
    "methods": {
      "allowance(address,address)": {
        "details": "Function to check the amount of tokens that an owner allowed to a spender.",
        "params": {
          "owner": "address The address which owns the funds.",
          "spender": "address The address which will spend the funds."
        },
        "return": "A uint256 specifying the amount of tokens still available for the spender."
      },
      "approve(address,uint256)": {
        "details": "Approve the passed address to spend the specified amount of tokens on behalf of msg.sender. Beware that changing an allowance with this method brings the risk that someone may use both the old and the new allowance by unfortunate transaction ordering. One possible solution to mitigate this race condition is to first reduce the spender's allowance to 0 and set the desired value afterwards: https://github.com/ethereum/EIPs/issues/20#issuecomment-263524729",
        "params": {
          "spender": "The address which will spend the funds.",
          "value": "The amount of tokens to be spent."
        }
      },
      "balanceOf(address)": {
        "details": "Gets the balance of the specified address.",
        "params": {
          "owner": "The address to query the balance of."
        },
        "return": "A uint256 representing the amount owned by the passed address."
      },
      "decreaseAllowance(address,uint256)": {
        "details": "Decrease the amount of tokens that an owner allowed to a spender. approve should be called when _allowed[msg.sender][spender] == 0. To decrement allowed value is better to use this function to avoid 2 calls (and wait until the first transaction is mined) From MonolithDAO Token.sol Emits an Approval event.",
        "params": {
          "spender": "The address which will spend the funds.",
          "subtractedValue": "The amount of tokens to decrease the allowance by."
        }
      },
      "increaseAllowance(address,uint256)": {
        "details": "Increase the amount of tokens that an owner allowed to a spender. approve should be called when _allowed[msg.sender][spender] == 0. To increment allowed value is better to use this function to avoid 2 calls (and wait until the first transaction is mined) From MonolithDAO Token.sol Emits an Approval event.",
        "params": {
          "addedValue": "The amount of tokens to increase the allowance by.",
          "spender": "The address which will spend the funds."
        }
      },
      "totalSupply()": {
        "details": "Total number of tokens in existence"
      },
      "transfer(address,uint256)": {
        "details": "Transfer token to a specified address",
        "params": {
          "to": "The address to transfer to.",
          "value": "The amount to be transferred."
        }
      },
      "transferFrom(address,address,uint256)": {
        "details": "Transfer tokens from one address to another. Note that while this function emits an Approval event, this is not required as per the specification, and other compliant implementations may not emit the event.",
        "params": {
          "from": "address The address which you want to send tokens from",
          "to": "address The address which you want to transfer to",
          "value": "uint256 the amount of tokens to be transferred"
        }
      }
    },
    "title": "ERC20 token with snapshots."
  },
  "userdoc": {
    "methods": {}
  }
}