{
  "contractName": "MinterRole",
  "abi": [
    {
      "anonymous": false,
      "inputs": [
        {
          "indexed": true,
          "name": "account",
          "type": "address"
        }
      ],
      "name": "MinterAdded",
      "type": "event"
    },
    {
      "anonymous": false,
      "inputs": [
        {
          "indexed": true,
          "name": "account",
          "type": "address"
        }
      ],
      "name": "MinterRemoved",
      "type": "event"
    },
    {
      "constant": false,
      "inputs": [
        {
          "name": "sender",
          "type": "address"
        }
      ],
      "name": "initialize",
      "outputs": [],
      "payable": false,
      "stateMutability": "nonpayable",
      "type": "function"
    },
    {
      "constant": true,
      "inputs": [
        {
          "name": "account",
          "type": "address"
        }
      ],
      "name": "isMinter",
      "outputs": [
        {
          "name": "",
          "type": "bool"
        }
      ],
      "payable": false,
      "stateMutability": "view",
      "type": "function"
    },
    {
      "constant": false,
      "inputs": [
        {
          "name": "account",
          "type": "address"
        }
      ],
      "name": "addMinter",
      "outputs": [],
      "payable": false,
      "stateMutability": "nonpayable",
      "type": "function"
    },
    {
      "constant": false,
      "inputs": [],
      "name": "renounceMinter",
      "outputs": [],
      "payable": false,
      "stateMutability": "nonpayable",
      "type": "function"
    }
  ],
  "bytecode": "0x608060405234801561001057600080fd5b506105c2806100206000396000f3fe608060405234801561001057600080fd5b5060043610610069576000357c010000000000000000000000000000000000000000000000000000000090048063983b2d561461006e57806398650275146100b2578063aa271e1a146100bc578063c4d66de814610118575b600080fd5b6100b06004803603602081101561008457600080fd5b81019080803573ffffffffffffffffffffffffffffffffffffffff16906020019092919050505061015c565b005b6100ba61017c565b005b6100fe600480360360208110156100d257600080fd5b81019080803573ffffffffffffffffffffffffffffffffffffffff169060200190929190505050610187565b604051808215151515815260200191505060405180910390f35b61015a6004803603602081101561012e57600080fd5b81019080803573ffffffffffffffffffffffffffffffffffffffff1690602001909291905050506101a4565b005b61016533610187565b151561017057600080fd5b610179816102b0565b50565b6101853361030a565b565b600061019d82603361036490919063ffffffff16565b9050919050565b600060019054906101000a900460ff16806101c357506101c26103f8565b5b806101da57506000809054906101000a900460ff16155b1515610231576040517f08c379a000000000000000000000000000000000000000000000000000000000815260040180806020018281038252602e815260200180610569602e913960400191505060405180910390fd5b60008060019054906101000a900460ff1690506001600060016101000a81548160ff02191690831515021790555060016000806101000a81548160ff02191690831515021790555061028282610187565b151561029257610291826102b0565b5b80600060016101000a81548160ff0219169083151502179055505050565b6102c481603361040990919063ffffffff16565b8073ffffffffffffffffffffffffffffffffffffffff167f6ae172837ea30b801fbfcdd4108aa1d5bf8ff775444fd70256b44e6bf3dfc3f660405160405180910390a250565b61031e8160336104b990919063ffffffff16565b8073ffffffffffffffffffffffffffffffffffffffff167fe94479a9f7e1952cc78f2d6baab678adc1b772d936c6583def489e524cb6669260405160405180910390a250565b60008073ffffffffffffffffffffffffffffffffffffffff168273ffffffffffffffffffffffffffffffffffffffff16141515156103a157600080fd5b8260000160008373ffffffffffffffffffffffffffffffffffffffff1673ffffffffffffffffffffffffffffffffffffffff16815260200190815260200160002060009054906101000a900460ff16905092915050565b600080303b90506000811491505090565b600073ffffffffffffffffffffffffffffffffffffffff168173ffffffffffffffffffffffffffffffffffffffff161415151561044557600080fd5b61044f8282610364565b15151561045b57600080fd5b60018260000160008373ffffffffffffffffffffffffffffffffffffffff1673ffffffffffffffffffffffffffffffffffffffff16815260200190815260200160002060006101000a81548160ff0219169083151502179055505050565b600073ffffffffffffffffffffffffffffffffffffffff168173ffffffffffffffffffffffffffffffffffffffff16141515156104f557600080fd5b6104ff8282610364565b151561050a57600080fd5b60008260000160008373ffffffffffffffffffffffffffffffffffffffff1673ffffffffffffffffffffffffffffffffffffffff16815260200190815260200160002060006101000a81548160ff021916908315150217905550505056fe436f6e747261637420696e7374616e63652068617320616c7265616479206265656e20696e697469616c697a6564a165627a7a7230582035486a2094e3b06db3ea45ac9ea73790ece5fed6c503ef839882e7bad92de3680029",
  "source": "pragma solidity ^0.5.2;\n\nimport \"zos-lib/contracts/Initializable.sol\";\nimport \"../Roles.sol\";\n\n\ncontract MinterRole is Initializable {\n    using Roles for Roles.Role;\n\n    event MinterAdded(address indexed account);\n    event MinterRemoved(address indexed account);\n\n    Roles.Role private _minters;\n\n    function initialize(address sender) public initializer {\n        if (!isMinter(sender)) {\n            _addMinter(sender);\n        }\n    }\n\n    modifier onlyMinter() {\n        require(isMinter(msg.sender));\n        _;\n    }\n\n    function isMinter(address account) public view returns (bool) {\n        return _minters.has(account);\n    }\n\n    function addMinter(address account) public onlyMinter {\n        _addMinter(account);\n    }\n\n    function renounceMinter() public {\n        _removeMinter(msg.sender);\n    }\n\n    function _addMinter(address account) internal {\n        _minters.add(account);\n        emit MinterAdded(account);\n    }\n\n    function _removeMinter(address account) internal {\n        _minters.remove(account);\n        emit MinterRemoved(account);\n    }\n\n    uint256[50] private ______gap;\n}\n",
  "sourcePath": "openzeppelin-eth/contracts/access/roles/MinterRole.sol",
  "compiler": {
    "name": "solc",
    "version": "0.5.2+commit.1df8f40c.Emscripten.clang"
  },
  "schemaVersion": "3.0.11",
  "updatedAt": "2019-06-20T17:23:17.020Z",
  "devdoc": {
    "methods": {}
  },
  "userdoc": {
    "methods": {}
  }
}