{
  "contractName": "MyToken2",
  "abi": [
    {
      "constant": true,
      "inputs": [],
      "name": "name",
      "outputs": [
        {
          "name": "",
          "type": "string"
        }
      ],
      "payable": false,
      "stateMutability": "view",
      "type": "function"
    },
    {
      "constant": false,
      "inputs": [
        {
          "name": "spender",
          "type": "address"
        },
        {
          "name": "value",
          "type": "uint256"
        }
      ],
      "name": "approve",
      "outputs": [
        {
          "name": "",
          "type": "bool"
        }
      ],
      "payable": false,
      "stateMutability": "nonpayable",
      "type": "function"
    },
    {
      "constant": true,
      "inputs": [],
      "name": "totalSupply",
      "outputs": [
        {
          "name": "",
          "type": "uint256"
        }
      ],
      "payable": false,
      "stateMutability": "view",
      "type": "function"
    },
    {
      "constant": false,
      "inputs": [
        {
          "name": "from",
          "type": "address"
        },
        {
          "name": "to",
          "type": "address"
        },
        {
          "name": "value",
          "type": "uint256"
        }
      ],
      "name": "transferFrom",
      "outputs": [
        {
          "name": "",
          "type": "bool"
        }
      ],
      "payable": false,
      "stateMutability": "nonpayable",
      "type": "function"
    },
    {
      "constant": true,
      "inputs": [],
      "name": "decimals",
      "outputs": [
        {
          "name": "",
          "type": "uint8"
        }
      ],
      "payable": false,
      "stateMutability": "view",
      "type": "function"
    },
    {
      "constant": false,
      "inputs": [
        {
          "name": "spender",
          "type": "address"
        },
        {
          "name": "addedValue",
          "type": "uint256"
        }
      ],
      "name": "increaseAllowance",
      "outputs": [
        {
          "name": "success",
          "type": "bool"
        }
      ],
      "payable": false,
      "stateMutability": "nonpayable",
      "type": "function"
    },
    {
      "constant": false,
      "inputs": [],
      "name": "unpause",
      "outputs": [],
      "payable": false,
      "stateMutability": "nonpayable",
      "type": "function"
    },
    {
      "constant": false,
      "inputs": [
        {
          "name": "to",
          "type": "address"
        },
        {
          "name": "value",
          "type": "uint256"
        }
      ],
      "name": "mint",
      "outputs": [
        {
          "name": "",
          "type": "bool"
        }
      ],
      "payable": false,
      "stateMutability": "nonpayable",
      "type": "function"
    },
    {
      "constant": false,
      "inputs": [
        {
          "name": "value",
          "type": "uint256"
        }
      ],
      "name": "burn",
      "outputs": [],
      "payable": false,
      "stateMutability": "nonpayable",
      "type": "function"
    },
    {
      "constant": true,
      "inputs": [
        {
          "name": "account",
          "type": "address"
        }
      ],
      "name": "isPauser",
      "outputs": [
        {
          "name": "",
          "type": "bool"
        }
      ],
      "payable": false,
      "stateMutability": "view",
      "type": "function"
    },
    {
      "constant": true,
      "inputs": [],
      "name": "paused",
      "outputs": [
        {
          "name": "",
          "type": "bool"
        }
      ],
      "payable": false,
      "stateMutability": "view",
      "type": "function"
    },
    {
      "constant": false,
      "inputs": [],
      "name": "renouncePauser",
      "outputs": [],
      "payable": false,
      "stateMutability": "nonpayable",
      "type": "function"
    },
    {
      "constant": true,
      "inputs": [
        {
          "name": "owner",
          "type": "address"
        }
      ],
      "name": "balanceOf",
      "outputs": [
        {
          "name": "",
          "type": "uint256"
        }
      ],
      "payable": false,
      "stateMutability": "view",
      "type": "function"
    },
    {
      "constant": false,
      "inputs": [
        {
          "name": "from",
          "type": "address"
        },
        {
          "name": "value",
          "type": "uint256"
        }
      ],
      "name": "burnFrom",
      "outputs": [],
      "payable": false,
      "stateMutability": "nonpayable",
      "type": "function"
    },
    {
      "constant": false,
      "inputs": [
        {
          "name": "account",
          "type": "address"
        }
      ],
      "name": "addPauser",
      "outputs": [],
      "payable": false,
      "stateMutability": "nonpayable",
      "type": "function"
    },
    {
      "constant": false,
      "inputs": [],
      "name": "pause",
      "outputs": [],
      "payable": false,
      "stateMutability": "nonpayable",
      "type": "function"
    },
    {
      "constant": true,
      "inputs": [],
      "name": "symbol",
      "outputs": [
        {
          "name": "",
          "type": "string"
        }
      ],
      "payable": false,
      "stateMutability": "view",
      "type": "function"
    },
    {
      "constant": false,
      "inputs": [
        {
          "name": "account",
          "type": "address"
        }
      ],
      "name": "addMinter",
      "outputs": [],
      "payable": false,
      "stateMutability": "nonpayable",
      "type": "function"
    },
    {
      "constant": false,
      "inputs": [],
      "name": "renounceMinter",
      "outputs": [],
      "payable": false,
      "stateMutability": "nonpayable",
      "type": "function"
    },
    {
      "constant": false,
      "inputs": [
        {
          "name": "spender",
          "type": "address"
        },
        {
          "name": "subtractedValue",
          "type": "uint256"
        }
      ],
      "name": "decreaseAllowance",
      "outputs": [
        {
          "name": "success",
          "type": "bool"
        }
      ],
      "payable": false,
      "stateMutability": "nonpayable",
      "type": "function"
    },
    {
      "constant": false,
      "inputs": [
        {
          "name": "to",
          "type": "address"
        },
        {
          "name": "value",
          "type": "uint256"
        }
      ],
      "name": "transfer",
      "outputs": [
        {
          "name": "",
          "type": "bool"
        }
      ],
      "payable": false,
      "stateMutability": "nonpayable",
      "type": "function"
    },
    {
      "constant": true,
      "inputs": [
        {
          "name": "account",
          "type": "address"
        }
      ],
      "name": "isMinter",
      "outputs": [
        {
          "name": "",
          "type": "bool"
        }
      ],
      "payable": false,
      "stateMutability": "view",
      "type": "function"
    },
    {
      "constant": true,
      "inputs": [
        {
          "name": "owner",
          "type": "address"
        },
        {
          "name": "spender",
          "type": "address"
        }
      ],
      "name": "allowance",
      "outputs": [
        {
          "name": "",
          "type": "uint256"
        }
      ],
      "payable": false,
      "stateMutability": "view",
      "type": "function"
    },
    {
      "anonymous": false,
      "inputs": [
        {
          "indexed": false,
          "name": "account",
          "type": "address"
        }
      ],
      "name": "Paused",
      "type": "event"
    },
    {
      "anonymous": false,
      "inputs": [
        {
          "indexed": false,
          "name": "account",
          "type": "address"
        }
      ],
      "name": "Unpaused",
      "type": "event"
    },
    {
      "anonymous": false,
      "inputs": [
        {
          "indexed": true,
          "name": "account",
          "type": "address"
        }
      ],
      "name": "PauserAdded",
      "type": "event"
    },
    {
      "anonymous": false,
      "inputs": [
        {
          "indexed": true,
          "name": "account",
          "type": "address"
        }
      ],
      "name": "PauserRemoved",
      "type": "event"
    },
    {
      "anonymous": false,
      "inputs": [
        {
          "indexed": true,
          "name": "account",
          "type": "address"
        }
      ],
      "name": "MinterAdded",
      "type": "event"
    },
    {
      "anonymous": false,
      "inputs": [
        {
          "indexed": true,
          "name": "account",
          "type": "address"
        }
      ],
      "name": "MinterRemoved",
      "type": "event"
    },
    {
      "anonymous": false,
      "inputs": [
        {
          "indexed": true,
          "name": "from",
          "type": "address"
        },
        {
          "indexed": true,
          "name": "to",
          "type": "address"
        },
        {
          "indexed": false,
          "name": "value",
          "type": "uint256"
        }
      ],
      "name": "Transfer",
      "type": "event"
    },
    {
      "anonymous": false,
      "inputs": [
        {
          "indexed": true,
          "name": "owner",
          "type": "address"
        },
        {
          "indexed": true,
          "name": "spender",
          "type": "address"
        },
        {
          "indexed": false,
          "name": "value",
          "type": "uint256"
        }
      ],
      "name": "Approval",
      "type": "event"
    },
    {
      "constant": false,
      "inputs": [
        {
          "name": "name",
          "type": "string"
        },
        {
          "name": "symbol",
          "type": "string"
        },
        {
          "name": "decimals",
          "type": "uint8"
        }
      ],
      "name": "initialize",
      "outputs": [],
      "payable": false,
      "stateMutability": "nonpayable",
      "type": "function"
    },
    {
      "constant": false,
      "inputs": [
        {
          "name": "sender",
          "type": "address"
        }
      ],
      "name": "initialize",
      "outputs": [],
      "payable": false,
      "stateMutability": "nonpayable",
      "type": "function"
    },
    {
      "constant": false,
      "inputs": [
        {
          "name": "sender",
          "type": "address"
        },
        {
          "name": "name",
          "type": "string"
        },
        {
          "name": "symbol",
          "type": "string"
        },
        {
          "name": "decimals",
          "type": "uint8"
        }
      ],
      "name": "initialize",
      "outputs": [],
      "payable": false,
      "stateMutability": "nonpayable",
      "type": "function"
    },
    {
      "constant": false,
      "inputs": [
        {
          "name": "sender",
          "type": "address"
        }
      ],
      "name": "initializePausable",
      "outputs": [],
      "payable": false,
      "stateMutability": "nonpayable",
      "type": "function"
    }
  ],
  "bytecode": "0x608060405234801561001057600080fd5b506126df806100206000396000f3fe608060405234801561001057600080fd5b50600436106101c6576000357c01000000000000000000000000000000000000000000000000000000009004806370a0823111610116578063a457c2d7116100b4578063b21f2d3b1161008e578063b21f2d3b14610954578063c4d66de814610998578063dd62ed3e146109dc578063f6d2ee8614610a54576101c6565b8063a457c2d71461082c578063a9059cbb14610892578063aa271e1a146108f8576101c6565b80638456cb59116100f05780638456cb591461075157806395d89b411461075b578063983b2d56146107de5780639865027514610822576101c6565b806370a082311461066757806379cc6790146106bf57806382dc1ec41461070d576101c6565b8063395093511161018357806342966c681161015d57806342966c68146105b157806346fbf68e146105df5780635c975abb1461063b5780636ef8d66d1461065d576101c6565b806339509351146104db5780633f4ba83a1461054157806340c10f191461054b576101c6565b806306fdde03146101cb578063095ea7b31461024e5780631624f6c6146102b457806318160ddd1461041357806323b872dd14610431578063313ce567146104b7575b600080fd5b6101d3610bd3565b6040518080602001828103825283818151815260200191508051906020019080838360005b838110156102135780820151818401526020810190506101f8565b50505050905090810190601f1680156102405780820380516001836020036101000a031916815260200191505b509250505060405180910390f35b61029a6004803603604081101561026457600080fd5b81019080803573ffffffffffffffffffffffffffffffffffffffff16906020019092919080359060200190929190505050610c75565b604051808215151515815260200191505060405180910390f35b610411600480360360608110156102ca57600080fd5b81019080803590602001906401000000008111156102e757600080fd5b8201836020820111156102f957600080fd5b8035906020019184600183028401116401000000008311171561031b57600080fd5b91908080601f016020809104026020016040519081016040528093929190818152602001838380828437600081840152601f19601f8201169050808301925050505050505091929192908035906020019064010000000081111561037e57600080fd5b82018360208201111561039057600080fd5b803590602001918460018302840111640100000000831117156103b257600080fd5b91908080601f016020809104026020016040519081016040528093929190818152602001838380828437600081840152601f19601f820116905080830192505050505050509192919290803560ff169060200190929190505050610ca6565b005b61041b610de4565b6040518082815260200191505060405180910390f35b61049d6004803603606081101561044757600080fd5b81019080803573ffffffffffffffffffffffffffffffffffffffff169060200190929190803573ffffffffffffffffffffffffffffffffffffffff16906020019092919080359060200190929190505050610dee565b604051808215151515815260200191505060405180910390f35b6104bf610e21565b604051808260ff1660ff16815260200191505060405180910390f35b610527600480360360408110156104f157600080fd5b81019080803573ffffffffffffffffffffffffffffffffffffffff16906020019092919080359060200190929190505050610e38565b604051808215151515815260200191505060405180910390f35b610549610e69565b005b6105976004803603604081101561056157600080fd5b81019080803573ffffffffffffffffffffffffffffffffffffffff16906020019092919080359060200190929190505050610f1a565b604051808215151515815260200191505060405180910390f35b6105dd600480360360208110156105c757600080fd5b8101908080359060200190929190505050610f44565b005b610621600480360360208110156105f557600080fd5b81019080803573ffffffffffffffffffffffffffffffffffffffff169060200190929190505050610f51565b604051808215151515815260200191505060405180910390f35b610643610f6f565b604051808215151515815260200191505060405180910390f35b610665610f87565b005b6106a96004803603602081101561067d57600080fd5b81019080803573ffffffffffffffffffffffffffffffffffffffff169060200190929190505050610f92565b6040518082815260200191505060405180910390f35b61070b600480360360408110156106d557600080fd5b81019080803573ffffffffffffffffffffffffffffffffffffffff16906020019092919080359060200190929190505050610fdb565b005b61074f6004803603602081101561072357600080fd5b81019080803573ffffffffffffffffffffffffffffffffffffffff169060200190929190505050610fe9565b005b610759611009565b005b6107636110bb565b6040518080602001828103825283818151815260200191508051906020019080838360005b838110156107a3578082015181840152602081019050610788565b50505050905090810190601f1680156107d05780820380516001836020036101000a031916815260200191505b509250505060405180910390f35b610820600480360360208110156107f457600080fd5b81019080803573ffffffffffffffffffffffffffffffffffffffff16906020019092919050505061115d565b005b61082a61117d565b005b6108786004803603604081101561084257600080fd5b81019080803573ffffffffffffffffffffffffffffffffffffffff16906020019092919080359060200190929190505050611188565b604051808215151515815260200191505060405180910390f35b6108de600480360360408110156108a857600080fd5b81019080803573ffffffffffffffffffffffffffffffffffffffff169060200190929190803590602001909291905050506111b9565b604051808215151515815260200191505060405180910390f35b61093a6004803603602081101561090e57600080fd5b81019080803573ffffffffffffffffffffffffffffffffffffffff1690602001909291905050506111ea565b604051808215151515815260200191505060405180910390f35b6109966004803603602081101561096a57600080fd5b81019080803573ffffffffffffffffffffffffffffffffffffffff169060200190929190505050611207565b005b6109da600480360360208110156109ae57600080fd5b81019080803573ffffffffffffffffffffffffffffffffffffffff169060200190929190505050611298565b005b610a3e600480360360408110156109f257600080fd5b81019080803573ffffffffffffffffffffffffffffffffffffffff169060200190929190803573ffffffffffffffffffffffffffffffffffffffff169060200190929190505050611394565b6040518082815260200191505060405180910390f35b610bd160048036036080811015610a6a57600080fd5b81019080803573ffffffffffffffffffffffffffffffffffffffff16906020019092919080359060200190640100000000811115610aa757600080fd5b820183602082011115610ab957600080fd5b80359060200191846001830284011164010000000083111715610adb57600080fd5b91908080601f016020809104026020016040519081016040528093929190818152602001838380828437600081840152601f19601f82011690508083019250505050505050919291929080359060200190640100000000811115610b3e57600080fd5b820183602082011115610b5057600080fd5b80359060200191846001830284011164010000000083111715610b7257600080fd5b91908080601f016020809104026020016040519081016040528093929190818152602001838380828437600081840152601f19601f820116905080830192505050505050509192919290803560ff16906020019092919050505061141b565b005b606060338054600181600116156101000203166002900480601f016020809104026020016040519081016040528092919081815260200182805460018160011615610100020316600290048015610c6b5780601f10610c4057610100808354040283529160200191610c6b565b820191906000526020600020905b815481529060010190602001808311610c4e57829003601f168201915b5050505050905090565b600061016760009054906101000a900460ff16151515610c9457600080fd5b610c9e8383611525565b905092915050565b600060019054906101000a900460ff1680610cc55750610cc461153c565b5b80610cdc57506000809054906101000a900460ff16155b1515610d33576040517f08c379a000000000000000000000000000000000000000000000000000000000815260040180806020018281038252602e815260200180612686602e913960400191505060405180910390fd5b60008060019054906101000a900460ff1690506001600060016101000a81548160ff02191690831515021790555060016000806101000a81548160ff0219169083151502179055508360339080519060200190610d919291906125b1565b508260349080519060200190610da89291906125b1565b5081603560006101000a81548160ff021916908360ff16021790555080600060016101000a81548160ff02191690831515021790555050505050565b6000606a54905090565b600061016760009054906101000a900460ff16151515610e0d57600080fd5b610e1884848461154d565b90509392505050565b6000603560009054906101000a900460ff16905090565b600061016760009054906101000a900460ff16151515610e5757600080fd5b610e6183836115fe565b905092915050565b610e7233610f51565b1515610e7d57600080fd5b61016760009054906101000a900460ff161515610e9957600080fd5b600061016760006101000a81548160ff0219169083151502179055507f5db9ee0a495bf2e6ff9c91a7834c1ba4fdd244a5e8aa4e537bd38aeae4b073aa33604051808273ffffffffffffffffffffffffffffffffffffffff1673ffffffffffffffffffffffffffffffffffffffff16815260200191505060405180910390a1565b6000610f25336111ea565b1515610f3057600080fd5b610f3a83836116a3565b6001905092915050565b610f4e33826117f9565b50565b6000610f688261013461194f90919063ffffffff16565b9050919050565b600061016760009054906101000a900460ff16905090565b610f90336119e3565b565b6000606860008373ffffffffffffffffffffffffffffffffffffffff1673ffffffffffffffffffffffffffffffffffffffff168152602001908152602001600020549050919050565b610fe58282611a3e565b5050565b610ff233610f51565b1515610ffd57600080fd5b61100681611ae5565b50565b61101233610f51565b151561101d57600080fd5b61016760009054906101000a900460ff1615151561103a57600080fd5b600161016760006101000a81548160ff0219169083151502179055507f62e78cea01bee320cd4e420270b5ea74000d11b0c9f74754ebdbfc544b05a25833604051808273ffffffffffffffffffffffffffffffffffffffff1673ffffffffffffffffffffffffffffffffffffffff16815260200191505060405180910390a1565b606060348054600181600116156101000203166002900480601f0160208091040260200160405190810160405280929190818152602001828054600181600116156101000203166002900480156111535780601f1061112857610100808354040283529160200191611153565b820191906000526020600020905b81548152906001019060200180831161113657829003601f168201915b5050505050905090565b611166336111ea565b151561117157600080fd5b61117a81611b40565b50565b61118633611b9a565b565b600061016760009054906101000a900460ff161515156111a757600080fd5b6111b18383611bf4565b905092915050565b600061016760009054906101000a900460ff161515156111d857600080fd5b6111e28383611c99565b905092915050565b60006112008260cf61194f90919063ffffffff16565b9050919050565b6101cc60009054906101000a900460ff16151515611270576040517f08c379a000000000000000000000000000000000000000000000000000000000815260040180806020018281038252602f815260200180612657602f913960400191505060405180910390fd5b60016101cc60006101000a81548160ff02191690831515021790555061129581611ae5565b50565b600060019054906101000a900460ff16806112b757506112b661153c565b5b806112ce57506000809054906101000a900460ff16155b1515611325576040517f08c379a000000000000000000000000000000000000000000000000000000000815260040180806020018281038252602e815260200180612686602e913960400191505060405180910390fd5b60008060019054906101000a900460ff1690506001600060016101000a81548160ff02191690831515021790555060016000806101000a81548160ff02191690831515021790555061137682611cb0565b80600060016101000a81548160ff0219169083151502179055505050565b6000606960008473ffffffffffffffffffffffffffffffffffffffff1673ffffffffffffffffffffffffffffffffffffffff16815260200190815260200160002060008373ffffffffffffffffffffffffffffffffffffffff1673ffffffffffffffffffffffffffffffffffffffff16815260200190815260200160002054905092915050565b600060019054906101000a900460ff168061143a575061143961153c565b5b8061145157506000809054906101000a900460ff16155b15156114a8576040517f08c379a000000000000000000000000000000000000000000000000000000000815260040180806020018281038252602e815260200180612686602e913960400191505060405180910390fd5b60008060019054906101000a900460ff1690506001600060016101000a81548160ff02191690831515021790555060016000806101000a81548160ff0219169083151502179055506114fb848484610ca6565b61150485611dc8565b80600060016101000a81548160ff0219169083151502179055505050505050565b6000611532338484611ec4565b6001905092915050565b600080303b90506000811491505090565b600061155a848484612027565b6115f384336115ee85606960008a73ffffffffffffffffffffffffffffffffffffffff1673ffffffffffffffffffffffffffffffffffffffff16815260200190815260200160002060003373ffffffffffffffffffffffffffffffffffffffff1673ffffffffffffffffffffffffffffffffffffffff168152602001908152602001600020546121f790919063ffffffff16565b611ec4565b600190509392505050565b6000611699338461169485606960003373ffffffffffffffffffffffffffffffffffffffff1673ffffffffffffffffffffffffffffffffffffffff16815260200190815260200160002060008973ffffffffffffffffffffffffffffffffffffffff1673ffffffffffffffffffffffffffffffffffffffff1681526020019081526020016000205461221990919063ffffffff16565b611ec4565b6001905092915050565b600073ffffffffffffffffffffffffffffffffffffffff168273ffffffffffffffffffffffffffffffffffffffff16141515156116df57600080fd5b6116f481606a5461221990919063ffffffff16565b606a8190555061174c81606860008573ffffffffffffffffffffffffffffffffffffffff1673ffffffffffffffffffffffffffffffffffffffff1681526020019081526020016000205461221990919063ffffffff16565b606860008473ffffffffffffffffffffffffffffffffffffffff1673ffffffffffffffffffffffffffffffffffffffff168152602001908152602001600020819055508173ffffffffffffffffffffffffffffffffffffffff16600073ffffffffffffffffffffffffffffffffffffffff167fddf252ad1be2c89b69c2b068fc378daa952ba7f163c4a11628f55a4df523b3ef836040518082815260200191505060405180910390a35050565b600073ffffffffffffffffffffffffffffffffffffffff168273ffffffffffffffffffffffffffffffffffffffff161415151561183557600080fd5b61184a81606a546121f790919063ffffffff16565b606a819055506118a281606860008573ffffffffffffffffffffffffffffffffffffffff1673ffffffffffffffffffffffffffffffffffffffff168152602001908152602001600020546121f790919063ffffffff16565b606860008473ffffffffffffffffffffffffffffffffffffffff1673ffffffffffffffffffffffffffffffffffffffff16815260200190815260200160002081905550600073ffffffffffffffffffffffffffffffffffffffff168273ffffffffffffffffffffffffffffffffffffffff167fddf252ad1be2c89b69c2b068fc378daa952ba7f163c4a11628f55a4df523b3ef836040518082815260200191505060405180910390a35050565b60008073ffffffffffffffffffffffffffffffffffffffff168273ffffffffffffffffffffffffffffffffffffffff161415151561198c57600080fd5b8260000160008373ffffffffffffffffffffffffffffffffffffffff1673ffffffffffffffffffffffffffffffffffffffff16815260200190815260200160002060009054906101000a900460ff16905092915050565b6119f88161013461223a90919063ffffffff16565b8073ffffffffffffffffffffffffffffffffffffffff167fcd265ebaf09df2871cc7bd4133404a235ba12eff2041bb89d9c714a2621c7c7e60405160405180910390a250565b611a4882826117f9565b611ae18233611adc84606960008873ffffffffffffffffffffffffffffffffffffffff1673ffffffffffffffffffffffffffffffffffffffff16815260200190815260200160002060003373ffffffffffffffffffffffffffffffffffffffff1673ffffffffffffffffffffffffffffffffffffffff168152602001908152602001600020546121f790919063ffffffff16565b611ec4565b5050565b611afa816101346122e990919063ffffffff16565b8073ffffffffffffffffffffffffffffffffffffffff167f6719d08c1888103bea251a4ed56406bd0c3e69723c8a1686e017e7bbe159b6f860405160405180910390a250565b611b548160cf6122e990919063ffffffff16565b8073ffffffffffffffffffffffffffffffffffffffff167f6ae172837ea30b801fbfcdd4108aa1d5bf8ff775444fd70256b44e6bf3dfc3f660405160405180910390a250565b611bae8160cf61223a90919063ffffffff16565b8073ffffffffffffffffffffffffffffffffffffffff167fe94479a9f7e1952cc78f2d6baab678adc1b772d936c6583def489e524cb6669260405160405180910390a250565b6000611c8f3384611c8a85606960003373ffffffffffffffffffffffffffffffffffffffff1673ffffffffffffffffffffffffffffffffffffffff16815260200190815260200160002060008973ffffffffffffffffffffffffffffffffffffffff1673ffffffffffffffffffffffffffffffffffffffff168152602001908152602001600020546121f790919063ffffffff16565b611ec4565b6001905092915050565b6000611ca6338484612027565b6001905092915050565b600060019054906101000a900460ff1680611ccf5750611cce61153c565b5b80611ce657506000809054906101000a900460ff16155b1515611d3d576040517f08c379a000000000000000000000000000000000000000000000000000000000815260040180806020018281038252602e815260200180612686602e913960400191505060405180910390fd5b60008060019054906101000a900460ff1690506001600060016101000a81548160ff02191690831515021790555060016000806101000a81548160ff021916908315150217905550611d8e82612399565b600061016760006101000a81548160ff02191690831515021790555080600060016101000a81548160ff0219169083151502179055505050565b600060019054906101000a900460ff1680611de75750611de661153c565b5b80611dfe57506000809054906101000a900460ff16155b1515611e55576040517f08c379a000000000000000000000000000000000000000000000000000000000815260040180806020018281038252602e815260200180612686602e913960400191505060405180910390fd5b60008060019054906101000a900460ff1690506001600060016101000a81548160ff02191690831515021790555060016000806101000a81548160ff021916908315150217905550611ea6826124a5565b80600060016101000a81548160ff0219169083151502179055505050565b600073ffffffffffffffffffffffffffffffffffffffff168273ffffffffffffffffffffffffffffffffffffffff1614151515611f0057600080fd5b600073ffffffffffffffffffffffffffffffffffffffff168373ffffffffffffffffffffffffffffffffffffffff1614151515611f3c57600080fd5b80606960008573ffffffffffffffffffffffffffffffffffffffff1673ffffffffffffffffffffffffffffffffffffffff16815260200190815260200160002060008473ffffffffffffffffffffffffffffffffffffffff1673ffffffffffffffffffffffffffffffffffffffff168152602001908152602001600020819055508173ffffffffffffffffffffffffffffffffffffffff168373ffffffffffffffffffffffffffffffffffffffff167f8c5be1e5ebec7d5bd14f71427d1e84f3dd0314c0f7b2291e5b200ac8c7c3b925836040518082815260200191505060405180910390a3505050565b600073ffffffffffffffffffffffffffffffffffffffff168273ffffffffffffffffffffffffffffffffffffffff161415151561206357600080fd5b6120b581606860008673ffffffffffffffffffffffffffffffffffffffff1673ffffffffffffffffffffffffffffffffffffffff168152602001908152602001600020546121f790919063ffffffff16565b606860008573ffffffffffffffffffffffffffffffffffffffff1673ffffffffffffffffffffffffffffffffffffffff1681526020019081526020016000208190555061214a81606860008573ffffffffffffffffffffffffffffffffffffffff1673ffffffffffffffffffffffffffffffffffffffff1681526020019081526020016000205461221990919063ffffffff16565b606860008473ffffffffffffffffffffffffffffffffffffffff1673ffffffffffffffffffffffffffffffffffffffff168152602001908152602001600020819055508173ffffffffffffffffffffffffffffffffffffffff168373ffffffffffffffffffffffffffffffffffffffff167fddf252ad1be2c89b69c2b068fc378daa952ba7f163c4a11628f55a4df523b3ef836040518082815260200191505060405180910390a3505050565b600082821115151561220857600080fd5b600082840390508091505092915050565b600080828401905083811015151561223057600080fd5b8091505092915050565b600073ffffffffffffffffffffffffffffffffffffffff168173ffffffffffffffffffffffffffffffffffffffff161415151561227657600080fd5b612280828261194f565b151561228b57600080fd5b60008260000160008373ffffffffffffffffffffffffffffffffffffffff1673ffffffffffffffffffffffffffffffffffffffff16815260200190815260200160002060006101000a81548160ff0219169083151502179055505050565b600073ffffffffffffffffffffffffffffffffffffffff168173ffffffffffffffffffffffffffffffffffffffff161415151561232557600080fd5b61232f828261194f565b15151561233b57600080fd5b60018260000160008373ffffffffffffffffffffffffffffffffffffffff1673ffffffffffffffffffffffffffffffffffffffff16815260200190815260200160002060006101000a81548160ff0219169083151502179055505050565b600060019054906101000a900460ff16806123b857506123b761153c565b5b806123cf57506000809054906101000a900460ff16155b1515612426576040517f08c379a000000000000000000000000000000000000000000000000000000000815260040180806020018281038252602e815260200180612686602e913960400191505060405180910390fd5b60008060019054906101000a900460ff1690506001600060016101000a81548160ff02191690831515021790555060016000806101000a81548160ff02191690831515021790555061247782610f51565b15156124875761248682611ae5565b5b80600060016101000a81548160ff0219169083151502179055505050565b600060019054906101000a900460ff16806124c457506124c361153c565b5b806124db57506000809054906101000a900460ff16155b1515612532576040517f08c379a000000000000000000000000000000000000000000000000000000000815260040180806020018281038252602e815260200180612686602e913960400191505060405180910390fd5b60008060019054906101000a900460ff1690506001600060016101000a81548160ff02191690831515021790555060016000806101000a81548160ff021916908315150217905550612583826111ea565b15156125935761259282611b40565b5b80600060016101000a81548160ff0219169083151502179055505050565b828054600181600116156101000203166002900490600052602060002090601f016020900481019282601f106125f257805160ff1916838001178555612620565b82800160010185558215612620579182015b8281111561261f578251825591602001919060010190612604565b5b50905061262d9190612631565b5090565b61265391905b8082111561264f576000816000905550600101612637565b5090565b9056fe4d79546f6b656e323a207061757361626c652068617320616c7265616479206265656e20696e697469616c697a6564436f6e747261637420696e7374616e63652068617320616c7265616479206265656e20696e697469616c697a6564a165627a7a72305820acf62af0d573076d03cc1cf7c34f46b7bb94a6c2f78b1b6805d6d9411f0a36e00029",
  "source": "pragma solidity ^0.5.0;\n\nimport \"zos-lib/contracts/Initializable.sol\";\nimport \"openzeppelin-eth/contracts/token/ERC20/ERC20Detailed.sol\";\nimport \"openzeppelin-eth/contracts/token/ERC20/ERC20Mintable.sol\";\nimport \"openzeppelin-eth/contracts/token/ERC20/ERC20Burnable.sol\";\nimport \"openzeppelin-eth/contracts/token/ERC20/ERC20Pausable.sol\";\n\ncontract MyToken2 is Initializable, ERC20Detailed, ERC20Burnable, ERC20Mintable, ERC20Pausable {\n\n    bool private _pausableInitialized;\n\n    function initialize(address sender, string memory name, string memory symbol, uint8 decimals) public initializer {\n        ERC20Detailed.initialize(name, symbol, decimals);\n        ERC20Mintable.initialize(sender);\n        // Missing: ERC20Pausable.initialize(sender)\n    }\n\n    function initializePausable(address sender) public {\n        require(!_pausableInitialized, \"MyToken2: pausable has already been initialized\");\n        _pausableInitialized = true;\n        _addPauser(sender);\n    }\n}",
  "sourcePath": "/Users/shannoncode/repo/_CircuitsOfValue_ERC20/contracts/MyToken2.sol",
  "compiler": {
    "name": "solc",
    "version": "0.5.2+commit.1df8f40c.Emscripten.clang"
  },
  "schemaVersion": "3.0.11",
  "updatedAt": "2019-06-20T17:21:19.994Z",
  "devdoc": {
    "methods": {
      "allowance(address,address)": {
        "details": "Function to check the amount of tokens that an owner allowed to a spender.",
        "params": {
          "owner": "address The address which owns the funds.",
          "spender": "address The address which will spend the funds."
        },
        "return": "A uint256 specifying the amount of tokens still available for the spender."
      },
      "balanceOf(address)": {
        "details": "Gets the balance of the specified address.",
        "params": {
          "owner": "The address to query the balance of."
        },
        "return": "A uint256 representing the amount owned by the passed address."
      },
      "burn(uint256)": {
        "details": "Burns a specific amount of tokens.",
        "params": {
          "value": "The amount of token to be burned."
        }
      },
      "burnFrom(address,uint256)": {
        "details": "Burns a specific amount of tokens from the target address and decrements allowance",
        "params": {
          "from": "address The account whose tokens will be burned.",
          "value": "uint256 The amount of token to be burned."
        }
      },
      "decimals()": {
        "return": "the number of decimals of the token."
      },
      "mint(address,uint256)": {
        "details": "Function to mint tokens",
        "params": {
          "to": "The address that will receive the minted tokens.",
          "value": "The amount of tokens to mint."
        },
        "return": "A boolean that indicates if the operation was successful."
      },
      "name()": {
        "return": "the name of the token."
      },
      "pause()": {
        "details": "called by the owner to pause, triggers stopped state"
      },
      "paused()": {
        "return": "true if the contract is paused, false otherwise."
      },
      "symbol()": {
        "return": "the symbol of the token."
      },
      "totalSupply()": {
        "details": "Total number of tokens in existence"
      },
      "unpause()": {
        "details": "called by the owner to unpause, returns to normal state"
      }
    }
  },
  "userdoc": {
    "methods": {}
  }
}